{
	"contracts/Applications/DeployWithCreate2.sol": {
		"Factory": {
			"abi": [
				{
					"inputs": [
						{
							"internalType": "address",
							"name": "_owner",
							"type": "address"
						},
						{
							"internalType": "uint256",
							"name": "_foo",
							"type": "uint256"
						},
						{
							"internalType": "bytes32",
							"name": "_salt",
							"type": "bytes32"
						}
					],
					"name": "deploy",
					"outputs": [
						{
							"internalType": "address",
							"name": "",
							"type": "address"
						}
					],
					"stateMutability": "payable",
					"type": "function"
				}
			],
			"devdoc": {
				"kind": "dev",
				"methods": {},
				"version": 1
			},
			"evm": {
				"assembly": "    /* \"contracts/Applications/DeployWithCreate2.sol\":58:548  contract Factory {... */\n  mstore(0x40, 0x80)\n  callvalue\n  dup1\n  iszero\n  tag_1\n  jumpi\n  0x00\n  dup1\n  revert\ntag_1:\n  pop\n  dataSize(sub_0)\n  dup1\n  dataOffset(sub_0)\n  0x00\n  codecopy\n  0x00\n  return\nstop\n\nsub_0: assembly {\n        /* \"contracts/Applications/DeployWithCreate2.sol\":58:548  contract Factory {... */\n      mstore(0x40, 0x80)\n      jumpi(tag_1, lt(calldatasize, 0x04))\n      shr(0xe0, calldataload(0x00))\n      dup1\n      0xe7008afa\n      eq\n      tag_2\n      jumpi\n    tag_1:\n      0x00\n      dup1\n      revert\n        /* \"contracts/Applications/DeployWithCreate2.sol\":139:546  function deploy(... */\n    tag_2:\n      tag_3\n      0x04\n      dup1\n      calldatasize\n      sub\n      dup2\n      add\n      swap1\n      tag_4\n      swap2\n      swap1\n      tag_5\n      jump\t// in\n    tag_4:\n      tag_6\n      jump\t// in\n    tag_3:\n      mload(0x40)\n      tag_7\n      swap2\n      swap1\n      tag_8\n      jump\t// in\n    tag_7:\n      mload(0x40)\n      dup1\n      swap2\n      sub\n      swap1\n      return\n    tag_6:\n        /* \"contracts/Applications/DeployWithCreate2.sol\":251:258  address */\n      0x00\n        /* \"contracts/Applications/DeployWithCreate2.sol\":518:523  _salt */\n      dup2\n        /* \"contracts/Applications/DeployWithCreate2.sol\":525:531  _owner */\n      dup5\n        /* \"contracts/Applications/DeployWithCreate2.sol\":533:537  _foo */\n      dup5\n        /* \"contracts/Applications/DeployWithCreate2.sol\":495:538  new TestContract{salt: _salt}(_owner, _foo) */\n      mload(0x40)\n      tag_10\n      swap1\n      tag_11\n      jump\t// in\n    tag_10:\n      tag_12\n      swap3\n      swap2\n      swap1\n      tag_13\n      jump\t// in\n    tag_12:\n      dup2\n      swap1\n      mload(0x40)\n      dup1\n      swap2\n      sub\n      swap1\n      0x00\n      create2\n      swap1\n      pop\n      dup1\n      iszero\n      dup1\n      iszero\n      tag_14\n      jumpi\n      returndatasize\n      0x00\n      dup1\n      returndatacopy\n      revert(0x00, returndatasize)\n    tag_14:\n      pop\n        /* \"contracts/Applications/DeployWithCreate2.sol\":480:539  return address(new TestContract{salt: _salt}(_owner, _foo)) */\n      swap1\n      pop\n        /* \"contracts/Applications/DeployWithCreate2.sol\":139:546  function deploy(... */\n      swap4\n      swap3\n      pop\n      pop\n      pop\n      jump\t// out\n    tag_11:\n      dataSize(sub_0)\n      dup1\n      dataOffset(sub_0)\n      dup4\n      codecopy\n      add\n      swap1\n      jump\t// out\n        /* \"#utility.yul\":88:205   */\n    tag_16:\n        /* \"#utility.yul\":197:198   */\n      0x00\n        /* \"#utility.yul\":194:195   */\n      dup1\n        /* \"#utility.yul\":187:199   */\n      revert\n        /* \"#utility.yul\":334:460   */\n    tag_18:\n        /* \"#utility.yul\":371:378   */\n      0x00\n        /* \"#utility.yul\":411:453   */\n      0xffffffffffffffffffffffffffffffffffffffff\n        /* \"#utility.yul\":404:409   */\n      dup3\n        /* \"#utility.yul\":400:454   */\n      and\n        /* \"#utility.yul\":389:454   */\n      swap1\n      pop\n        /* \"#utility.yul\":334:460   */\n      swap2\n      swap1\n      pop\n      jump\t// out\n        /* \"#utility.yul\":466:562   */\n    tag_19:\n        /* \"#utility.yul\":503:510   */\n      0x00\n        /* \"#utility.yul\":532:556   */\n      tag_36\n        /* \"#utility.yul\":550:555   */\n      dup3\n        /* \"#utility.yul\":532:556   */\n      tag_18\n      jump\t// in\n    tag_36:\n        /* \"#utility.yul\":521:556   */\n      swap1\n      pop\n        /* \"#utility.yul\":466:562   */\n      swap2\n      swap1\n      pop\n      jump\t// out\n        /* \"#utility.yul\":568:690   */\n    tag_20:\n        /* \"#utility.yul\":641:665   */\n      tag_38\n        /* \"#utility.yul\":659:664   */\n      dup2\n        /* \"#utility.yul\":641:665   */\n      tag_19\n      jump\t// in\n    tag_38:\n        /* \"#utility.yul\":634:639   */\n      dup2\n        /* \"#utility.yul\":631:666   */\n      eq\n        /* \"#utility.yul\":621:684   */\n      tag_39\n      jumpi\n        /* \"#utility.yul\":680:681   */\n      0x00\n        /* \"#utility.yul\":677:678   */\n      dup1\n        /* \"#utility.yul\":670:682   */\n      revert\n        /* \"#utility.yul\":621:684   */\n    tag_39:\n        /* \"#utility.yul\":568:690   */\n      pop\n      jump\t// out\n        /* \"#utility.yul\":696:835   */\n    tag_21:\n        /* \"#utility.yul\":742:747   */\n      0x00\n        /* \"#utility.yul\":780:786   */\n      dup2\n        /* \"#utility.yul\":767:787   */\n      calldataload\n        /* \"#utility.yul\":758:787   */\n      swap1\n      pop\n        /* \"#utility.yul\":796:829   */\n      tag_41\n        /* \"#utility.yul\":823:828   */\n      dup2\n        /* \"#utility.yul\":796:829   */\n      tag_20\n      jump\t// in\n    tag_41:\n        /* \"#utility.yul\":696:835   */\n      swap3\n      swap2\n      pop\n      pop\n      jump\t// out\n        /* \"#utility.yul\":841:918   */\n    tag_22:\n        /* \"#utility.yul\":878:885   */\n      0x00\n        /* \"#utility.yul\":907:912   */\n      dup2\n        /* \"#utility.yul\":896:912   */\n      swap1\n      pop\n        /* \"#utility.yul\":841:918   */\n      swap2\n      swap1\n      pop\n      jump\t// out\n        /* \"#utility.yul\":924:1046   */\n    tag_23:\n        /* \"#utility.yul\":997:1021   */\n      tag_44\n        /* \"#utility.yul\":1015:1020   */\n      dup2\n        /* \"#utility.yul\":997:1021   */\n      tag_22\n      jump\t// in\n    tag_44:\n        /* \"#utility.yul\":990:995   */\n      dup2\n        /* \"#utility.yul\":987:1022   */\n      eq\n        /* \"#utility.yul\":977:1040   */\n      tag_45\n      jumpi\n        /* \"#utility.yul\":1036:1037   */\n      0x00\n        /* \"#utility.yul\":1033:1034   */\n      dup1\n        /* \"#utility.yul\":1026:1038   */\n      revert\n        /* \"#utility.yul\":977:1040   */\n    tag_45:\n        /* \"#utility.yul\":924:1046   */\n      pop\n      jump\t// out\n        /* \"#utility.yul\":1052:1191   */\n    tag_24:\n        /* \"#utility.yul\":1098:1103   */\n      0x00\n        /* \"#utility.yul\":1136:1142   */\n      dup2\n        /* \"#utility.yul\":1123:1143   */\n      calldataload\n        /* \"#utility.yul\":1114:1143   */\n      swap1\n      pop\n        /* \"#utility.yul\":1152:1185   */\n      tag_47\n        /* \"#utility.yul\":1179:1184   */\n      dup2\n        /* \"#utility.yul\":1152:1185   */\n      tag_23\n      jump\t// in\n    tag_47:\n        /* \"#utility.yul\":1052:1191   */\n      swap3\n      swap2\n      pop\n      pop\n      jump\t// out\n        /* \"#utility.yul\":1197:1274   */\n    tag_25:\n        /* \"#utility.yul\":1234:1241   */\n      0x00\n        /* \"#utility.yul\":1263:1268   */\n      dup2\n        /* \"#utility.yul\":1252:1268   */\n      swap1\n      pop\n        /* \"#utility.yul\":1197:1274   */\n      swap2\n      swap1\n      pop\n      jump\t// out\n        /* \"#utility.yul\":1280:1402   */\n    tag_26:\n        /* \"#utility.yul\":1353:1377   */\n      tag_50\n        /* \"#utility.yul\":1371:1376   */\n      dup2\n        /* \"#utility.yul\":1353:1377   */\n      tag_25\n      jump\t// in\n    tag_50:\n        /* \"#utility.yul\":1346:1351   */\n      dup2\n        /* \"#utility.yul\":1343:1378   */\n      eq\n        /* \"#utility.yul\":1333:1396   */\n      tag_51\n      jumpi\n        /* \"#utility.yul\":1392:1393   */\n      0x00\n        /* \"#utility.yul\":1389:1390   */\n      dup1\n        /* \"#utility.yul\":1382:1394   */\n      revert\n        /* \"#utility.yul\":1333:1396   */\n    tag_51:\n        /* \"#utility.yul\":1280:1402   */\n      pop\n      jump\t// out\n        /* \"#utility.yul\":1408:1547   */\n    tag_27:\n        /* \"#utility.yul\":1454:1459   */\n      0x00\n        /* \"#utility.yul\":1492:1498   */\n      dup2\n        /* \"#utility.yul\":1479:1499   */\n      calldataload\n        /* \"#utility.yul\":1470:1499   */\n      swap1\n      pop\n        /* \"#utility.yul\":1508:1541   */\n      tag_53\n        /* \"#utility.yul\":1535:1540   */\n      dup2\n        /* \"#utility.yul\":1508:1541   */\n      tag_26\n      jump\t// in\n    tag_53:\n        /* \"#utility.yul\":1408:1547   */\n      swap3\n      swap2\n      pop\n      pop\n      jump\t// out\n        /* \"#utility.yul\":1553:2172   */\n    tag_5:\n        /* \"#utility.yul\":1630:1636   */\n      0x00\n        /* \"#utility.yul\":1638:1644   */\n      dup1\n        /* \"#utility.yul\":1646:1652   */\n      0x00\n        /* \"#utility.yul\":1695:1697   */\n      0x60\n        /* \"#utility.yul\":1683:1692   */\n      dup5\n        /* \"#utility.yul\":1674:1681   */\n      dup7\n        /* \"#utility.yul\":1670:1693   */\n      sub\n        /* \"#utility.yul\":1666:1698   */\n      slt\n        /* \"#utility.yul\":1663:1782   */\n      iszero\n      tag_55\n      jumpi\n        /* \"#utility.yul\":1701:1780   */\n      tag_56\n      tag_16\n      jump\t// in\n    tag_56:\n        /* \"#utility.yul\":1663:1782   */\n    tag_55:\n        /* \"#utility.yul\":1821:1822   */\n      0x00\n        /* \"#utility.yul\":1846:1899   */\n      tag_57\n        /* \"#utility.yul\":1891:1898   */\n      dup7\n        /* \"#utility.yul\":1882:1888   */\n      dup3\n        /* \"#utility.yul\":1871:1880   */\n      dup8\n        /* \"#utility.yul\":1867:1889   */\n      add\n        /* \"#utility.yul\":1846:1899   */\n      tag_21\n      jump\t// in\n    tag_57:\n        /* \"#utility.yul\":1836:1899   */\n      swap4\n      pop\n        /* \"#utility.yul\":1792:1909   */\n      pop\n        /* \"#utility.yul\":1948:1950   */\n      0x20\n        /* \"#utility.yul\":1974:2027   */\n      tag_58\n        /* \"#utility.yul\":2019:2026   */\n      dup7\n        /* \"#utility.yul\":2010:2016   */\n      dup3\n        /* \"#utility.yul\":1999:2008   */\n      dup8\n        /* \"#utility.yul\":1995:2017   */\n      add\n        /* \"#utility.yul\":1974:2027   */\n      tag_24\n      jump\t// in\n    tag_58:\n        /* \"#utility.yul\":1964:2027   */\n      swap3\n      pop\n        /* \"#utility.yul\":1919:2037   */\n      pop\n        /* \"#utility.yul\":2076:2078   */\n      0x40\n        /* \"#utility.yul\":2102:2155   */\n      tag_59\n        /* \"#utility.yul\":2147:2154   */\n      dup7\n        /* \"#utility.yul\":2138:2144   */\n      dup3\n        /* \"#utility.yul\":2127:2136   */\n      dup8\n        /* \"#utility.yul\":2123:2145   */\n      add\n        /* \"#utility.yul\":2102:2155   */\n      tag_27\n      jump\t// in\n    tag_59:\n        /* \"#utility.yul\":2092:2155   */\n      swap2\n      pop\n        /* \"#utility.yul\":2047:2165   */\n      pop\n        /* \"#utility.yul\":1553:2172   */\n      swap3\n      pop\n      swap3\n      pop\n      swap3\n      jump\t// out\n        /* \"#utility.yul\":2178:2296   */\n    tag_28:\n        /* \"#utility.yul\":2265:2289   */\n      tag_61\n        /* \"#utility.yul\":2283:2288   */\n      dup2\n        /* \"#utility.yul\":2265:2289   */\n      tag_19\n      jump\t// in\n    tag_61:\n        /* \"#utility.yul\":2260:2263   */\n      dup3\n        /* \"#utility.yul\":2253:2290   */\n      mstore\n        /* \"#utility.yul\":2178:2296   */\n      pop\n      pop\n      jump\t// out\n        /* \"#utility.yul\":2302:2524   */\n    tag_8:\n        /* \"#utility.yul\":2395:2399   */\n      0x00\n        /* \"#utility.yul\":2433:2435   */\n      0x20\n        /* \"#utility.yul\":2422:2431   */\n      dup3\n        /* \"#utility.yul\":2418:2436   */\n      add\n        /* \"#utility.yul\":2410:2436   */\n      swap1\n      pop\n        /* \"#utility.yul\":2446:2517   */\n      tag_63\n        /* \"#utility.yul\":2514:2515   */\n      0x00\n        /* \"#utility.yul\":2503:2512   */\n      dup4\n        /* \"#utility.yul\":2499:2516   */\n      add\n        /* \"#utility.yul\":2490:2496   */\n      dup5\n        /* \"#utility.yul\":2446:2517   */\n      tag_28\n      jump\t// in\n    tag_63:\n        /* \"#utility.yul\":2302:2524   */\n      swap3\n      swap2\n      pop\n      pop\n      jump\t// out\n        /* \"#utility.yul\":2530:2648   */\n    tag_29:\n        /* \"#utility.yul\":2617:2641   */\n      tag_65\n        /* \"#utility.yul\":2635:2640   */\n      dup2\n        /* \"#utility.yul\":2617:2641   */\n      tag_22\n      jump\t// in\n    tag_65:\n        /* \"#utility.yul\":2612:2615   */\n      dup3\n        /* \"#utility.yul\":2605:2642   */\n      mstore\n        /* \"#utility.yul\":2530:2648   */\n      pop\n      pop\n      jump\t// out\n        /* \"#utility.yul\":2654:2986   */\n    tag_13:\n        /* \"#utility.yul\":2775:2779   */\n      0x00\n        /* \"#utility.yul\":2813:2815   */\n      0x40\n        /* \"#utility.yul\":2802:2811   */\n      dup3\n        /* \"#utility.yul\":2798:2816   */\n      add\n        /* \"#utility.yul\":2790:2816   */\n      swap1\n      pop\n        /* \"#utility.yul\":2826:2897   */\n      tag_67\n        /* \"#utility.yul\":2894:2895   */\n      0x00\n        /* \"#utility.yul\":2883:2892   */\n      dup4\n        /* \"#utility.yul\":2879:2896   */\n      add\n        /* \"#utility.yul\":2870:2876   */\n      dup6\n        /* \"#utility.yul\":2826:2897   */\n      tag_28\n      jump\t// in\n    tag_67:\n        /* \"#utility.yul\":2907:2979   */\n      tag_68\n        /* \"#utility.yul\":2975:2977   */\n      0x20\n        /* \"#utility.yul\":2964:2973   */\n      dup4\n        /* \"#utility.yul\":2960:2978   */\n      add\n        /* \"#utility.yul\":2951:2957   */\n      dup5\n        /* \"#utility.yul\":2907:2979   */\n      tag_29\n      jump\t// in\n    tag_68:\n        /* \"#utility.yul\":2654:2986   */\n      swap4\n      swap3\n      pop\n      pop\n      pop\n      jump\t// out\n    stop\n\n    sub_0: assembly {\n            /* \"contracts/Applications/DeployWithCreate2.sol\":2688:2964  contract TestContract {... */\n          mstore(0x40, 0x80)\n            /* \"contracts/Applications/DeployWithCreate2.sol\":2764:2862  constructor(address _owner, uint _foo) payable {... */\n          mload(0x40)\n          sub(codesize, bytecodeSize)\n          dup1\n          bytecodeSize\n          dup4\n          codecopy\n          dup2\n          dup2\n          add\n          0x40\n          mstore\n          dup2\n          add\n          swap1\n          tag_1\n          swap2\n          swap1\n          tag_2\n          jump\t// in\n        tag_1:\n            /* \"contracts/Applications/DeployWithCreate2.sol\":2829:2835  _owner */\n          dup2\n            /* \"contracts/Applications/DeployWithCreate2.sol\":2821:2826  owner */\n          0x00\n          dup1\n            /* \"contracts/Applications/DeployWithCreate2.sol\":2821:2835  owner = _owner */\n          0x0100\n          exp\n          dup2\n          sload\n          dup2\n          0xffffffffffffffffffffffffffffffffffffffff\n          mul\n          not\n          and\n          swap1\n          dup4\n          0xffffffffffffffffffffffffffffffffffffffff\n          and\n          mul\n          or\n          swap1\n          sstore\n          pop\n            /* \"contracts/Applications/DeployWithCreate2.sol\":2851:2855  _foo */\n          dup1\n            /* \"contracts/Applications/DeployWithCreate2.sol\":2845:2848  foo */\n          0x01\n            /* \"contracts/Applications/DeployWithCreate2.sol\":2845:2855  foo = _foo */\n          dup2\n          swap1\n          sstore\n          pop\n            /* \"contracts/Applications/DeployWithCreate2.sol\":2764:2862  constructor(address _owner, uint _foo) payable {... */\n          pop\n          pop\n            /* \"contracts/Applications/DeployWithCreate2.sol\":2688:2964  contract TestContract {... */\n          jump(tag_5)\n            /* \"#utility.yul\":88:205   */\n        tag_7:\n            /* \"#utility.yul\":197:198   */\n          0x00\n            /* \"#utility.yul\":194:195   */\n          dup1\n            /* \"#utility.yul\":187:199   */\n          revert\n            /* \"#utility.yul\":334:460   */\n        tag_9:\n            /* \"#utility.yul\":371:378   */\n          0x00\n            /* \"#utility.yul\":411:453   */\n          0xffffffffffffffffffffffffffffffffffffffff\n            /* \"#utility.yul\":404:409   */\n          dup3\n            /* \"#utility.yul\":400:454   */\n          and\n            /* \"#utility.yul\":389:454   */\n          swap1\n          pop\n            /* \"#utility.yul\":334:460   */\n          swap2\n          swap1\n          pop\n          jump\t// out\n            /* \"#utility.yul\":466:562   */\n        tag_10:\n            /* \"#utility.yul\":503:510   */\n          0x00\n            /* \"#utility.yul\":532:556   */\n          tag_22\n            /* \"#utility.yul\":550:555   */\n          dup3\n            /* \"#utility.yul\":532:556   */\n          tag_9\n          jump\t// in\n        tag_22:\n            /* \"#utility.yul\":521:556   */\n          swap1\n          pop\n            /* \"#utility.yul\":466:562   */\n          swap2\n          swap1\n          pop\n          jump\t// out\n            /* \"#utility.yul\":568:690   */\n        tag_11:\n            /* \"#utility.yul\":641:665   */\n          tag_24\n            /* \"#utility.yul\":659:664   */\n          dup2\n            /* \"#utility.yul\":641:665   */\n          tag_10\n          jump\t// in\n        tag_24:\n            /* \"#utility.yul\":634:639   */\n          dup2\n            /* \"#utility.yul\":631:666   */\n          eq\n            /* \"#utility.yul\":621:684   */\n          tag_25\n          jumpi\n            /* \"#utility.yul\":680:681   */\n          0x00\n            /* \"#utility.yul\":677:678   */\n          dup1\n            /* \"#utility.yul\":670:682   */\n          revert\n            /* \"#utility.yul\":621:684   */\n        tag_25:\n            /* \"#utility.yul\":568:690   */\n          pop\n          jump\t// out\n            /* \"#utility.yul\":696:839   */\n        tag_12:\n            /* \"#utility.yul\":753:758   */\n          0x00\n            /* \"#utility.yul\":784:790   */\n          dup2\n            /* \"#utility.yul\":778:791   */\n          mload\n            /* \"#utility.yul\":769:791   */\n          swap1\n          pop\n            /* \"#utility.yul\":800:833   */\n          tag_27\n            /* \"#utility.yul\":827:832   */\n          dup2\n            /* \"#utility.yul\":800:833   */\n          tag_11\n          jump\t// in\n        tag_27:\n            /* \"#utility.yul\":696:839   */\n          swap3\n          swap2\n          pop\n          pop\n          jump\t// out\n            /* \"#utility.yul\":845:922   */\n        tag_13:\n            /* \"#utility.yul\":882:889   */\n          0x00\n            /* \"#utility.yul\":911:916   */\n          dup2\n            /* \"#utility.yul\":900:916   */\n          swap1\n          pop\n            /* \"#utility.yul\":845:922   */\n          swap2\n          swap1\n          pop\n          jump\t// out\n            /* \"#utility.yul\":928:1050   */\n        tag_14:\n            /* \"#utility.yul\":1001:1025   */\n          tag_30\n            /* \"#utility.yul\":1019:1024   */\n          dup2\n            /* \"#utility.yul\":1001:1025   */\n          tag_13\n          jump\t// in\n        tag_30:\n            /* \"#utility.yul\":994:999   */\n          dup2\n            /* \"#utility.yul\":991:1026   */\n          eq\n            /* \"#utility.yul\":981:1044   */\n          tag_31\n          jumpi\n            /* \"#utility.yul\":1040:1041   */\n          0x00\n            /* \"#utility.yul\":1037:1038   */\n          dup1\n            /* \"#utility.yul\":1030:1042   */\n          revert\n            /* \"#utility.yul\":981:1044   */\n        tag_31:\n            /* \"#utility.yul\":928:1050   */\n          pop\n          jump\t// out\n            /* \"#utility.yul\":1056:1199   */\n        tag_15:\n            /* \"#utility.yul\":1113:1118   */\n          0x00\n            /* \"#utility.yul\":1144:1150   */\n          dup2\n            /* \"#utility.yul\":1138:1151   */\n          mload\n            /* \"#utility.yul\":1129:1151   */\n          swap1\n          pop\n            /* \"#utility.yul\":1160:1193   */\n          tag_33\n            /* \"#utility.yul\":1187:1192   */\n          dup2\n            /* \"#utility.yul\":1160:1193   */\n          tag_14\n          jump\t// in\n        tag_33:\n            /* \"#utility.yul\":1056:1199   */\n          swap3\n          swap2\n          pop\n          pop\n          jump\t// out\n            /* \"#utility.yul\":1205:1712   */\n        tag_2:\n            /* \"#utility.yul\":1284:1290   */\n          0x00\n            /* \"#utility.yul\":1292:1298   */\n          dup1\n            /* \"#utility.yul\":1341:1343   */\n          0x40\n            /* \"#utility.yul\":1329:1338   */\n          dup4\n            /* \"#utility.yul\":1320:1327   */\n          dup6\n            /* \"#utility.yul\":1316:1339   */\n          sub\n            /* \"#utility.yul\":1312:1344   */\n          slt\n            /* \"#utility.yul\":1309:1428   */\n          iszero\n          tag_35\n          jumpi\n            /* \"#utility.yul\":1347:1426   */\n          tag_36\n          tag_7\n          jump\t// in\n        tag_36:\n            /* \"#utility.yul\":1309:1428   */\n        tag_35:\n            /* \"#utility.yul\":1467:1468   */\n          0x00\n            /* \"#utility.yul\":1492:1556   */\n          tag_37\n            /* \"#utility.yul\":1548:1555   */\n          dup6\n            /* \"#utility.yul\":1539:1545   */\n          dup3\n            /* \"#utility.yul\":1528:1537   */\n          dup7\n            /* \"#utility.yul\":1524:1546   */\n          add\n            /* \"#utility.yul\":1492:1556   */\n          tag_12\n          jump\t// in\n        tag_37:\n            /* \"#utility.yul\":1482:1556   */\n          swap3\n          pop\n            /* \"#utility.yul\":1438:1566   */\n          pop\n            /* \"#utility.yul\":1605:1607   */\n          0x20\n            /* \"#utility.yul\":1631:1695   */\n          tag_38\n            /* \"#utility.yul\":1687:1694   */\n          dup6\n            /* \"#utility.yul\":1678:1684   */\n          dup3\n            /* \"#utility.yul\":1667:1676   */\n          dup7\n            /* \"#utility.yul\":1663:1685   */\n          add\n            /* \"#utility.yul\":1631:1695   */\n          tag_15\n          jump\t// in\n        tag_38:\n            /* \"#utility.yul\":1621:1695   */\n          swap2\n          pop\n            /* \"#utility.yul\":1576:1705   */\n          pop\n            /* \"#utility.yul\":1205:1712   */\n          swap3\n          pop\n          swap3\n          swap1\n          pop\n          jump\t// out\n            /* \"contracts/Applications/DeployWithCreate2.sol\":2688:2964  contract TestContract {... */\n        tag_5:\n          dataSize(sub_0)\n          dup1\n          dataOffset(sub_0)\n          0x00\n          codecopy\n          0x00\n          return\n        stop\n\n        sub_0: assembly {\n                /* \"contracts/Applications/DeployWithCreate2.sol\":2688:2964  contract TestContract {... */\n              mstore(0x40, 0x80)\n              callvalue\n              dup1\n              iszero\n              tag_1\n              jumpi\n              0x00\n              dup1\n              revert\n            tag_1:\n              pop\n              jumpi(tag_2, lt(calldatasize, 0x04))\n              shr(0xe0, calldataload(0x00))\n              dup1\n              0x12065fe0\n              eq\n              tag_3\n              jumpi\n              dup1\n              0x8da5cb5b\n              eq\n              tag_4\n              jumpi\n              dup1\n              0xc2985578\n              eq\n              tag_5\n              jumpi\n            tag_2:\n              0x00\n              dup1\n              revert\n                /* \"contracts/Applications/DeployWithCreate2.sol\":2868:2962  function getBalance() public view returns (uint) {... */\n            tag_3:\n              tag_6\n              tag_7\n              jump\t// in\n            tag_6:\n              mload(0x40)\n              tag_8\n              swap2\n              swap1\n              tag_9\n              jump\t// in\n            tag_8:\n              mload(0x40)\n              dup1\n              swap2\n              sub\n              swap1\n              return\n                /* \"contracts/Applications/DeployWithCreate2.sol\":2716:2736  address public owner */\n            tag_4:\n              tag_10\n              tag_11\n              jump\t// in\n            tag_10:\n              mload(0x40)\n              tag_12\n              swap2\n              swap1\n              tag_13\n              jump\t// in\n            tag_12:\n              mload(0x40)\n              dup1\n              swap2\n              sub\n              swap1\n              return\n                /* \"contracts/Applications/DeployWithCreate2.sol\":2742:2757  uint public foo */\n            tag_5:\n              tag_14\n              tag_15\n              jump\t// in\n            tag_14:\n              mload(0x40)\n              tag_16\n              swap2\n              swap1\n              tag_9\n              jump\t// in\n            tag_16:\n              mload(0x40)\n              dup1\n              swap2\n              sub\n              swap1\n              return\n                /* \"contracts/Applications/DeployWithCreate2.sol\":2868:2962  function getBalance() public view returns (uint) {... */\n            tag_7:\n                /* \"contracts/Applications/DeployWithCreate2.sol\":2911:2915  uint */\n              0x00\n                /* \"contracts/Applications/DeployWithCreate2.sol\":2934:2955  address(this).balance */\n              selfbalance\n                /* \"contracts/Applications/DeployWithCreate2.sol\":2927:2955  return address(this).balance */\n              swap1\n              pop\n                /* \"contracts/Applications/DeployWithCreate2.sol\":2868:2962  function getBalance() public view returns (uint) {... */\n              swap1\n              jump\t// out\n                /* \"contracts/Applications/DeployWithCreate2.sol\":2716:2736  address public owner */\n            tag_11:\n              0x00\n              dup1\n              sload\n              swap1\n              0x0100\n              exp\n              swap1\n              div\n              0xffffffffffffffffffffffffffffffffffffffff\n              and\n              dup2\n              jump\t// out\n                /* \"contracts/Applications/DeployWithCreate2.sol\":2742:2757  uint public foo */\n            tag_15:\n              sload(0x01)\n              dup2\n              jump\t// out\n                /* \"#utility.yul\":7:84   */\n            tag_18:\n                /* \"#utility.yul\":44:51   */\n              0x00\n                /* \"#utility.yul\":73:78   */\n              dup2\n                /* \"#utility.yul\":62:78   */\n              swap1\n              pop\n                /* \"#utility.yul\":7:84   */\n              swap2\n              swap1\n              pop\n              jump\t// out\n                /* \"#utility.yul\":90:208   */\n            tag_19:\n                /* \"#utility.yul\":177:201   */\n              tag_26\n                /* \"#utility.yul\":195:200   */\n              dup2\n                /* \"#utility.yul\":177:201   */\n              tag_18\n              jump\t// in\n            tag_26:\n                /* \"#utility.yul\":172:175   */\n              dup3\n                /* \"#utility.yul\":165:202   */\n              mstore\n                /* \"#utility.yul\":90:208   */\n              pop\n              pop\n              jump\t// out\n                /* \"#utility.yul\":214:436   */\n            tag_9:\n                /* \"#utility.yul\":307:311   */\n              0x00\n                /* \"#utility.yul\":345:347   */\n              0x20\n                /* \"#utility.yul\":334:343   */\n              dup3\n                /* \"#utility.yul\":330:348   */\n              add\n                /* \"#utility.yul\":322:348   */\n              swap1\n              pop\n                /* \"#utility.yul\":358:429   */\n              tag_28\n                /* \"#utility.yul\":426:427   */\n              0x00\n                /* \"#utility.yul\":415:424   */\n              dup4\n                /* \"#utility.yul\":411:428   */\n              add\n                /* \"#utility.yul\":402:408   */\n              dup5\n                /* \"#utility.yul\":358:429   */\n              tag_19\n              jump\t// in\n            tag_28:\n                /* \"#utility.yul\":214:436   */\n              swap3\n              swap2\n              pop\n              pop\n              jump\t// out\n                /* \"#utility.yul\":442:568   */\n            tag_20:\n                /* \"#utility.yul\":479:486   */\n              0x00\n                /* \"#utility.yul\":519:561   */\n              0xffffffffffffffffffffffffffffffffffffffff\n                /* \"#utility.yul\":512:517   */\n              dup3\n                /* \"#utility.yul\":508:562   */\n              and\n                /* \"#utility.yul\":497:562   */\n              swap1\n              pop\n                /* \"#utility.yul\":442:568   */\n              swap2\n              swap1\n              pop\n              jump\t// out\n                /* \"#utility.yul\":574:670   */\n            tag_21:\n                /* \"#utility.yul\":611:618   */\n              0x00\n                /* \"#utility.yul\":640:664   */\n              tag_31\n                /* \"#utility.yul\":658:663   */\n              dup3\n                /* \"#utility.yul\":640:664   */\n              tag_20\n              jump\t// in\n            tag_31:\n                /* \"#utility.yul\":629:664   */\n              swap1\n              pop\n                /* \"#utility.yul\":574:670   */\n              swap2\n              swap1\n              pop\n              jump\t// out\n                /* \"#utility.yul\":676:794   */\n            tag_22:\n                /* \"#utility.yul\":763:787   */\n              tag_33\n                /* \"#utility.yul\":781:786   */\n              dup2\n                /* \"#utility.yul\":763:787   */\n              tag_21\n              jump\t// in\n            tag_33:\n                /* \"#utility.yul\":758:761   */\n              dup3\n                /* \"#utility.yul\":751:788   */\n              mstore\n                /* \"#utility.yul\":676:794   */\n              pop\n              pop\n              jump\t// out\n                /* \"#utility.yul\":800:1022   */\n            tag_13:\n                /* \"#utility.yul\":893:897   */\n              0x00\n                /* \"#utility.yul\":931:933   */\n              0x20\n                /* \"#utility.yul\":920:929   */\n              dup3\n                /* \"#utility.yul\":916:934   */\n              add\n                /* \"#utility.yul\":908:934   */\n              swap1\n              pop\n                /* \"#utility.yul\":944:1015   */\n              tag_35\n                /* \"#utility.yul\":1012:1013   */\n              0x00\n                /* \"#utility.yul\":1001:1010   */\n              dup4\n                /* \"#utility.yul\":997:1014   */\n              add\n                /* \"#utility.yul\":988:994   */\n              dup5\n                /* \"#utility.yul\":944:1015   */\n              tag_22\n              jump\t// in\n            tag_35:\n                /* \"#utility.yul\":800:1022   */\n              swap3\n              swap2\n              pop\n              pop\n              jump\t// out\n\n            auxdata: 0xa2646970667358221220362e47968100e44bf2a90506398b35fb4a4206a9cf5eb0aa40860a61d8ca6b9064736f6c63430008160033\n        }\n    }\n\n    auxdata: 0xa264697066735822122094b70838a49d55b5b11135635d9bc307c8e97bca20e1f05a016a4b1c710f663d64736f6c63430008160033\n}\n",
				"bytecode": {
					"linkReferences": {},
					"object": "608060405234801561000f575f80fd5b506105228061001d5f395ff3fe60806040526004361061001d575f3560e01c8063e7008afa14610021575b5f80fd5b61003b60048036038101906100369190610164565b610051565b60405161004891906101c3565b60405180910390f35b5f81848460405161006190610093565b61006c9291906101eb565b8190604051809103905ff5905080158015610089573d5f803e3d5ffd5b5090509392505050565b6102da8061021383390190565b5f80fd5b5f73ffffffffffffffffffffffffffffffffffffffff82169050919050565b5f6100cd826100a4565b9050919050565b6100dd816100c3565b81146100e7575f80fd5b50565b5f813590506100f8816100d4565b92915050565b5f819050919050565b610110816100fe565b811461011a575f80fd5b50565b5f8135905061012b81610107565b92915050565b5f819050919050565b61014381610131565b811461014d575f80fd5b50565b5f8135905061015e8161013a565b92915050565b5f805f6060848603121561017b5761017a6100a0565b5b5f610188868287016100ea565b93505060206101998682870161011d565b92505060406101aa86828701610150565b9150509250925092565b6101bd816100c3565b82525050565b5f6020820190506101d65f8301846101b4565b92915050565b6101e5816100fe565b82525050565b5f6040820190506101fe5f8301856101b4565b61020b60208301846101dc565b939250505056fe60806040526040516102da3803806102da83398181016040528101906100259190610103565b815f806101000a81548173ffffffffffffffffffffffffffffffffffffffff021916908373ffffffffffffffffffffffffffffffffffffffff160217905550806001819055505050610141565b5f80fd5b5f73ffffffffffffffffffffffffffffffffffffffff82169050919050565b5f61009f82610076565b9050919050565b6100af81610095565b81146100b9575f80fd5b50565b5f815190506100ca816100a6565b92915050565b5f819050919050565b6100e2816100d0565b81146100ec575f80fd5b50565b5f815190506100fd816100d9565b92915050565b5f806040838503121561011957610118610072565b5b5f610126858286016100bc565b9250506020610137858286016100ef565b9150509250929050565b61018c8061014e5f395ff3fe608060405234801561000f575f80fd5b506004361061003f575f3560e01c806312065fe0146100435780638da5cb5b14610061578063c29855781461007f575b5f80fd5b61004b61009d565b60405161005891906100e5565b60405180910390f35b6100696100a4565b604051610076919061013d565b60405180910390f35b6100876100c7565b60405161009491906100e5565b60405180910390f35b5f47905090565b5f8054906101000a900473ffffffffffffffffffffffffffffffffffffffff1681565b60015481565b5f819050919050565b6100df816100cd565b82525050565b5f6020820190506100f85f8301846100d6565b92915050565b5f73ffffffffffffffffffffffffffffffffffffffff82169050919050565b5f610127826100fe565b9050919050565b6101378161011d565b82525050565b5f6020820190506101505f83018461012e565b9291505056fea2646970667358221220362e47968100e44bf2a90506398b35fb4a4206a9cf5eb0aa40860a61d8ca6b9064736f6c63430008160033a264697066735822122094b70838a49d55b5b11135635d9bc307c8e97bca20e1f05a016a4b1c710f663d64736f6c63430008160033",
					"opcodes": "PUSH1 0x80 PUSH1 0x40 MSTORE CALLVALUE DUP1 ISZERO PUSH2 0xF JUMPI PUSH0 DUP1 REVERT JUMPDEST POP PUSH2 0x522 DUP1 PUSH2 0x1D PUSH0 CODECOPY PUSH0 RETURN INVALID PUSH1 0x80 PUSH1 0x40 MSTORE PUSH1 0x4 CALLDATASIZE LT PUSH2 0x1D JUMPI PUSH0 CALLDATALOAD PUSH1 0xE0 SHR DUP1 PUSH4 0xE7008AFA EQ PUSH2 0x21 JUMPI JUMPDEST PUSH0 DUP1 REVERT JUMPDEST PUSH2 0x3B PUSH1 0x4 DUP1 CALLDATASIZE SUB DUP2 ADD SWAP1 PUSH2 0x36 SWAP2 SWAP1 PUSH2 0x164 JUMP JUMPDEST PUSH2 0x51 JUMP JUMPDEST PUSH1 0x40 MLOAD PUSH2 0x48 SWAP2 SWAP1 PUSH2 0x1C3 JUMP JUMPDEST PUSH1 0x40 MLOAD DUP1 SWAP2 SUB SWAP1 RETURN JUMPDEST PUSH0 DUP2 DUP5 DUP5 PUSH1 0x40 MLOAD PUSH2 0x61 SWAP1 PUSH2 0x93 JUMP JUMPDEST PUSH2 0x6C SWAP3 SWAP2 SWAP1 PUSH2 0x1EB JUMP JUMPDEST DUP2 SWAP1 PUSH1 0x40 MLOAD DUP1 SWAP2 SUB SWAP1 PUSH0 CREATE2 SWAP1 POP DUP1 ISZERO DUP1 ISZERO PUSH2 0x89 JUMPI RETURNDATASIZE PUSH0 DUP1 RETURNDATACOPY RETURNDATASIZE PUSH0 REVERT JUMPDEST POP SWAP1 POP SWAP4 SWAP3 POP POP POP JUMP JUMPDEST PUSH2 0x2DA DUP1 PUSH2 0x213 DUP4 CODECOPY ADD SWAP1 JUMP JUMPDEST PUSH0 DUP1 REVERT JUMPDEST PUSH0 PUSH20 0xFFFFFFFFFFFFFFFFFFFFFFFFFFFFFFFFFFFFFFFF DUP3 AND SWAP1 POP SWAP2 SWAP1 POP JUMP JUMPDEST PUSH0 PUSH2 0xCD DUP3 PUSH2 0xA4 JUMP JUMPDEST SWAP1 POP SWAP2 SWAP1 POP JUMP JUMPDEST PUSH2 0xDD DUP2 PUSH2 0xC3 JUMP JUMPDEST DUP2 EQ PUSH2 0xE7 JUMPI PUSH0 DUP1 REVERT JUMPDEST POP JUMP JUMPDEST PUSH0 DUP2 CALLDATALOAD SWAP1 POP PUSH2 0xF8 DUP2 PUSH2 0xD4 JUMP JUMPDEST SWAP3 SWAP2 POP POP JUMP JUMPDEST PUSH0 DUP2 SWAP1 POP SWAP2 SWAP1 POP JUMP JUMPDEST PUSH2 0x110 DUP2 PUSH2 0xFE JUMP JUMPDEST DUP2 EQ PUSH2 0x11A JUMPI PUSH0 DUP1 REVERT JUMPDEST POP JUMP JUMPDEST PUSH0 DUP2 CALLDATALOAD SWAP1 POP PUSH2 0x12B DUP2 PUSH2 0x107 JUMP JUMPDEST SWAP3 SWAP2 POP POP JUMP JUMPDEST PUSH0 DUP2 SWAP1 POP SWAP2 SWAP1 POP JUMP JUMPDEST PUSH2 0x143 DUP2 PUSH2 0x131 JUMP JUMPDEST DUP2 EQ PUSH2 0x14D JUMPI PUSH0 DUP1 REVERT JUMPDEST POP JUMP JUMPDEST PUSH0 DUP2 CALLDATALOAD SWAP1 POP PUSH2 0x15E DUP2 PUSH2 0x13A JUMP JUMPDEST SWAP3 SWAP2 POP POP JUMP JUMPDEST PUSH0 DUP1 PUSH0 PUSH1 0x60 DUP5 DUP7 SUB SLT ISZERO PUSH2 0x17B JUMPI PUSH2 0x17A PUSH2 0xA0 JUMP JUMPDEST JUMPDEST PUSH0 PUSH2 0x188 DUP7 DUP3 DUP8 ADD PUSH2 0xEA JUMP JUMPDEST SWAP4 POP POP PUSH1 0x20 PUSH2 0x199 DUP7 DUP3 DUP8 ADD PUSH2 0x11D JUMP JUMPDEST SWAP3 POP POP PUSH1 0x40 PUSH2 0x1AA DUP7 DUP3 DUP8 ADD PUSH2 0x150 JUMP JUMPDEST SWAP2 POP POP SWAP3 POP SWAP3 POP SWAP3 JUMP JUMPDEST PUSH2 0x1BD DUP2 PUSH2 0xC3 JUMP JUMPDEST DUP3 MSTORE POP POP JUMP JUMPDEST PUSH0 PUSH1 0x20 DUP3 ADD SWAP1 POP PUSH2 0x1D6 PUSH0 DUP4 ADD DUP5 PUSH2 0x1B4 JUMP JUMPDEST SWAP3 SWAP2 POP POP JUMP JUMPDEST PUSH2 0x1E5 DUP2 PUSH2 0xFE JUMP JUMPDEST DUP3 MSTORE POP POP JUMP JUMPDEST PUSH0 PUSH1 0x40 DUP3 ADD SWAP1 POP PUSH2 0x1FE PUSH0 DUP4 ADD DUP6 PUSH2 0x1B4 JUMP JUMPDEST PUSH2 0x20B PUSH1 0x20 DUP4 ADD DUP5 PUSH2 0x1DC JUMP JUMPDEST SWAP4 SWAP3 POP POP POP JUMP INVALID PUSH1 0x80 PUSH1 0x40 MSTORE PUSH1 0x40 MLOAD PUSH2 0x2DA CODESIZE SUB DUP1 PUSH2 0x2DA DUP4 CODECOPY DUP2 DUP2 ADD PUSH1 0x40 MSTORE DUP2 ADD SWAP1 PUSH2 0x25 SWAP2 SWAP1 PUSH2 0x103 JUMP JUMPDEST DUP2 PUSH0 DUP1 PUSH2 0x100 EXP DUP2 SLOAD DUP2 PUSH20 0xFFFFFFFFFFFFFFFFFFFFFFFFFFFFFFFFFFFFFFFF MUL NOT AND SWAP1 DUP4 PUSH20 0xFFFFFFFFFFFFFFFFFFFFFFFFFFFFFFFFFFFFFFFF AND MUL OR SWAP1 SSTORE POP DUP1 PUSH1 0x1 DUP2 SWAP1 SSTORE POP POP POP PUSH2 0x141 JUMP JUMPDEST PUSH0 DUP1 REVERT JUMPDEST PUSH0 PUSH20 0xFFFFFFFFFFFFFFFFFFFFFFFFFFFFFFFFFFFFFFFF DUP3 AND SWAP1 POP SWAP2 SWAP1 POP JUMP JUMPDEST PUSH0 PUSH2 0x9F DUP3 PUSH2 0x76 JUMP JUMPDEST SWAP1 POP SWAP2 SWAP1 POP JUMP JUMPDEST PUSH2 0xAF DUP2 PUSH2 0x95 JUMP JUMPDEST DUP2 EQ PUSH2 0xB9 JUMPI PUSH0 DUP1 REVERT JUMPDEST POP JUMP JUMPDEST PUSH0 DUP2 MLOAD SWAP1 POP PUSH2 0xCA DUP2 PUSH2 0xA6 JUMP JUMPDEST SWAP3 SWAP2 POP POP JUMP JUMPDEST PUSH0 DUP2 SWAP1 POP SWAP2 SWAP1 POP JUMP JUMPDEST PUSH2 0xE2 DUP2 PUSH2 0xD0 JUMP JUMPDEST DUP2 EQ PUSH2 0xEC JUMPI PUSH0 DUP1 REVERT JUMPDEST POP JUMP JUMPDEST PUSH0 DUP2 MLOAD SWAP1 POP PUSH2 0xFD DUP2 PUSH2 0xD9 JUMP JUMPDEST SWAP3 SWAP2 POP POP JUMP JUMPDEST PUSH0 DUP1 PUSH1 0x40 DUP4 DUP6 SUB SLT ISZERO PUSH2 0x119 JUMPI PUSH2 0x118 PUSH2 0x72 JUMP JUMPDEST JUMPDEST PUSH0 PUSH2 0x126 DUP6 DUP3 DUP7 ADD PUSH2 0xBC JUMP JUMPDEST SWAP3 POP POP PUSH1 0x20 PUSH2 0x137 DUP6 DUP3 DUP7 ADD PUSH2 0xEF JUMP JUMPDEST SWAP2 POP POP SWAP3 POP SWAP3 SWAP1 POP JUMP JUMPDEST PUSH2 0x18C DUP1 PUSH2 0x14E PUSH0 CODECOPY PUSH0 RETURN INVALID PUSH1 0x80 PUSH1 0x40 MSTORE CALLVALUE DUP1 ISZERO PUSH2 0xF JUMPI PUSH0 DUP1 REVERT JUMPDEST POP PUSH1 0x4 CALLDATASIZE LT PUSH2 0x3F JUMPI PUSH0 CALLDATALOAD PUSH1 0xE0 SHR DUP1 PUSH4 0x12065FE0 EQ PUSH2 0x43 JUMPI DUP1 PUSH4 0x8DA5CB5B EQ PUSH2 0x61 JUMPI DUP1 PUSH4 0xC2985578 EQ PUSH2 0x7F JUMPI JUMPDEST PUSH0 DUP1 REVERT JUMPDEST PUSH2 0x4B PUSH2 0x9D JUMP JUMPDEST PUSH1 0x40 MLOAD PUSH2 0x58 SWAP2 SWAP1 PUSH2 0xE5 JUMP JUMPDEST PUSH1 0x40 MLOAD DUP1 SWAP2 SUB SWAP1 RETURN JUMPDEST PUSH2 0x69 PUSH2 0xA4 JUMP JUMPDEST PUSH1 0x40 MLOAD PUSH2 0x76 SWAP2 SWAP1 PUSH2 0x13D JUMP JUMPDEST PUSH1 0x40 MLOAD DUP1 SWAP2 SUB SWAP1 RETURN JUMPDEST PUSH2 0x87 PUSH2 0xC7 JUMP JUMPDEST PUSH1 0x40 MLOAD PUSH2 0x94 SWAP2 SWAP1 PUSH2 0xE5 JUMP JUMPDEST PUSH1 0x40 MLOAD DUP1 SWAP2 SUB SWAP1 RETURN JUMPDEST PUSH0 SELFBALANCE SWAP1 POP SWAP1 JUMP JUMPDEST PUSH0 DUP1 SLOAD SWAP1 PUSH2 0x100 EXP SWAP1 DIV PUSH20 0xFFFFFFFFFFFFFFFFFFFFFFFFFFFFFFFFFFFFFFFF AND DUP2 JUMP JUMPDEST PUSH1 0x1 SLOAD DUP2 JUMP JUMPDEST PUSH0 DUP2 SWAP1 POP SWAP2 SWAP1 POP JUMP JUMPDEST PUSH2 0xDF DUP2 PUSH2 0xCD JUMP JUMPDEST DUP3 MSTORE POP POP JUMP JUMPDEST PUSH0 PUSH1 0x20 DUP3 ADD SWAP1 POP PUSH2 0xF8 PUSH0 DUP4 ADD DUP5 PUSH2 0xD6 JUMP JUMPDEST SWAP3 SWAP2 POP POP JUMP JUMPDEST PUSH0 PUSH20 0xFFFFFFFFFFFFFFFFFFFFFFFFFFFFFFFFFFFFFFFF DUP3 AND SWAP1 POP SWAP2 SWAP1 POP JUMP JUMPDEST PUSH0 PUSH2 0x127 DUP3 PUSH2 0xFE JUMP JUMPDEST SWAP1 POP SWAP2 SWAP1 POP JUMP JUMPDEST PUSH2 0x137 DUP2 PUSH2 0x11D JUMP JUMPDEST DUP3 MSTORE POP POP JUMP JUMPDEST PUSH0 PUSH1 0x20 DUP3 ADD SWAP1 POP PUSH2 0x150 PUSH0 DUP4 ADD DUP5 PUSH2 0x12E JUMP JUMPDEST SWAP3 SWAP2 POP POP JUMP INVALID LOG2 PUSH5 0x6970667358 0x22 SLT KECCAK256 CALLDATASIZE 0x2E SELFBALANCE SWAP7 DUP2 STOP 0xE4 0x4B CALLCODE 0xA9 SDIV MOD CODECOPY DUP12 CALLDATALOAD 0xFB 0x4A TIMESTAMP MOD 0xA9 0xCF 0x5E 0xB0 0xAA BLOCKHASH DUP7 EXP PUSH2 0xD8CA PUSH12 0x9064736F6C63430008160033 LOG2 PUSH5 0x6970667358 0x22 SLT KECCAK256 SWAP5 0xB7 ADDMOD CODESIZE LOG4 SWAP14 SSTORE 0xB5 0xB1 GT CALLDATALOAD PUSH4 0x5D9BC307 0xC8 0xE9 PUSH28 0xCA20E1F05A016A4B1C710F663D64736F6C6343000816003300000000 "
				},
				"gasEstimates": {
					"creation": {
						"codeDepositCost": "262800",
						"executionCost": "304",
						"totalCost": "263104"
					},
					"external": {
						"deploy(address,uint256,bytes32)": "infinite"
					}
				},
				"methodIdentifiers": {
					"deploy(address,uint256,bytes32)": "e7008afa"
				}
			},
			"storageLayout": {
				"storage": [],
				"types": null
			},
			"userdoc": {
				"kind": "user",
				"methods": {},
				"version": 1
			}
		}
	}
}