{
	"contracts/Applications/DeployWithCreate2.sol": {
		"FactoryAssembly": {
			"abi": [
				{
					"anonymous": false,
					"inputs": [
						{
							"indexed": false,
							"internalType": "address",
							"name": "addr",
							"type": "address"
						},
						{
							"indexed": false,
							"internalType": "uint256",
							"name": "salt",
							"type": "uint256"
						}
					],
					"name": "Deployed",
					"type": "event"
				},
				{
					"inputs": [
						{
							"internalType": "bytes",
							"name": "bytecode",
							"type": "bytes"
						},
						{
							"internalType": "uint256",
							"name": "_salt",
							"type": "uint256"
						}
					],
					"name": "deploy",
					"outputs": [],
					"stateMutability": "payable",
					"type": "function"
				},
				{
					"inputs": [
						{
							"internalType": "bytes",
							"name": "bytecode",
							"type": "bytes"
						},
						{
							"internalType": "uint256",
							"name": "_salt",
							"type": "uint256"
						}
					],
					"name": "getAddress",
					"outputs": [
						{
							"internalType": "address",
							"name": "",
							"type": "address"
						}
					],
					"stateMutability": "view",
					"type": "function"
				},
				{
					"inputs": [
						{
							"internalType": "address",
							"name": "_owner",
							"type": "address"
						},
						{
							"internalType": "uint256",
							"name": "_foo",
							"type": "uint256"
						}
					],
					"name": "getBytecode",
					"outputs": [
						{
							"internalType": "bytes",
							"name": "",
							"type": "bytes"
						}
					],
					"stateMutability": "pure",
					"type": "function"
				}
			],
			"devdoc": {
				"kind": "dev",
				"methods": {},
				"version": 1
			},
			"evm": {
				"assembly": "    /* \"contracts/Applications/DeployWithCreate2.sol\":602:2686  contract FactoryAssembly {... */\n  mstore(0x40, 0x80)\n  callvalue\n  dup1\n  iszero\n  tag_1\n  jumpi\n  0x00\n  dup1\n  revert\ntag_1:\n  pop\n  dataSize(sub_0)\n  dup1\n  dataOffset(sub_0)\n  0x00\n  codecopy\n  0x00\n  return\nstop\n\nsub_0: assembly {\n        /* \"contracts/Applications/DeployWithCreate2.sol\":602:2686  contract FactoryAssembly {... */\n      mstore(0x40, 0x80)\n      jumpi(tag_1, lt(calldatasize, 0x04))\n      shr(0xe0, calldataload(0x00))\n      dup1\n      0x81871cbc\n      eq\n      tag_2\n      jumpi\n      dup1\n      0x94ca2cb5\n      eq\n      tag_3\n      jumpi\n      dup1\n      0x9c4ae2d0\n      eq\n      tag_4\n      jumpi\n    tag_1:\n      0x00\n      dup1\n      revert\n        /* \"contracts/Applications/DeployWithCreate2.sol\":806:1031  function getBytecode(address _owner, uint _foo) public pure returns (bytes memory) {... */\n    tag_2:\n      callvalue\n      dup1\n      iszero\n      tag_5\n      jumpi\n      0x00\n      dup1\n      revert\n    tag_5:\n      pop\n      tag_6\n      0x04\n      dup1\n      calldatasize\n      sub\n      dup2\n      add\n      swap1\n      tag_7\n      swap2\n      swap1\n      tag_8\n      jump\t// in\n    tag_7:\n      tag_9\n      jump\t// in\n    tag_6:\n      mload(0x40)\n      tag_10\n      swap2\n      swap1\n      tag_11\n      jump\t// in\n    tag_10:\n      mload(0x40)\n      dup1\n      swap2\n      sub\n      swap1\n      return\n        /* \"contracts/Applications/DeployWithCreate2.sol\":1162:1508  function getAddress(... */\n    tag_3:\n      callvalue\n      dup1\n      iszero\n      tag_12\n      jumpi\n      0x00\n      dup1\n      revert\n    tag_12:\n      pop\n      tag_13\n      0x04\n      dup1\n      calldatasize\n      sub\n      dup2\n      add\n      swap1\n      tag_14\n      swap2\n      swap1\n      tag_15\n      jump\t// in\n    tag_14:\n      tag_16\n      jump\t// in\n    tag_13:\n      mload(0x40)\n      tag_17\n      swap2\n      swap1\n      tag_18\n      jump\t// in\n    tag_17:\n      mload(0x40)\n      dup1\n      swap2\n      sub\n      swap1\n      return\n        /* \"contracts/Applications/DeployWithCreate2.sol\":1726:2684  function deploy(bytes memory bytecode, uint _salt) public payable {... */\n    tag_4:\n      tag_19\n      0x04\n      dup1\n      calldatasize\n      sub\n      dup2\n      add\n      swap1\n      tag_20\n      swap2\n      swap1\n      tag_15\n      jump\t// in\n    tag_20:\n      tag_21\n      jump\t// in\n    tag_19:\n      stop\n        /* \"contracts/Applications/DeployWithCreate2.sol\":806:1031  function getBytecode(address _owner, uint _foo) public pure returns (bytes memory) {... */\n    tag_9:\n        /* \"contracts/Applications/DeployWithCreate2.sol\":875:887  bytes memory */\n      0x60\n        /* \"contracts/Applications/DeployWithCreate2.sol\":899:920  bytes memory bytecode */\n      0x00\n        /* \"contracts/Applications/DeployWithCreate2.sol\":923:954  type(TestContract).creationCode */\n      mload(0x40)\n      dup1\n      0x20\n      add\n      tag_23\n      swap1\n      tag_24\n      jump\t// in\n    tag_23:\n      0x20\n      dup3\n      add\n      dup2\n      sub\n      dup3\n      mstore\n      not(0x1f)\n      0x1f\n      dup3\n      add\n      and\n      0x40\n      mstore\n      pop\n        /* \"contracts/Applications/DeployWithCreate2.sol\":899:954  bytes memory bytecode = type(TestContract).creationCode */\n      swap1\n      pop\n        /* \"contracts/Applications/DeployWithCreate2.sol\":989:997  bytecode */\n      dup1\n        /* \"contracts/Applications/DeployWithCreate2.sol\":1010:1016  _owner */\n      dup5\n        /* \"contracts/Applications/DeployWithCreate2.sol\":1018:1022  _foo */\n      dup5\n        /* \"contracts/Applications/DeployWithCreate2.sol\":999:1023  abi.encode(_owner, _foo) */\n      add(0x20, mload(0x40))\n      tag_25\n      swap3\n      swap2\n      swap1\n      tag_26\n      jump\t// in\n    tag_25:\n      mload(0x40)\n      0x20\n      dup2\n      dup4\n      sub\n      sub\n      dup2\n      mstore\n      swap1\n      0x40\n      mstore\n        /* \"contracts/Applications/DeployWithCreate2.sol\":972:1024  abi.encodePacked(bytecode, abi.encode(_owner, _foo)) */\n      add(0x20, mload(0x40))\n      tag_27\n      swap3\n      swap2\n      swap1\n      tag_28\n      jump\t// in\n    tag_27:\n      mload(0x40)\n      0x20\n      dup2\n      dup4\n      sub\n      sub\n      dup2\n      mstore\n      swap1\n      0x40\n      mstore\n        /* \"contracts/Applications/DeployWithCreate2.sol\":965:1024  return abi.encodePacked(bytecode, abi.encode(_owner, _foo)) */\n      swap2\n      pop\n      pop\n        /* \"contracts/Applications/DeployWithCreate2.sol\":806:1031  function getBytecode(address _owner, uint _foo) public pure returns (bytes memory) {... */\n      swap3\n      swap2\n      pop\n      pop\n      jump\t// out\n        /* \"contracts/Applications/DeployWithCreate2.sol\":1162:1508  function getAddress(... */\n    tag_16:\n        /* \"contracts/Applications/DeployWithCreate2.sol\":1260:1267  address */\n      0x00\n        /* \"contracts/Applications/DeployWithCreate2.sol\":1279:1291  bytes32 hash */\n      dup1\n        /* \"contracts/Applications/DeployWithCreate2.sol\":1341:1345  0xff */\n      0xff\n        /* \"contracts/Applications/DeployWithCreate2.sol\":1334:1346  bytes1(0xff) */\n      0xf8\n      shl\n        /* \"contracts/Applications/DeployWithCreate2.sol\":1356:1360  this */\n      address\n        /* \"contracts/Applications/DeployWithCreate2.sol\":1363:1368  _salt */\n      dup5\n        /* \"contracts/Applications/DeployWithCreate2.sol\":1380:1388  bytecode */\n      dup7\n        /* \"contracts/Applications/DeployWithCreate2.sol\":1370:1389  keccak256(bytecode) */\n      dup1\n      mload\n      swap1\n      0x20\n      add\n      keccak256\n        /* \"contracts/Applications/DeployWithCreate2.sol\":1317:1390  abi.encodePacked(bytes1(0xff), address(this), _salt, keccak256(bytecode)) */\n      add(0x20, mload(0x40))\n      tag_30\n      swap5\n      swap4\n      swap3\n      swap2\n      swap1\n      tag_31\n      jump\t// in\n    tag_30:\n      mload(0x40)\n      0x20\n      dup2\n      dup4\n      sub\n      sub\n      dup2\n      mstore\n      swap1\n      0x40\n      mstore\n        /* \"contracts/Applications/DeployWithCreate2.sol\":1294:1400  keccak256(... */\n      dup1\n      mload\n      swap1\n      0x20\n      add\n      keccak256\n        /* \"contracts/Applications/DeployWithCreate2.sol\":1279:1400  bytes32 hash = keccak256(... */\n      swap1\n      pop\n        /* \"contracts/Applications/DeployWithCreate2.sol\":1494:1498  hash */\n      dup1\n        /* \"contracts/Applications/DeployWithCreate2.sol\":1489:1499  uint(hash) */\n      0x00\n      shr\n        /* \"contracts/Applications/DeployWithCreate2.sol\":1466:1501  return address(uint160(uint(hash))) */\n      swap2\n      pop\n      pop\n        /* \"contracts/Applications/DeployWithCreate2.sol\":1162:1508  function getAddress(... */\n      swap3\n      swap2\n      pop\n      pop\n      jump\t// out\n        /* \"contracts/Applications/DeployWithCreate2.sol\":1726:2684  function deploy(bytes memory bytecode, uint _salt) public payable {... */\n    tag_21:\n        /* \"contracts/Applications/DeployWithCreate2.sol\":1802:1814  address addr */\n      0x00\n        /* \"contracts/Applications/DeployWithCreate2.sol\":2493:2498  _salt */\n      dup2\n        /* \"contracts/Applications/DeployWithCreate2.sol\":2409:2417  bytecode */\n      dup4\n        /* \"contracts/Applications/DeployWithCreate2.sol\":2403:2418  mload(bytecode) */\n      mload\n        /* \"contracts/Applications/DeployWithCreate2.sol\":2380:2384  0x20 */\n      0x20\n        /* \"contracts/Applications/DeployWithCreate2.sol\":2370:2378  bytecode */\n      dup6\n        /* \"contracts/Applications/DeployWithCreate2.sol\":2366:2385  add(bytecode, 0x20) */\n      add\n        /* \"contracts/Applications/DeployWithCreate2.sol\":2235:2246  callvalue() */\n      callvalue\n        /* \"contracts/Applications/DeployWithCreate2.sol\":2210:2544  create2(... */\n      create2\n        /* \"contracts/Applications/DeployWithCreate2.sol\":2202:2544  addr := create2(... */\n      swap1\n      pop\n        /* \"contracts/Applications/DeployWithCreate2.sol\":2580:2584  addr */\n      dup1\n        /* \"contracts/Applications/DeployWithCreate2.sol\":2568:2585  extcodesize(addr) */\n      extcodesize\n        /* \"contracts/Applications/DeployWithCreate2.sol\":2558:2631  if iszero(extcodesize(addr)) {... */\n      tag_33\n      jumpi\n        /* \"contracts/Applications/DeployWithCreate2.sol\":2615:2616  0 */\n      0x00\n        /* \"contracts/Applications/DeployWithCreate2.sol\":2612:2613  0 */\n      dup1\n        /* \"contracts/Applications/DeployWithCreate2.sol\":2605:2617  revert(0, 0) */\n      revert\n        /* \"contracts/Applications/DeployWithCreate2.sol\":2558:2631  if iszero(extcodesize(addr)) {... */\n    tag_33:\n        /* \"contracts/Applications/DeployWithCreate2.sol\":2656:2677  Deployed(addr, _salt) */\n      0xb03c53b28e78a88e31607a27e1fa48234dce28d5d9d9ec7b295aeb02e674a1e1\n        /* \"contracts/Applications/DeployWithCreate2.sol\":2665:2669  addr */\n      dup2\n        /* \"contracts/Applications/DeployWithCreate2.sol\":2671:2676  _salt */\n      dup4\n        /* \"contracts/Applications/DeployWithCreate2.sol\":2656:2677  Deployed(addr, _salt) */\n      mload(0x40)\n      tag_34\n      swap3\n      swap2\n      swap1\n      tag_26\n      jump\t// in\n    tag_34:\n      mload(0x40)\n      dup1\n      swap2\n      sub\n      swap1\n      log1\n        /* \"contracts/Applications/DeployWithCreate2.sol\":1792:2684  {... */\n      pop\n        /* \"contracts/Applications/DeployWithCreate2.sol\":1726:2684  function deploy(bytes memory bytecode, uint _salt) public payable {... */\n      pop\n      pop\n      jump\t// out\n    tag_24:\n      dataSize(sub_0)\n      dup1\n      dataOffset(sub_0)\n      dup4\n      codecopy\n      add\n      swap1\n      jump\t// out\n        /* \"#utility.yul\":7:82   */\n    tag_35:\n        /* \"#utility.yul\":40:46   */\n      0x00\n        /* \"#utility.yul\":73:75   */\n      0x40\n        /* \"#utility.yul\":67:76   */\n      mload\n        /* \"#utility.yul\":57:76   */\n      swap1\n      pop\n        /* \"#utility.yul\":7:82   */\n      swap1\n      jump\t// out\n        /* \"#utility.yul\":88:205   */\n    tag_36:\n        /* \"#utility.yul\":197:198   */\n      0x00\n        /* \"#utility.yul\":194:195   */\n      dup1\n        /* \"#utility.yul\":187:199   */\n      revert\n        /* \"#utility.yul\":211:328   */\n    tag_37:\n        /* \"#utility.yul\":320:321   */\n      0x00\n        /* \"#utility.yul\":317:318   */\n      dup1\n        /* \"#utility.yul\":310:322   */\n      revert\n        /* \"#utility.yul\":334:460   */\n    tag_38:\n        /* \"#utility.yul\":371:378   */\n      0x00\n        /* \"#utility.yul\":411:453   */\n      0xffffffffffffffffffffffffffffffffffffffff\n        /* \"#utility.yul\":404:409   */\n      dup3\n        /* \"#utility.yul\":400:454   */\n      and\n        /* \"#utility.yul\":389:454   */\n      swap1\n      pop\n        /* \"#utility.yul\":334:460   */\n      swap2\n      swap1\n      pop\n      jump\t// out\n        /* \"#utility.yul\":466:562   */\n    tag_39:\n        /* \"#utility.yul\":503:510   */\n      0x00\n        /* \"#utility.yul\":532:556   */\n      tag_81\n        /* \"#utility.yul\":550:555   */\n      dup3\n        /* \"#utility.yul\":532:556   */\n      tag_38\n      jump\t// in\n    tag_81:\n        /* \"#utility.yul\":521:556   */\n      swap1\n      pop\n        /* \"#utility.yul\":466:562   */\n      swap2\n      swap1\n      pop\n      jump\t// out\n        /* \"#utility.yul\":568:690   */\n    tag_40:\n        /* \"#utility.yul\":641:665   */\n      tag_83\n        /* \"#utility.yul\":659:664   */\n      dup2\n        /* \"#utility.yul\":641:665   */\n      tag_39\n      jump\t// in\n    tag_83:\n        /* \"#utility.yul\":634:639   */\n      dup2\n        /* \"#utility.yul\":631:666   */\n      eq\n        /* \"#utility.yul\":621:684   */\n      tag_84\n      jumpi\n        /* \"#utility.yul\":680:681   */\n      0x00\n        /* \"#utility.yul\":677:678   */\n      dup1\n        /* \"#utility.yul\":670:682   */\n      revert\n        /* \"#utility.yul\":621:684   */\n    tag_84:\n        /* \"#utility.yul\":568:690   */\n      pop\n      jump\t// out\n        /* \"#utility.yul\":696:835   */\n    tag_41:\n        /* \"#utility.yul\":742:747   */\n      0x00\n        /* \"#utility.yul\":780:786   */\n      dup2\n        /* \"#utility.yul\":767:787   */\n      calldataload\n        /* \"#utility.yul\":758:787   */\n      swap1\n      pop\n        /* \"#utility.yul\":796:829   */\n      tag_86\n        /* \"#utility.yul\":823:828   */\n      dup2\n        /* \"#utility.yul\":796:829   */\n      tag_40\n      jump\t// in\n    tag_86:\n        /* \"#utility.yul\":696:835   */\n      swap3\n      swap2\n      pop\n      pop\n      jump\t// out\n        /* \"#utility.yul\":841:918   */\n    tag_42:\n        /* \"#utility.yul\":878:885   */\n      0x00\n        /* \"#utility.yul\":907:912   */\n      dup2\n        /* \"#utility.yul\":896:912   */\n      swap1\n      pop\n        /* \"#utility.yul\":841:918   */\n      swap2\n      swap1\n      pop\n      jump\t// out\n        /* \"#utility.yul\":924:1046   */\n    tag_43:\n        /* \"#utility.yul\":997:1021   */\n      tag_89\n        /* \"#utility.yul\":1015:1020   */\n      dup2\n        /* \"#utility.yul\":997:1021   */\n      tag_42\n      jump\t// in\n    tag_89:\n        /* \"#utility.yul\":990:995   */\n      dup2\n        /* \"#utility.yul\":987:1022   */\n      eq\n        /* \"#utility.yul\":977:1040   */\n      tag_90\n      jumpi\n        /* \"#utility.yul\":1036:1037   */\n      0x00\n        /* \"#utility.yul\":1033:1034   */\n      dup1\n        /* \"#utility.yul\":1026:1038   */\n      revert\n        /* \"#utility.yul\":977:1040   */\n    tag_90:\n        /* \"#utility.yul\":924:1046   */\n      pop\n      jump\t// out\n        /* \"#utility.yul\":1052:1191   */\n    tag_44:\n        /* \"#utility.yul\":1098:1103   */\n      0x00\n        /* \"#utility.yul\":1136:1142   */\n      dup2\n        /* \"#utility.yul\":1123:1143   */\n      calldataload\n        /* \"#utility.yul\":1114:1143   */\n      swap1\n      pop\n        /* \"#utility.yul\":1152:1185   */\n      tag_92\n        /* \"#utility.yul\":1179:1184   */\n      dup2\n        /* \"#utility.yul\":1152:1185   */\n      tag_43\n      jump\t// in\n    tag_92:\n        /* \"#utility.yul\":1052:1191   */\n      swap3\n      swap2\n      pop\n      pop\n      jump\t// out\n        /* \"#utility.yul\":1197:1671   */\n    tag_8:\n        /* \"#utility.yul\":1265:1271   */\n      0x00\n        /* \"#utility.yul\":1273:1279   */\n      dup1\n        /* \"#utility.yul\":1322:1324   */\n      0x40\n        /* \"#utility.yul\":1310:1319   */\n      dup4\n        /* \"#utility.yul\":1301:1308   */\n      dup6\n        /* \"#utility.yul\":1297:1320   */\n      sub\n        /* \"#utility.yul\":1293:1325   */\n      slt\n        /* \"#utility.yul\":1290:1409   */\n      iszero\n      tag_94\n      jumpi\n        /* \"#utility.yul\":1328:1407   */\n      tag_95\n      tag_36\n      jump\t// in\n    tag_95:\n        /* \"#utility.yul\":1290:1409   */\n    tag_94:\n        /* \"#utility.yul\":1448:1449   */\n      0x00\n        /* \"#utility.yul\":1473:1526   */\n      tag_96\n        /* \"#utility.yul\":1518:1525   */\n      dup6\n        /* \"#utility.yul\":1509:1515   */\n      dup3\n        /* \"#utility.yul\":1498:1507   */\n      dup7\n        /* \"#utility.yul\":1494:1516   */\n      add\n        /* \"#utility.yul\":1473:1526   */\n      tag_41\n      jump\t// in\n    tag_96:\n        /* \"#utility.yul\":1463:1526   */\n      swap3\n      pop\n        /* \"#utility.yul\":1419:1536   */\n      pop\n        /* \"#utility.yul\":1575:1577   */\n      0x20\n        /* \"#utility.yul\":1601:1654   */\n      tag_97\n        /* \"#utility.yul\":1646:1653   */\n      dup6\n        /* \"#utility.yul\":1637:1643   */\n      dup3\n        /* \"#utility.yul\":1626:1635   */\n      dup7\n        /* \"#utility.yul\":1622:1644   */\n      add\n        /* \"#utility.yul\":1601:1654   */\n      tag_44\n      jump\t// in\n    tag_97:\n        /* \"#utility.yul\":1591:1654   */\n      swap2\n      pop\n        /* \"#utility.yul\":1546:1664   */\n      pop\n        /* \"#utility.yul\":1197:1671   */\n      swap3\n      pop\n      swap3\n      swap1\n      pop\n      jump\t// out\n        /* \"#utility.yul\":1677:1775   */\n    tag_45:\n        /* \"#utility.yul\":1728:1734   */\n      0x00\n        /* \"#utility.yul\":1762:1767   */\n      dup2\n        /* \"#utility.yul\":1756:1768   */\n      mload\n        /* \"#utility.yul\":1746:1768   */\n      swap1\n      pop\n        /* \"#utility.yul\":1677:1775   */\n      swap2\n      swap1\n      pop\n      jump\t// out\n        /* \"#utility.yul\":1781:1949   */\n    tag_46:\n        /* \"#utility.yul\":1864:1875   */\n      0x00\n        /* \"#utility.yul\":1898:1904   */\n      dup3\n        /* \"#utility.yul\":1893:1896   */\n      dup3\n        /* \"#utility.yul\":1886:1905   */\n      mstore\n        /* \"#utility.yul\":1938:1942   */\n      0x20\n        /* \"#utility.yul\":1933:1936   */\n      dup3\n        /* \"#utility.yul\":1929:1943   */\n      add\n        /* \"#utility.yul\":1914:1943   */\n      swap1\n      pop\n        /* \"#utility.yul\":1781:1949   */\n      swap3\n      swap2\n      pop\n      pop\n      jump\t// out\n        /* \"#utility.yul\":1955:2201   */\n    tag_47:\n        /* \"#utility.yul\":2036:2037   */\n      0x00\n        /* \"#utility.yul\":2046:2159   */\n    tag_101:\n        /* \"#utility.yul\":2060:2066   */\n      dup4\n        /* \"#utility.yul\":2057:2058   */\n      dup2\n        /* \"#utility.yul\":2054:2067   */\n      lt\n        /* \"#utility.yul\":2046:2159   */\n      iszero\n      tag_103\n      jumpi\n        /* \"#utility.yul\":2145:2146   */\n      dup1\n        /* \"#utility.yul\":2140:2143   */\n      dup3\n        /* \"#utility.yul\":2136:2147   */\n      add\n        /* \"#utility.yul\":2130:2148   */\n      mload\n        /* \"#utility.yul\":2126:2127   */\n      dup2\n        /* \"#utility.yul\":2121:2124   */\n      dup5\n        /* \"#utility.yul\":2117:2128   */\n      add\n        /* \"#utility.yul\":2110:2149   */\n      mstore\n        /* \"#utility.yul\":2082:2084   */\n      0x20\n        /* \"#utility.yul\":2079:2080   */\n      dup2\n        /* \"#utility.yul\":2075:2085   */\n      add\n        /* \"#utility.yul\":2070:2085   */\n      swap1\n      pop\n        /* \"#utility.yul\":2046:2159   */\n      jump(tag_101)\n    tag_103:\n        /* \"#utility.yul\":2193:2194   */\n      0x00\n        /* \"#utility.yul\":2184:2190   */\n      dup5\n        /* \"#utility.yul\":2179:2182   */\n      dup5\n        /* \"#utility.yul\":2175:2191   */\n      add\n        /* \"#utility.yul\":2168:2195   */\n      mstore\n        /* \"#utility.yul\":2017:2201   */\n      pop\n        /* \"#utility.yul\":1955:2201   */\n      pop\n      pop\n      pop\n      jump\t// out\n        /* \"#utility.yul\":2207:2309   */\n    tag_48:\n        /* \"#utility.yul\":2248:2254   */\n      0x00\n        /* \"#utility.yul\":2299:2301   */\n      0x1f\n        /* \"#utility.yul\":2295:2302   */\n      not\n        /* \"#utility.yul\":2290:2292   */\n      0x1f\n        /* \"#utility.yul\":2283:2288   */\n      dup4\n        /* \"#utility.yul\":2279:2293   */\n      add\n        /* \"#utility.yul\":2275:2303   */\n      and\n        /* \"#utility.yul\":2265:2303   */\n      swap1\n      pop\n        /* \"#utility.yul\":2207:2309   */\n      swap2\n      swap1\n      pop\n      jump\t// out\n        /* \"#utility.yul\":2315:2688   */\n    tag_49:\n        /* \"#utility.yul\":2401:2404   */\n      0x00\n        /* \"#utility.yul\":2429:2467   */\n      tag_106\n        /* \"#utility.yul\":2461:2466   */\n      dup3\n        /* \"#utility.yul\":2429:2467   */\n      tag_45\n      jump\t// in\n    tag_106:\n        /* \"#utility.yul\":2483:2553   */\n      tag_107\n        /* \"#utility.yul\":2546:2552   */\n      dup2\n        /* \"#utility.yul\":2541:2544   */\n      dup6\n        /* \"#utility.yul\":2483:2553   */\n      tag_46\n      jump\t// in\n    tag_107:\n        /* \"#utility.yul\":2476:2553   */\n      swap4\n      pop\n        /* \"#utility.yul\":2562:2627   */\n      tag_108\n        /* \"#utility.yul\":2620:2626   */\n      dup2\n        /* \"#utility.yul\":2615:2618   */\n      dup6\n        /* \"#utility.yul\":2608:2612   */\n      0x20\n        /* \"#utility.yul\":2601:2606   */\n      dup7\n        /* \"#utility.yul\":2597:2613   */\n      add\n        /* \"#utility.yul\":2562:2627   */\n      tag_47\n      jump\t// in\n    tag_108:\n        /* \"#utility.yul\":2652:2681   */\n      tag_109\n        /* \"#utility.yul\":2674:2680   */\n      dup2\n        /* \"#utility.yul\":2652:2681   */\n      tag_48\n      jump\t// in\n    tag_109:\n        /* \"#utility.yul\":2647:2650   */\n      dup5\n        /* \"#utility.yul\":2643:2682   */\n      add\n        /* \"#utility.yul\":2636:2682   */\n      swap2\n      pop\n        /* \"#utility.yul\":2405:2688   */\n      pop\n        /* \"#utility.yul\":2315:2688   */\n      swap3\n      swap2\n      pop\n      pop\n      jump\t// out\n        /* \"#utility.yul\":2694:3003   */\n    tag_11:\n        /* \"#utility.yul\":2805:2809   */\n      0x00\n        /* \"#utility.yul\":2843:2845   */\n      0x20\n        /* \"#utility.yul\":2832:2841   */\n      dup3\n        /* \"#utility.yul\":2828:2846   */\n      add\n        /* \"#utility.yul\":2820:2846   */\n      swap1\n      pop\n        /* \"#utility.yul\":2892:2901   */\n      dup2\n        /* \"#utility.yul\":2886:2890   */\n      dup2\n        /* \"#utility.yul\":2882:2902   */\n      sub\n        /* \"#utility.yul\":2878:2879   */\n      0x00\n        /* \"#utility.yul\":2867:2876   */\n      dup4\n        /* \"#utility.yul\":2863:2880   */\n      add\n        /* \"#utility.yul\":2856:2903   */\n      mstore\n        /* \"#utility.yul\":2920:2996   */\n      tag_111\n        /* \"#utility.yul\":2991:2995   */\n      dup2\n        /* \"#utility.yul\":2982:2988   */\n      dup5\n        /* \"#utility.yul\":2920:2996   */\n      tag_49\n      jump\t// in\n    tag_111:\n        /* \"#utility.yul\":2912:2996   */\n      swap1\n      pop\n        /* \"#utility.yul\":2694:3003   */\n      swap3\n      swap2\n      pop\n      pop\n      jump\t// out\n        /* \"#utility.yul\":3009:3126   */\n    tag_50:\n        /* \"#utility.yul\":3118:3119   */\n      0x00\n        /* \"#utility.yul\":3115:3116   */\n      dup1\n        /* \"#utility.yul\":3108:3120   */\n      revert\n        /* \"#utility.yul\":3132:3249   */\n    tag_51:\n        /* \"#utility.yul\":3241:3242   */\n      0x00\n        /* \"#utility.yul\":3238:3239   */\n      dup1\n        /* \"#utility.yul\":3231:3243   */\n      revert\n        /* \"#utility.yul\":3255:3435   */\n    tag_52:\n        /* \"#utility.yul\":3303:3380   */\n      0x4e487b7100000000000000000000000000000000000000000000000000000000\n        /* \"#utility.yul\":3300:3301   */\n      0x00\n        /* \"#utility.yul\":3293:3381   */\n      mstore\n        /* \"#utility.yul\":3400:3404   */\n      0x41\n        /* \"#utility.yul\":3397:3398   */\n      0x04\n        /* \"#utility.yul\":3390:3405   */\n      mstore\n        /* \"#utility.yul\":3424:3428   */\n      0x24\n        /* \"#utility.yul\":3421:3422   */\n      0x00\n        /* \"#utility.yul\":3414:3429   */\n      revert\n        /* \"#utility.yul\":3441:3722   */\n    tag_53:\n        /* \"#utility.yul\":3524:3551   */\n      tag_116\n        /* \"#utility.yul\":3546:3550   */\n      dup3\n        /* \"#utility.yul\":3524:3551   */\n      tag_48\n      jump\t// in\n    tag_116:\n        /* \"#utility.yul\":3516:3522   */\n      dup2\n        /* \"#utility.yul\":3512:3552   */\n      add\n        /* \"#utility.yul\":3654:3660   */\n      dup2\n        /* \"#utility.yul\":3642:3652   */\n      dup2\n        /* \"#utility.yul\":3639:3661   */\n      lt\n        /* \"#utility.yul\":3618:3636   */\n      0xffffffffffffffff\n        /* \"#utility.yul\":3606:3616   */\n      dup3\n        /* \"#utility.yul\":3603:3637   */\n      gt\n        /* \"#utility.yul\":3600:3662   */\n      or\n        /* \"#utility.yul\":3597:3685   */\n      iszero\n      tag_117\n      jumpi\n        /* \"#utility.yul\":3665:3683   */\n      tag_118\n      tag_52\n      jump\t// in\n    tag_118:\n        /* \"#utility.yul\":3597:3685   */\n    tag_117:\n        /* \"#utility.yul\":3705:3715   */\n      dup1\n        /* \"#utility.yul\":3701:3703   */\n      0x40\n        /* \"#utility.yul\":3694:3716   */\n      mstore\n        /* \"#utility.yul\":3484:3722   */\n      pop\n        /* \"#utility.yul\":3441:3722   */\n      pop\n      pop\n      jump\t// out\n        /* \"#utility.yul\":3728:3857   */\n    tag_54:\n        /* \"#utility.yul\":3762:3768   */\n      0x00\n        /* \"#utility.yul\":3789:3809   */\n      tag_120\n      tag_35\n      jump\t// in\n    tag_120:\n        /* \"#utility.yul\":3779:3809   */\n      swap1\n      pop\n        /* \"#utility.yul\":3818:3851   */\n      tag_121\n        /* \"#utility.yul\":3846:3850   */\n      dup3\n        /* \"#utility.yul\":3838:3844   */\n      dup3\n        /* \"#utility.yul\":3818:3851   */\n      tag_53\n      jump\t// in\n    tag_121:\n        /* \"#utility.yul\":3728:3857   */\n      swap2\n      swap1\n      pop\n      jump\t// out\n        /* \"#utility.yul\":3863:4170   */\n    tag_55:\n        /* \"#utility.yul\":3924:3928   */\n      0x00\n        /* \"#utility.yul\":4014:4032   */\n      0xffffffffffffffff\n        /* \"#utility.yul\":4006:4012   */\n      dup3\n        /* \"#utility.yul\":4003:4033   */\n      gt\n        /* \"#utility.yul\":4000:4056   */\n      iszero\n      tag_123\n      jumpi\n        /* \"#utility.yul\":4036:4054   */\n      tag_124\n      tag_52\n      jump\t// in\n    tag_124:\n        /* \"#utility.yul\":4000:4056   */\n    tag_123:\n        /* \"#utility.yul\":4074:4103   */\n      tag_125\n        /* \"#utility.yul\":4096:4102   */\n      dup3\n        /* \"#utility.yul\":4074:4103   */\n      tag_48\n      jump\t// in\n    tag_125:\n        /* \"#utility.yul\":4066:4103   */\n      swap1\n      pop\n        /* \"#utility.yul\":4158:4162   */\n      0x20\n        /* \"#utility.yul\":4152:4156   */\n      dup2\n        /* \"#utility.yul\":4148:4163   */\n      add\n        /* \"#utility.yul\":4140:4163   */\n      swap1\n      pop\n        /* \"#utility.yul\":3863:4170   */\n      swap2\n      swap1\n      pop\n      jump\t// out\n        /* \"#utility.yul\":4176:4322   */\n    tag_56:\n        /* \"#utility.yul\":4273:4279   */\n      dup3\n        /* \"#utility.yul\":4268:4271   */\n      dup2\n        /* \"#utility.yul\":4263:4266   */\n      dup4\n        /* \"#utility.yul\":4250:4280   */\n      calldatacopy\n        /* \"#utility.yul\":4314:4315   */\n      0x00\n        /* \"#utility.yul\":4305:4311   */\n      dup4\n        /* \"#utility.yul\":4300:4303   */\n      dup4\n        /* \"#utility.yul\":4296:4312   */\n      add\n        /* \"#utility.yul\":4289:4316   */\n      mstore\n        /* \"#utility.yul\":4176:4322   */\n      pop\n      pop\n      pop\n      jump\t// out\n        /* \"#utility.yul\":4328:4751   */\n    tag_57:\n        /* \"#utility.yul\":4405:4410   */\n      0x00\n        /* \"#utility.yul\":4430:4495   */\n      tag_128\n        /* \"#utility.yul\":4446:4494   */\n      tag_129\n        /* \"#utility.yul\":4487:4493   */\n      dup5\n        /* \"#utility.yul\":4446:4494   */\n      tag_55\n      jump\t// in\n    tag_129:\n        /* \"#utility.yul\":4430:4495   */\n      tag_54\n      jump\t// in\n    tag_128:\n        /* \"#utility.yul\":4421:4495   */\n      swap1\n      pop\n        /* \"#utility.yul\":4518:4524   */\n      dup3\n        /* \"#utility.yul\":4511:4516   */\n      dup2\n        /* \"#utility.yul\":4504:4525   */\n      mstore\n        /* \"#utility.yul\":4556:4560   */\n      0x20\n        /* \"#utility.yul\":4549:4554   */\n      dup2\n        /* \"#utility.yul\":4545:4561   */\n      add\n        /* \"#utility.yul\":4594:4597   */\n      dup5\n        /* \"#utility.yul\":4585:4591   */\n      dup5\n        /* \"#utility.yul\":4580:4583   */\n      dup5\n        /* \"#utility.yul\":4576:4592   */\n      add\n        /* \"#utility.yul\":4573:4598   */\n      gt\n        /* \"#utility.yul\":4570:4682   */\n      iszero\n      tag_130\n      jumpi\n        /* \"#utility.yul\":4601:4680   */\n      tag_131\n      tag_51\n      jump\t// in\n    tag_131:\n        /* \"#utility.yul\":4570:4682   */\n    tag_130:\n        /* \"#utility.yul\":4691:4745   */\n      tag_132\n        /* \"#utility.yul\":4738:4744   */\n      dup5\n        /* \"#utility.yul\":4733:4736   */\n      dup3\n        /* \"#utility.yul\":4728:4731   */\n      dup6\n        /* \"#utility.yul\":4691:4745   */\n      tag_56\n      jump\t// in\n    tag_132:\n        /* \"#utility.yul\":4411:4751   */\n      pop\n        /* \"#utility.yul\":4328:4751   */\n      swap4\n      swap3\n      pop\n      pop\n      pop\n      jump\t// out\n        /* \"#utility.yul\":4770:5108   */\n    tag_58:\n        /* \"#utility.yul\":4825:4830   */\n      0x00\n        /* \"#utility.yul\":4874:4877   */\n      dup3\n        /* \"#utility.yul\":4867:4871   */\n      0x1f\n        /* \"#utility.yul\":4859:4865   */\n      dup4\n        /* \"#utility.yul\":4855:4872   */\n      add\n        /* \"#utility.yul\":4851:4878   */\n      slt\n        /* \"#utility.yul\":4841:4963   */\n      tag_134\n      jumpi\n        /* \"#utility.yul\":4882:4961   */\n      tag_135\n      tag_50\n      jump\t// in\n    tag_135:\n        /* \"#utility.yul\":4841:4963   */\n    tag_134:\n        /* \"#utility.yul\":4999:5005   */\n      dup2\n        /* \"#utility.yul\":4986:5006   */\n      calldataload\n        /* \"#utility.yul\":5024:5102   */\n      tag_136\n        /* \"#utility.yul\":5098:5101   */\n      dup5\n        /* \"#utility.yul\":5090:5096   */\n      dup3\n        /* \"#utility.yul\":5083:5087   */\n      0x20\n        /* \"#utility.yul\":5075:5081   */\n      dup7\n        /* \"#utility.yul\":5071:5088   */\n      add\n        /* \"#utility.yul\":5024:5102   */\n      tag_57\n      jump\t// in\n    tag_136:\n        /* \"#utility.yul\":5015:5102   */\n      swap2\n      pop\n        /* \"#utility.yul\":4831:5108   */\n      pop\n        /* \"#utility.yul\":4770:5108   */\n      swap3\n      swap2\n      pop\n      pop\n      jump\t// out\n        /* \"#utility.yul\":5114:5766   */\n    tag_15:\n        /* \"#utility.yul\":5191:5197   */\n      0x00\n        /* \"#utility.yul\":5199:5205   */\n      dup1\n        /* \"#utility.yul\":5248:5250   */\n      0x40\n        /* \"#utility.yul\":5236:5245   */\n      dup4\n        /* \"#utility.yul\":5227:5234   */\n      dup6\n        /* \"#utility.yul\":5223:5246   */\n      sub\n        /* \"#utility.yul\":5219:5251   */\n      slt\n        /* \"#utility.yul\":5216:5335   */\n      iszero\n      tag_138\n      jumpi\n        /* \"#utility.yul\":5254:5333   */\n      tag_139\n      tag_36\n      jump\t// in\n    tag_139:\n        /* \"#utility.yul\":5216:5335   */\n    tag_138:\n        /* \"#utility.yul\":5402:5403   */\n      0x00\n        /* \"#utility.yul\":5391:5400   */\n      dup4\n        /* \"#utility.yul\":5387:5404   */\n      add\n        /* \"#utility.yul\":5374:5405   */\n      calldataload\n        /* \"#utility.yul\":5432:5450   */\n      0xffffffffffffffff\n        /* \"#utility.yul\":5424:5430   */\n      dup2\n        /* \"#utility.yul\":5421:5451   */\n      gt\n        /* \"#utility.yul\":5418:5535   */\n      iszero\n      tag_140\n      jumpi\n        /* \"#utility.yul\":5454:5533   */\n      tag_141\n      tag_37\n      jump\t// in\n    tag_141:\n        /* \"#utility.yul\":5418:5535   */\n    tag_140:\n        /* \"#utility.yul\":5559:5621   */\n      tag_142\n        /* \"#utility.yul\":5613:5620   */\n      dup6\n        /* \"#utility.yul\":5604:5610   */\n      dup3\n        /* \"#utility.yul\":5593:5602   */\n      dup7\n        /* \"#utility.yul\":5589:5611   */\n      add\n        /* \"#utility.yul\":5559:5621   */\n      tag_58\n      jump\t// in\n    tag_142:\n        /* \"#utility.yul\":5549:5621   */\n      swap3\n      pop\n        /* \"#utility.yul\":5345:5631   */\n      pop\n        /* \"#utility.yul\":5670:5672   */\n      0x20\n        /* \"#utility.yul\":5696:5749   */\n      tag_143\n        /* \"#utility.yul\":5741:5748   */\n      dup6\n        /* \"#utility.yul\":5732:5738   */\n      dup3\n        /* \"#utility.yul\":5721:5730   */\n      dup7\n        /* \"#utility.yul\":5717:5739   */\n      add\n        /* \"#utility.yul\":5696:5749   */\n      tag_44\n      jump\t// in\n    tag_143:\n        /* \"#utility.yul\":5686:5749   */\n      swap2\n      pop\n        /* \"#utility.yul\":5641:5759   */\n      pop\n        /* \"#utility.yul\":5114:5766   */\n      swap3\n      pop\n      swap3\n      swap1\n      pop\n      jump\t// out\n        /* \"#utility.yul\":5772:5890   */\n    tag_59:\n        /* \"#utility.yul\":5859:5883   */\n      tag_145\n        /* \"#utility.yul\":5877:5882   */\n      dup2\n        /* \"#utility.yul\":5859:5883   */\n      tag_39\n      jump\t// in\n    tag_145:\n        /* \"#utility.yul\":5854:5857   */\n      dup3\n        /* \"#utility.yul\":5847:5884   */\n      mstore\n        /* \"#utility.yul\":5772:5890   */\n      pop\n      pop\n      jump\t// out\n        /* \"#utility.yul\":5896:6118   */\n    tag_18:\n        /* \"#utility.yul\":5989:5993   */\n      0x00\n        /* \"#utility.yul\":6027:6029   */\n      0x20\n        /* \"#utility.yul\":6016:6025   */\n      dup3\n        /* \"#utility.yul\":6012:6030   */\n      add\n        /* \"#utility.yul\":6004:6030   */\n      swap1\n      pop\n        /* \"#utility.yul\":6040:6111   */\n      tag_147\n        /* \"#utility.yul\":6108:6109   */\n      0x00\n        /* \"#utility.yul\":6097:6106   */\n      dup4\n        /* \"#utility.yul\":6093:6110   */\n      add\n        /* \"#utility.yul\":6084:6090   */\n      dup5\n        /* \"#utility.yul\":6040:6111   */\n      tag_59\n      jump\t// in\n    tag_147:\n        /* \"#utility.yul\":5896:6118   */\n      swap3\n      swap2\n      pop\n      pop\n      jump\t// out\n        /* \"#utility.yul\":6124:6242   */\n    tag_60:\n        /* \"#utility.yul\":6211:6235   */\n      tag_149\n        /* \"#utility.yul\":6229:6234   */\n      dup2\n        /* \"#utility.yul\":6211:6235   */\n      tag_42\n      jump\t// in\n    tag_149:\n        /* \"#utility.yul\":6206:6209   */\n      dup3\n        /* \"#utility.yul\":6199:6236   */\n      mstore\n        /* \"#utility.yul\":6124:6242   */\n      pop\n      pop\n      jump\t// out\n        /* \"#utility.yul\":6248:6580   */\n    tag_26:\n        /* \"#utility.yul\":6369:6373   */\n      0x00\n        /* \"#utility.yul\":6407:6409   */\n      0x40\n        /* \"#utility.yul\":6396:6405   */\n      dup3\n        /* \"#utility.yul\":6392:6410   */\n      add\n        /* \"#utility.yul\":6384:6410   */\n      swap1\n      pop\n        /* \"#utility.yul\":6420:6491   */\n      tag_151\n        /* \"#utility.yul\":6488:6489   */\n      0x00\n        /* \"#utility.yul\":6477:6486   */\n      dup4\n        /* \"#utility.yul\":6473:6490   */\n      add\n        /* \"#utility.yul\":6464:6470   */\n      dup6\n        /* \"#utility.yul\":6420:6491   */\n      tag_59\n      jump\t// in\n    tag_151:\n        /* \"#utility.yul\":6501:6573   */\n      tag_152\n        /* \"#utility.yul\":6569:6571   */\n      0x20\n        /* \"#utility.yul\":6558:6567   */\n      dup4\n        /* \"#utility.yul\":6554:6572   */\n      add\n        /* \"#utility.yul\":6545:6551   */\n      dup5\n        /* \"#utility.yul\":6501:6573   */\n      tag_60\n      jump\t// in\n    tag_152:\n        /* \"#utility.yul\":6248:6580   */\n      swap4\n      swap3\n      pop\n      pop\n      pop\n      jump\t// out\n        /* \"#utility.yul\":6586:6733   */\n    tag_61:\n        /* \"#utility.yul\":6687:6698   */\n      0x00\n        /* \"#utility.yul\":6724:6727   */\n      dup2\n        /* \"#utility.yul\":6709:6727   */\n      swap1\n      pop\n        /* \"#utility.yul\":6586:6733   */\n      swap3\n      swap2\n      pop\n      pop\n      jump\t// out\n        /* \"#utility.yul\":6739:7125   */\n    tag_62:\n        /* \"#utility.yul\":6843:6846   */\n      0x00\n        /* \"#utility.yul\":6871:6909   */\n      tag_155\n        /* \"#utility.yul\":6903:6908   */\n      dup3\n        /* \"#utility.yul\":6871:6909   */\n      tag_45\n      jump\t// in\n    tag_155:\n        /* \"#utility.yul\":6925:7013   */\n      tag_156\n        /* \"#utility.yul\":7006:7012   */\n      dup2\n        /* \"#utility.yul\":7001:7004   */\n      dup6\n        /* \"#utility.yul\":6925:7013   */\n      tag_61\n      jump\t// in\n    tag_156:\n        /* \"#utility.yul\":6918:7013   */\n      swap4\n      pop\n        /* \"#utility.yul\":7022:7087   */\n      tag_157\n        /* \"#utility.yul\":7080:7086   */\n      dup2\n        /* \"#utility.yul\":7075:7078   */\n      dup6\n        /* \"#utility.yul\":7068:7072   */\n      0x20\n        /* \"#utility.yul\":7061:7066   */\n      dup7\n        /* \"#utility.yul\":7057:7073   */\n      add\n        /* \"#utility.yul\":7022:7087   */\n      tag_47\n      jump\t// in\n    tag_157:\n        /* \"#utility.yul\":7112:7118   */\n      dup1\n        /* \"#utility.yul\":7107:7110   */\n      dup5\n        /* \"#utility.yul\":7103:7119   */\n      add\n        /* \"#utility.yul\":7096:7119   */\n      swap2\n      pop\n        /* \"#utility.yul\":6847:7125   */\n      pop\n        /* \"#utility.yul\":6739:7125   */\n      swap3\n      swap2\n      pop\n      pop\n      jump\t// out\n        /* \"#utility.yul\":7131:7558   */\n    tag_28:\n        /* \"#utility.yul\":7307:7310   */\n      0x00\n        /* \"#utility.yul\":7329:7422   */\n      tag_159\n        /* \"#utility.yul\":7418:7421   */\n      dup3\n        /* \"#utility.yul\":7409:7415   */\n      dup6\n        /* \"#utility.yul\":7329:7422   */\n      tag_62\n      jump\t// in\n    tag_159:\n        /* \"#utility.yul\":7322:7422   */\n      swap2\n      pop\n        /* \"#utility.yul\":7439:7532   */\n      tag_160\n        /* \"#utility.yul\":7528:7531   */\n      dup3\n        /* \"#utility.yul\":7519:7525   */\n      dup5\n        /* \"#utility.yul\":7439:7532   */\n      tag_62\n      jump\t// in\n    tag_160:\n        /* \"#utility.yul\":7432:7532   */\n      swap2\n      pop\n        /* \"#utility.yul\":7549:7552   */\n      dup2\n        /* \"#utility.yul\":7542:7552   */\n      swap1\n      pop\n        /* \"#utility.yul\":7131:7558   */\n      swap4\n      swap3\n      pop\n      pop\n      pop\n      jump\t// out\n        /* \"#utility.yul\":7564:7713   */\n    tag_63:\n        /* \"#utility.yul\":7600:7607   */\n      0x00\n        /* \"#utility.yul\":7640:7706   */\n      0xff00000000000000000000000000000000000000000000000000000000000000\n        /* \"#utility.yul\":7633:7638   */\n      dup3\n        /* \"#utility.yul\":7629:7707   */\n      and\n        /* \"#utility.yul\":7618:7707   */\n      swap1\n      pop\n        /* \"#utility.yul\":7564:7713   */\n      swap2\n      swap1\n      pop\n      jump\t// out\n        /* \"#utility.yul\":7719:7797   */\n    tag_64:\n        /* \"#utility.yul\":7757:7764   */\n      0x00\n        /* \"#utility.yul\":7786:7791   */\n      dup2\n        /* \"#utility.yul\":7775:7791   */\n      swap1\n      pop\n        /* \"#utility.yul\":7719:7797   */\n      swap2\n      swap1\n      pop\n      jump\t// out\n        /* \"#utility.yul\":7803:7956   */\n    tag_65:\n        /* \"#utility.yul\":7906:7949   */\n      tag_164\n        /* \"#utility.yul\":7925:7948   */\n      tag_165\n        /* \"#utility.yul\":7942:7947   */\n      dup3\n        /* \"#utility.yul\":7925:7948   */\n      tag_63\n      jump\t// in\n    tag_165:\n        /* \"#utility.yul\":7906:7949   */\n      tag_64\n      jump\t// in\n    tag_164:\n        /* \"#utility.yul\":7901:7904   */\n      dup3\n        /* \"#utility.yul\":7894:7950   */\n      mstore\n        /* \"#utility.yul\":7803:7956   */\n      pop\n      pop\n      jump\t// out\n        /* \"#utility.yul\":7962:8056   */\n    tag_66:\n        /* \"#utility.yul\":7995:8003   */\n      0x00\n        /* \"#utility.yul\":8043:8048   */\n      dup2\n        /* \"#utility.yul\":8039:8041   */\n      0x60\n        /* \"#utility.yul\":8035:8049   */\n      shl\n        /* \"#utility.yul\":8014:8049   */\n      swap1\n      pop\n        /* \"#utility.yul\":7962:8056   */\n      swap2\n      swap1\n      pop\n      jump\t// out\n        /* \"#utility.yul\":8062:8156   */\n    tag_67:\n        /* \"#utility.yul\":8101:8108   */\n      0x00\n        /* \"#utility.yul\":8130:8150   */\n      tag_168\n        /* \"#utility.yul\":8144:8149   */\n      dup3\n        /* \"#utility.yul\":8130:8150   */\n      tag_66\n      jump\t// in\n    tag_168:\n        /* \"#utility.yul\":8119:8150   */\n      swap1\n      pop\n        /* \"#utility.yul\":8062:8156   */\n      swap2\n      swap1\n      pop\n      jump\t// out\n        /* \"#utility.yul\":8162:8262   */\n    tag_68:\n        /* \"#utility.yul\":8201:8208   */\n      0x00\n        /* \"#utility.yul\":8230:8256   */\n      tag_170\n        /* \"#utility.yul\":8250:8255   */\n      dup3\n        /* \"#utility.yul\":8230:8256   */\n      tag_67\n      jump\t// in\n    tag_170:\n        /* \"#utility.yul\":8219:8256   */\n      swap1\n      pop\n        /* \"#utility.yul\":8162:8262   */\n      swap2\n      swap1\n      pop\n      jump\t// out\n        /* \"#utility.yul\":8268:8425   */\n    tag_69:\n        /* \"#utility.yul\":8373:8418   */\n      tag_172\n        /* \"#utility.yul\":8393:8417   */\n      tag_173\n        /* \"#utility.yul\":8411:8416   */\n      dup3\n        /* \"#utility.yul\":8393:8417   */\n      tag_39\n      jump\t// in\n    tag_173:\n        /* \"#utility.yul\":8373:8418   */\n      tag_68\n      jump\t// in\n    tag_172:\n        /* \"#utility.yul\":8368:8371   */\n      dup3\n        /* \"#utility.yul\":8361:8419   */\n      mstore\n        /* \"#utility.yul\":8268:8425   */\n      pop\n      pop\n      jump\t// out\n        /* \"#utility.yul\":8431:8510   */\n    tag_70:\n        /* \"#utility.yul\":8470:8477   */\n      0x00\n        /* \"#utility.yul\":8499:8504   */\n      dup2\n        /* \"#utility.yul\":8488:8504   */\n      swap1\n      pop\n        /* \"#utility.yul\":8431:8510   */\n      swap2\n      swap1\n      pop\n      jump\t// out\n        /* \"#utility.yul\":8516:8673   */\n    tag_71:\n        /* \"#utility.yul\":8621:8666   */\n      tag_176\n        /* \"#utility.yul\":8641:8665   */\n      tag_177\n        /* \"#utility.yul\":8659:8664   */\n      dup3\n        /* \"#utility.yul\":8641:8665   */\n      tag_42\n      jump\t// in\n    tag_177:\n        /* \"#utility.yul\":8621:8666   */\n      tag_70\n      jump\t// in\n    tag_176:\n        /* \"#utility.yul\":8616:8619   */\n      dup3\n        /* \"#utility.yul\":8609:8667   */\n      mstore\n        /* \"#utility.yul\":8516:8673   */\n      pop\n      pop\n      jump\t// out\n        /* \"#utility.yul\":8679:8756   */\n    tag_72:\n        /* \"#utility.yul\":8716:8723   */\n      0x00\n        /* \"#utility.yul\":8745:8750   */\n      dup2\n        /* \"#utility.yul\":8734:8750   */\n      swap1\n      pop\n        /* \"#utility.yul\":8679:8756   */\n      swap2\n      swap1\n      pop\n      jump\t// out\n        /* \"#utility.yul\":8762:8841   */\n    tag_73:\n        /* \"#utility.yul\":8801:8808   */\n      0x00\n        /* \"#utility.yul\":8830:8835   */\n      dup2\n        /* \"#utility.yul\":8819:8835   */\n      swap1\n      pop\n        /* \"#utility.yul\":8762:8841   */\n      swap2\n      swap1\n      pop\n      jump\t// out\n        /* \"#utility.yul\":8847:9004   */\n    tag_74:\n        /* \"#utility.yul\":8952:8997   */\n      tag_181\n        /* \"#utility.yul\":8972:8996   */\n      tag_182\n        /* \"#utility.yul\":8990:8995   */\n      dup3\n        /* \"#utility.yul\":8972:8996   */\n      tag_72\n      jump\t// in\n    tag_182:\n        /* \"#utility.yul\":8952:8997   */\n      tag_73\n      jump\t// in\n    tag_181:\n        /* \"#utility.yul\":8947:8950   */\n      dup3\n        /* \"#utility.yul\":8940:8998   */\n      mstore\n        /* \"#utility.yul\":8847:9004   */\n      pop\n      pop\n      jump\t// out\n        /* \"#utility.yul\":9010:9684   */\n    tag_31:\n        /* \"#utility.yul\":9204:9207   */\n      0x00\n        /* \"#utility.yul\":9219:9292   */\n      tag_184\n        /* \"#utility.yul\":9288:9291   */\n      dup3\n        /* \"#utility.yul\":9279:9285   */\n      dup8\n        /* \"#utility.yul\":9219:9292   */\n      tag_65\n      jump\t// in\n    tag_184:\n        /* \"#utility.yul\":9317:9318   */\n      0x01\n        /* \"#utility.yul\":9312:9315   */\n      dup3\n        /* \"#utility.yul\":9308:9319   */\n      add\n        /* \"#utility.yul\":9301:9319   */\n      swap2\n      pop\n        /* \"#utility.yul\":9329:9404   */\n      tag_185\n        /* \"#utility.yul\":9400:9403   */\n      dup3\n        /* \"#utility.yul\":9391:9397   */\n      dup7\n        /* \"#utility.yul\":9329:9404   */\n      tag_69\n      jump\t// in\n    tag_185:\n        /* \"#utility.yul\":9429:9431   */\n      0x14\n        /* \"#utility.yul\":9424:9427   */\n      dup3\n        /* \"#utility.yul\":9420:9432   */\n      add\n        /* \"#utility.yul\":9413:9432   */\n      swap2\n      pop\n        /* \"#utility.yul\":9442:9517   */\n      tag_186\n        /* \"#utility.yul\":9513:9516   */\n      dup3\n        /* \"#utility.yul\":9504:9510   */\n      dup6\n        /* \"#utility.yul\":9442:9517   */\n      tag_71\n      jump\t// in\n    tag_186:\n        /* \"#utility.yul\":9542:9544   */\n      0x20\n        /* \"#utility.yul\":9537:9540   */\n      dup3\n        /* \"#utility.yul\":9533:9545   */\n      add\n        /* \"#utility.yul\":9526:9545   */\n      swap2\n      pop\n        /* \"#utility.yul\":9555:9630   */\n      tag_187\n        /* \"#utility.yul\":9626:9629   */\n      dup3\n        /* \"#utility.yul\":9617:9623   */\n      dup5\n        /* \"#utility.yul\":9555:9630   */\n      tag_74\n      jump\t// in\n    tag_187:\n        /* \"#utility.yul\":9655:9657   */\n      0x20\n        /* \"#utility.yul\":9650:9653   */\n      dup3\n        /* \"#utility.yul\":9646:9658   */\n      add\n        /* \"#utility.yul\":9639:9658   */\n      swap2\n      pop\n        /* \"#utility.yul\":9675:9678   */\n      dup2\n        /* \"#utility.yul\":9668:9678   */\n      swap1\n      pop\n        /* \"#utility.yul\":9010:9684   */\n      swap6\n      swap5\n      pop\n      pop\n      pop\n      pop\n      pop\n      jump\t// out\n    stop\n\n    sub_0: assembly {\n            /* \"contracts/Applications/DeployWithCreate2.sol\":2688:2964  contract TestContract {... */\n          mstore(0x40, 0x80)\n            /* \"contracts/Applications/DeployWithCreate2.sol\":2764:2862  constructor(address _owner, uint _foo) payable {... */\n          mload(0x40)\n          sub(codesize, bytecodeSize)\n          dup1\n          bytecodeSize\n          dup4\n          codecopy\n          dup2\n          dup2\n          add\n          0x40\n          mstore\n          dup2\n          add\n          swap1\n          tag_1\n          swap2\n          swap1\n          tag_2\n          jump\t// in\n        tag_1:\n            /* \"contracts/Applications/DeployWithCreate2.sol\":2829:2835  _owner */\n          dup2\n            /* \"contracts/Applications/DeployWithCreate2.sol\":2821:2826  owner */\n          0x00\n          dup1\n            /* \"contracts/Applications/DeployWithCreate2.sol\":2821:2835  owner = _owner */\n          0x0100\n          exp\n          dup2\n          sload\n          dup2\n          0xffffffffffffffffffffffffffffffffffffffff\n          mul\n          not\n          and\n          swap1\n          dup4\n          0xffffffffffffffffffffffffffffffffffffffff\n          and\n          mul\n          or\n          swap1\n          sstore\n          pop\n            /* \"contracts/Applications/DeployWithCreate2.sol\":2851:2855  _foo */\n          dup1\n            /* \"contracts/Applications/DeployWithCreate2.sol\":2845:2848  foo */\n          0x01\n            /* \"contracts/Applications/DeployWithCreate2.sol\":2845:2855  foo = _foo */\n          dup2\n          swap1\n          sstore\n          pop\n            /* \"contracts/Applications/DeployWithCreate2.sol\":2764:2862  constructor(address _owner, uint _foo) payable {... */\n          pop\n          pop\n            /* \"contracts/Applications/DeployWithCreate2.sol\":2688:2964  contract TestContract {... */\n          jump(tag_5)\n            /* \"#utility.yul\":88:205   */\n        tag_7:\n            /* \"#utility.yul\":197:198   */\n          0x00\n            /* \"#utility.yul\":194:195   */\n          dup1\n            /* \"#utility.yul\":187:199   */\n          revert\n            /* \"#utility.yul\":334:460   */\n        tag_9:\n            /* \"#utility.yul\":371:378   */\n          0x00\n            /* \"#utility.yul\":411:453   */\n          0xffffffffffffffffffffffffffffffffffffffff\n            /* \"#utility.yul\":404:409   */\n          dup3\n            /* \"#utility.yul\":400:454   */\n          and\n            /* \"#utility.yul\":389:454   */\n          swap1\n          pop\n            /* \"#utility.yul\":334:460   */\n          swap2\n          swap1\n          pop\n          jump\t// out\n            /* \"#utility.yul\":466:562   */\n        tag_10:\n            /* \"#utility.yul\":503:510   */\n          0x00\n            /* \"#utility.yul\":532:556   */\n          tag_22\n            /* \"#utility.yul\":550:555   */\n          dup3\n            /* \"#utility.yul\":532:556   */\n          tag_9\n          jump\t// in\n        tag_22:\n            /* \"#utility.yul\":521:556   */\n          swap1\n          pop\n            /* \"#utility.yul\":466:562   */\n          swap2\n          swap1\n          pop\n          jump\t// out\n            /* \"#utility.yul\":568:690   */\n        tag_11:\n            /* \"#utility.yul\":641:665   */\n          tag_24\n            /* \"#utility.yul\":659:664   */\n          dup2\n            /* \"#utility.yul\":641:665   */\n          tag_10\n          jump\t// in\n        tag_24:\n            /* \"#utility.yul\":634:639   */\n          dup2\n            /* \"#utility.yul\":631:666   */\n          eq\n            /* \"#utility.yul\":621:684   */\n          tag_25\n          jumpi\n            /* \"#utility.yul\":680:681   */\n          0x00\n            /* \"#utility.yul\":677:678   */\n          dup1\n            /* \"#utility.yul\":670:682   */\n          revert\n            /* \"#utility.yul\":621:684   */\n        tag_25:\n            /* \"#utility.yul\":568:690   */\n          pop\n          jump\t// out\n            /* \"#utility.yul\":696:839   */\n        tag_12:\n            /* \"#utility.yul\":753:758   */\n          0x00\n            /* \"#utility.yul\":784:790   */\n          dup2\n            /* \"#utility.yul\":778:791   */\n          mload\n            /* \"#utility.yul\":769:791   */\n          swap1\n          pop\n            /* \"#utility.yul\":800:833   */\n          tag_27\n            /* \"#utility.yul\":827:832   */\n          dup2\n            /* \"#utility.yul\":800:833   */\n          tag_11\n          jump\t// in\n        tag_27:\n            /* \"#utility.yul\":696:839   */\n          swap3\n          swap2\n          pop\n          pop\n          jump\t// out\n            /* \"#utility.yul\":845:922   */\n        tag_13:\n            /* \"#utility.yul\":882:889   */\n          0x00\n            /* \"#utility.yul\":911:916   */\n          dup2\n            /* \"#utility.yul\":900:916   */\n          swap1\n          pop\n            /* \"#utility.yul\":845:922   */\n          swap2\n          swap1\n          pop\n          jump\t// out\n            /* \"#utility.yul\":928:1050   */\n        tag_14:\n            /* \"#utility.yul\":1001:1025   */\n          tag_30\n            /* \"#utility.yul\":1019:1024   */\n          dup2\n            /* \"#utility.yul\":1001:1025   */\n          tag_13\n          jump\t// in\n        tag_30:\n            /* \"#utility.yul\":994:999   */\n          dup2\n            /* \"#utility.yul\":991:1026   */\n          eq\n            /* \"#utility.yul\":981:1044   */\n          tag_31\n          jumpi\n            /* \"#utility.yul\":1040:1041   */\n          0x00\n            /* \"#utility.yul\":1037:1038   */\n          dup1\n            /* \"#utility.yul\":1030:1042   */\n          revert\n            /* \"#utility.yul\":981:1044   */\n        tag_31:\n            /* \"#utility.yul\":928:1050   */\n          pop\n          jump\t// out\n            /* \"#utility.yul\":1056:1199   */\n        tag_15:\n            /* \"#utility.yul\":1113:1118   */\n          0x00\n            /* \"#utility.yul\":1144:1150   */\n          dup2\n            /* \"#utility.yul\":1138:1151   */\n          mload\n            /* \"#utility.yul\":1129:1151   */\n          swap1\n          pop\n            /* \"#utility.yul\":1160:1193   */\n          tag_33\n            /* \"#utility.yul\":1187:1192   */\n          dup2\n            /* \"#utility.yul\":1160:1193   */\n          tag_14\n          jump\t// in\n        tag_33:\n            /* \"#utility.yul\":1056:1199   */\n          swap3\n          swap2\n          pop\n          pop\n          jump\t// out\n            /* \"#utility.yul\":1205:1712   */\n        tag_2:\n            /* \"#utility.yul\":1284:1290   */\n          0x00\n            /* \"#utility.yul\":1292:1298   */\n          dup1\n            /* \"#utility.yul\":1341:1343   */\n          0x40\n            /* \"#utility.yul\":1329:1338   */\n          dup4\n            /* \"#utility.yul\":1320:1327   */\n          dup6\n            /* \"#utility.yul\":1316:1339   */\n          sub\n            /* \"#utility.yul\":1312:1344   */\n          slt\n            /* \"#utility.yul\":1309:1428   */\n          iszero\n          tag_35\n          jumpi\n            /* \"#utility.yul\":1347:1426   */\n          tag_36\n          tag_7\n          jump\t// in\n        tag_36:\n            /* \"#utility.yul\":1309:1428   */\n        tag_35:\n            /* \"#utility.yul\":1467:1468   */\n          0x00\n            /* \"#utility.yul\":1492:1556   */\n          tag_37\n            /* \"#utility.yul\":1548:1555   */\n          dup6\n            /* \"#utility.yul\":1539:1545   */\n          dup3\n            /* \"#utility.yul\":1528:1537   */\n          dup7\n            /* \"#utility.yul\":1524:1546   */\n          add\n            /* \"#utility.yul\":1492:1556   */\n          tag_12\n          jump\t// in\n        tag_37:\n            /* \"#utility.yul\":1482:1556   */\n          swap3\n          pop\n            /* \"#utility.yul\":1438:1566   */\n          pop\n            /* \"#utility.yul\":1605:1607   */\n          0x20\n            /* \"#utility.yul\":1631:1695   */\n          tag_38\n            /* \"#utility.yul\":1687:1694   */\n          dup6\n            /* \"#utility.yul\":1678:1684   */\n          dup3\n            /* \"#utility.yul\":1667:1676   */\n          dup7\n            /* \"#utility.yul\":1663:1685   */\n          add\n            /* \"#utility.yul\":1631:1695   */\n          tag_15\n          jump\t// in\n        tag_38:\n            /* \"#utility.yul\":1621:1695   */\n          swap2\n          pop\n            /* \"#utility.yul\":1576:1705   */\n          pop\n            /* \"#utility.yul\":1205:1712   */\n          swap3\n          pop\n          swap3\n          swap1\n          pop\n          jump\t// out\n            /* \"contracts/Applications/DeployWithCreate2.sol\":2688:2964  contract TestContract {... */\n        tag_5:\n          dataSize(sub_0)\n          dup1\n          dataOffset(sub_0)\n          0x00\n          codecopy\n          0x00\n          return\n        stop\n\n        sub_0: assembly {\n                /* \"contracts/Applications/DeployWithCreate2.sol\":2688:2964  contract TestContract {... */\n              mstore(0x40, 0x80)\n              callvalue\n              dup1\n              iszero\n              tag_1\n              jumpi\n              0x00\n              dup1\n              revert\n            tag_1:\n              pop\n              jumpi(tag_2, lt(calldatasize, 0x04))\n              shr(0xe0, calldataload(0x00))\n              dup1\n              0x12065fe0\n              eq\n              tag_3\n              jumpi\n              dup1\n              0x8da5cb5b\n              eq\n              tag_4\n              jumpi\n              dup1\n              0xc2985578\n              eq\n              tag_5\n              jumpi\n            tag_2:\n              0x00\n              dup1\n              revert\n                /* \"contracts/Applications/DeployWithCreate2.sol\":2868:2962  function getBalance() public view returns (uint) {... */\n            tag_3:\n              tag_6\n              tag_7\n              jump\t// in\n            tag_6:\n              mload(0x40)\n              tag_8\n              swap2\n              swap1\n              tag_9\n              jump\t// in\n            tag_8:\n              mload(0x40)\n              dup1\n              swap2\n              sub\n              swap1\n              return\n                /* \"contracts/Applications/DeployWithCreate2.sol\":2716:2736  address public owner */\n            tag_4:\n              tag_10\n              tag_11\n              jump\t// in\n            tag_10:\n              mload(0x40)\n              tag_12\n              swap2\n              swap1\n              tag_13\n              jump\t// in\n            tag_12:\n              mload(0x40)\n              dup1\n              swap2\n              sub\n              swap1\n              return\n                /* \"contracts/Applications/DeployWithCreate2.sol\":2742:2757  uint public foo */\n            tag_5:\n              tag_14\n              tag_15\n              jump\t// in\n            tag_14:\n              mload(0x40)\n              tag_16\n              swap2\n              swap1\n              tag_9\n              jump\t// in\n            tag_16:\n              mload(0x40)\n              dup1\n              swap2\n              sub\n              swap1\n              return\n                /* \"contracts/Applications/DeployWithCreate2.sol\":2868:2962  function getBalance() public view returns (uint) {... */\n            tag_7:\n                /* \"contracts/Applications/DeployWithCreate2.sol\":2911:2915  uint */\n              0x00\n                /* \"contracts/Applications/DeployWithCreate2.sol\":2934:2955  address(this).balance */\n              selfbalance\n                /* \"contracts/Applications/DeployWithCreate2.sol\":2927:2955  return address(this).balance */\n              swap1\n              pop\n                /* \"contracts/Applications/DeployWithCreate2.sol\":2868:2962  function getBalance() public view returns (uint) {... */\n              swap1\n              jump\t// out\n                /* \"contracts/Applications/DeployWithCreate2.sol\":2716:2736  address public owner */\n            tag_11:\n              0x00\n              dup1\n              sload\n              swap1\n              0x0100\n              exp\n              swap1\n              div\n              0xffffffffffffffffffffffffffffffffffffffff\n              and\n              dup2\n              jump\t// out\n                /* \"contracts/Applications/DeployWithCreate2.sol\":2742:2757  uint public foo */\n            tag_15:\n              sload(0x01)\n              dup2\n              jump\t// out\n                /* \"#utility.yul\":7:84   */\n            tag_18:\n                /* \"#utility.yul\":44:51   */\n              0x00\n                /* \"#utility.yul\":73:78   */\n              dup2\n                /* \"#utility.yul\":62:78   */\n              swap1\n              pop\n                /* \"#utility.yul\":7:84   */\n              swap2\n              swap1\n              pop\n              jump\t// out\n                /* \"#utility.yul\":90:208   */\n            tag_19:\n                /* \"#utility.yul\":177:201   */\n              tag_26\n                /* \"#utility.yul\":195:200   */\n              dup2\n                /* \"#utility.yul\":177:201   */\n              tag_18\n              jump\t// in\n            tag_26:\n                /* \"#utility.yul\":172:175   */\n              dup3\n                /* \"#utility.yul\":165:202   */\n              mstore\n                /* \"#utility.yul\":90:208   */\n              pop\n              pop\n              jump\t// out\n                /* \"#utility.yul\":214:436   */\n            tag_9:\n                /* \"#utility.yul\":307:311   */\n              0x00\n                /* \"#utility.yul\":345:347   */\n              0x20\n                /* \"#utility.yul\":334:343   */\n              dup3\n                /* \"#utility.yul\":330:348   */\n              add\n                /* \"#utility.yul\":322:348   */\n              swap1\n              pop\n                /* \"#utility.yul\":358:429   */\n              tag_28\n                /* \"#utility.yul\":426:427   */\n              0x00\n                /* \"#utility.yul\":415:424   */\n              dup4\n                /* \"#utility.yul\":411:428   */\n              add\n                /* \"#utility.yul\":402:408   */\n              dup5\n                /* \"#utility.yul\":358:429   */\n              tag_19\n              jump\t// in\n            tag_28:\n                /* \"#utility.yul\":214:436   */\n              swap3\n              swap2\n              pop\n              pop\n              jump\t// out\n                /* \"#utility.yul\":442:568   */\n            tag_20:\n                /* \"#utility.yul\":479:486   */\n              0x00\n                /* \"#utility.yul\":519:561   */\n              0xffffffffffffffffffffffffffffffffffffffff\n                /* \"#utility.yul\":512:517   */\n              dup3\n                /* \"#utility.yul\":508:562   */\n              and\n                /* \"#utility.yul\":497:562   */\n              swap1\n              pop\n                /* \"#utility.yul\":442:568   */\n              swap2\n              swap1\n              pop\n              jump\t// out\n                /* \"#utility.yul\":574:670   */\n            tag_21:\n                /* \"#utility.yul\":611:618   */\n              0x00\n                /* \"#utility.yul\":640:664   */\n              tag_31\n                /* \"#utility.yul\":658:663   */\n              dup3\n                /* \"#utility.yul\":640:664   */\n              tag_20\n              jump\t// in\n            tag_31:\n                /* \"#utility.yul\":629:664   */\n              swap1\n              pop\n                /* \"#utility.yul\":574:670   */\n              swap2\n              swap1\n              pop\n              jump\t// out\n                /* \"#utility.yul\":676:794   */\n            tag_22:\n                /* \"#utility.yul\":763:787   */\n              tag_33\n                /* \"#utility.yul\":781:786   */\n              dup2\n                /* \"#utility.yul\":763:787   */\n              tag_21\n              jump\t// in\n            tag_33:\n                /* \"#utility.yul\":758:761   */\n              dup3\n                /* \"#utility.yul\":751:788   */\n              mstore\n                /* \"#utility.yul\":676:794   */\n              pop\n              pop\n              jump\t// out\n                /* \"#utility.yul\":800:1022   */\n            tag_13:\n                /* \"#utility.yul\":893:897   */\n              0x00\n                /* \"#utility.yul\":931:933   */\n              0x20\n                /* \"#utility.yul\":920:929   */\n              dup3\n                /* \"#utility.yul\":916:934   */\n              add\n                /* \"#utility.yul\":908:934   */\n              swap1\n              pop\n                /* \"#utility.yul\":944:1015   */\n              tag_35\n                /* \"#utility.yul\":1012:1013   */\n              0x00\n                /* \"#utility.yul\":1001:1010   */\n              dup4\n                /* \"#utility.yul\":997:1014   */\n              add\n                /* \"#utility.yul\":988:994   */\n              dup5\n                /* \"#utility.yul\":944:1015   */\n              tag_22\n              jump\t// in\n            tag_35:\n                /* \"#utility.yul\":800:1022   */\n              swap3\n              swap2\n              pop\n              pop\n              jump\t// out\n\n            auxdata: 0xa2646970667358221220362e47968100e44bf2a90506398b35fb4a4206a9cf5eb0aa40860a61d8ca6b9064736f6c63430008160033\n        }\n    }\n\n    auxdata: 0xa26469706673582212202d971cd66f0d76bfe3270837e600d18fdc3c66e9813567eecf21be0f4bc6a16064736f6c63430008160033\n}\n",
				"bytecode": {
					"linkReferences": {},
					"object": "608060405234801561000f575f80fd5b506109e68061001d5f395ff3fe608060405260043610610033575f3560e01c806381871cbc1461003757806394ca2cb5146100735780639c4ae2d0146100af575b5f80fd5b348015610042575f80fd5b5061005d60048036038101906100589190610287565b6100cb565b60405161006a919061034f565b60405180910390f35b34801561007e575f80fd5b506100996004803603810190610094919061049b565b610140565b6040516100a69190610504565b60405180910390f35b6100c960048036038101906100c4919061049b565b610188565b005b60605f604051806020016100de906101dc565b6020820181038252601f19601f82011660405250905080848460405160200161010892919061052c565b60405160208183030381529060405260405160200161012892919061058d565b60405160208183030381529060405291505092915050565b5f8060ff60f81b308486805190602001206040516020016101649493929190610689565b604051602081830303815290604052805190602001209050805f1c91505092915050565b5f8183516020850134f59050803b61019e575f80fd5b7fb03c53b28e78a88e31607a27e1fa48234dce28d5d9d9ec7b295aeb02e674a1e181836040516101cf92919061052c565b60405180910390a1505050565b6102da806106d783390190565b5f604051905090565b5f80fd5b5f80fd5b5f73ffffffffffffffffffffffffffffffffffffffff82169050919050565b5f610223826101fa565b9050919050565b61023381610219565b811461023d575f80fd5b50565b5f8135905061024e8161022a565b92915050565b5f819050919050565b61026681610254565b8114610270575f80fd5b50565b5f813590506102818161025d565b92915050565b5f806040838503121561029d5761029c6101f2565b5b5f6102aa85828601610240565b92505060206102bb85828601610273565b9150509250929050565b5f81519050919050565b5f82825260208201905092915050565b5f5b838110156102fc5780820151818401526020810190506102e1565b5f8484015250505050565b5f601f19601f8301169050919050565b5f610321826102c5565b61032b81856102cf565b935061033b8185602086016102df565b61034481610307565b840191505092915050565b5f6020820190508181035f8301526103678184610317565b905092915050565b5f80fd5b5f80fd5b7f4e487b71000000000000000000000000000000000000000000000000000000005f52604160045260245ffd5b6103ad82610307565b810181811067ffffffffffffffff821117156103cc576103cb610377565b5b80604052505050565b5f6103de6101e9565b90506103ea82826103a4565b919050565b5f67ffffffffffffffff82111561040957610408610377565b5b61041282610307565b9050602081019050919050565b828183375f83830152505050565b5f61043f61043a846103ef565b6103d5565b90508281526020810184848401111561045b5761045a610373565b5b61046684828561041f565b509392505050565b5f82601f8301126104825761048161036f565b5b813561049284826020860161042d565b91505092915050565b5f80604083850312156104b1576104b06101f2565b5b5f83013567ffffffffffffffff8111156104ce576104cd6101f6565b5b6104da8582860161046e565b92505060206104eb85828601610273565b9150509250929050565b6104fe81610219565b82525050565b5f6020820190506105175f8301846104f5565b92915050565b61052681610254565b82525050565b5f60408201905061053f5f8301856104f5565b61054c602083018461051d565b9392505050565b5f81905092915050565b5f610567826102c5565b6105718185610553565b93506105818185602086016102df565b80840191505092915050565b5f610598828561055d565b91506105a4828461055d565b91508190509392505050565b5f7fff0000000000000000000000000000000000000000000000000000000000000082169050919050565b5f819050919050565b6105f56105f0826105b0565b6105db565b82525050565b5f8160601b9050919050565b5f610611826105fb565b9050919050565b5f61062282610607565b9050919050565b61063a61063582610219565b610618565b82525050565b5f819050919050565b61065a61065582610254565b610640565b82525050565b5f819050919050565b5f819050919050565b61068361067e82610660565b610669565b82525050565b5f61069482876105e4565b6001820191506106a48286610629565b6014820191506106b48285610649565b6020820191506106c48284610672565b6020820191508190509594505050505056fe60806040526040516102da3803806102da83398181016040528101906100259190610103565b815f806101000a81548173ffffffffffffffffffffffffffffffffffffffff021916908373ffffffffffffffffffffffffffffffffffffffff160217905550806001819055505050610141565b5f80fd5b5f73ffffffffffffffffffffffffffffffffffffffff82169050919050565b5f61009f82610076565b9050919050565b6100af81610095565b81146100b9575f80fd5b50565b5f815190506100ca816100a6565b92915050565b5f819050919050565b6100e2816100d0565b81146100ec575f80fd5b50565b5f815190506100fd816100d9565b92915050565b5f806040838503121561011957610118610072565b5b5f610126858286016100bc565b9250506020610137858286016100ef565b9150509250929050565b61018c8061014e5f395ff3fe608060405234801561000f575f80fd5b506004361061003f575f3560e01c806312065fe0146100435780638da5cb5b14610061578063c29855781461007f575b5f80fd5b61004b61009d565b60405161005891906100e5565b60405180910390f35b6100696100a4565b604051610076919061013d565b60405180910390f35b6100876100c7565b60405161009491906100e5565b60405180910390f35b5f47905090565b5f8054906101000a900473ffffffffffffffffffffffffffffffffffffffff1681565b60015481565b5f819050919050565b6100df816100cd565b82525050565b5f6020820190506100f85f8301846100d6565b92915050565b5f73ffffffffffffffffffffffffffffffffffffffff82169050919050565b5f610127826100fe565b9050919050565b6101378161011d565b82525050565b5f6020820190506101505f83018461012e565b9291505056fea2646970667358221220362e47968100e44bf2a90506398b35fb4a4206a9cf5eb0aa40860a61d8ca6b9064736f6c63430008160033a26469706673582212202d971cd66f0d76bfe3270837e600d18fdc3c66e9813567eecf21be0f4bc6a16064736f6c63430008160033",
					"opcodes": "PUSH1 0x80 PUSH1 0x40 MSTORE CALLVALUE DUP1 ISZERO PUSH2 0xF JUMPI PUSH0 DUP1 REVERT JUMPDEST POP PUSH2 0x9E6 DUP1 PUSH2 0x1D PUSH0 CODECOPY PUSH0 RETURN INVALID PUSH1 0x80 PUSH1 0x40 MSTORE PUSH1 0x4 CALLDATASIZE LT PUSH2 0x33 JUMPI PUSH0 CALLDATALOAD PUSH1 0xE0 SHR DUP1 PUSH4 0x81871CBC EQ PUSH2 0x37 JUMPI DUP1 PUSH4 0x94CA2CB5 EQ PUSH2 0x73 JUMPI DUP1 PUSH4 0x9C4AE2D0 EQ PUSH2 0xAF JUMPI JUMPDEST PUSH0 DUP1 REVERT JUMPDEST CALLVALUE DUP1 ISZERO PUSH2 0x42 JUMPI PUSH0 DUP1 REVERT JUMPDEST POP PUSH2 0x5D PUSH1 0x4 DUP1 CALLDATASIZE SUB DUP2 ADD SWAP1 PUSH2 0x58 SWAP2 SWAP1 PUSH2 0x287 JUMP JUMPDEST PUSH2 0xCB JUMP JUMPDEST PUSH1 0x40 MLOAD PUSH2 0x6A SWAP2 SWAP1 PUSH2 0x34F JUMP JUMPDEST PUSH1 0x40 MLOAD DUP1 SWAP2 SUB SWAP1 RETURN JUMPDEST CALLVALUE DUP1 ISZERO PUSH2 0x7E JUMPI PUSH0 DUP1 REVERT JUMPDEST POP PUSH2 0x99 PUSH1 0x4 DUP1 CALLDATASIZE SUB DUP2 ADD SWAP1 PUSH2 0x94 SWAP2 SWAP1 PUSH2 0x49B JUMP JUMPDEST PUSH2 0x140 JUMP JUMPDEST PUSH1 0x40 MLOAD PUSH2 0xA6 SWAP2 SWAP1 PUSH2 0x504 JUMP JUMPDEST PUSH1 0x40 MLOAD DUP1 SWAP2 SUB SWAP1 RETURN JUMPDEST PUSH2 0xC9 PUSH1 0x4 DUP1 CALLDATASIZE SUB DUP2 ADD SWAP1 PUSH2 0xC4 SWAP2 SWAP1 PUSH2 0x49B JUMP JUMPDEST PUSH2 0x188 JUMP JUMPDEST STOP JUMPDEST PUSH1 0x60 PUSH0 PUSH1 0x40 MLOAD DUP1 PUSH1 0x20 ADD PUSH2 0xDE SWAP1 PUSH2 0x1DC JUMP JUMPDEST PUSH1 0x20 DUP3 ADD DUP2 SUB DUP3 MSTORE PUSH1 0x1F NOT PUSH1 0x1F DUP3 ADD AND PUSH1 0x40 MSTORE POP SWAP1 POP DUP1 DUP5 DUP5 PUSH1 0x40 MLOAD PUSH1 0x20 ADD PUSH2 0x108 SWAP3 SWAP2 SWAP1 PUSH2 0x52C JUMP JUMPDEST PUSH1 0x40 MLOAD PUSH1 0x20 DUP2 DUP4 SUB SUB DUP2 MSTORE SWAP1 PUSH1 0x40 MSTORE PUSH1 0x40 MLOAD PUSH1 0x20 ADD PUSH2 0x128 SWAP3 SWAP2 SWAP1 PUSH2 0x58D JUMP JUMPDEST PUSH1 0x40 MLOAD PUSH1 0x20 DUP2 DUP4 SUB SUB DUP2 MSTORE SWAP1 PUSH1 0x40 MSTORE SWAP2 POP POP SWAP3 SWAP2 POP POP JUMP JUMPDEST PUSH0 DUP1 PUSH1 0xFF PUSH1 0xF8 SHL ADDRESS DUP5 DUP7 DUP1 MLOAD SWAP1 PUSH1 0x20 ADD KECCAK256 PUSH1 0x40 MLOAD PUSH1 0x20 ADD PUSH2 0x164 SWAP5 SWAP4 SWAP3 SWAP2 SWAP1 PUSH2 0x689 JUMP JUMPDEST PUSH1 0x40 MLOAD PUSH1 0x20 DUP2 DUP4 SUB SUB DUP2 MSTORE SWAP1 PUSH1 0x40 MSTORE DUP1 MLOAD SWAP1 PUSH1 0x20 ADD KECCAK256 SWAP1 POP DUP1 PUSH0 SHR SWAP2 POP POP SWAP3 SWAP2 POP POP JUMP JUMPDEST PUSH0 DUP2 DUP4 MLOAD PUSH1 0x20 DUP6 ADD CALLVALUE CREATE2 SWAP1 POP DUP1 EXTCODESIZE PUSH2 0x19E JUMPI PUSH0 DUP1 REVERT JUMPDEST PUSH32 0xB03C53B28E78A88E31607A27E1FA48234DCE28D5D9D9EC7B295AEB02E674A1E1 DUP2 DUP4 PUSH1 0x40 MLOAD PUSH2 0x1CF SWAP3 SWAP2 SWAP1 PUSH2 0x52C JUMP JUMPDEST PUSH1 0x40 MLOAD DUP1 SWAP2 SUB SWAP1 LOG1 POP POP POP JUMP JUMPDEST PUSH2 0x2DA DUP1 PUSH2 0x6D7 DUP4 CODECOPY ADD SWAP1 JUMP JUMPDEST PUSH0 PUSH1 0x40 MLOAD SWAP1 POP SWAP1 JUMP JUMPDEST PUSH0 DUP1 REVERT JUMPDEST PUSH0 DUP1 REVERT JUMPDEST PUSH0 PUSH20 0xFFFFFFFFFFFFFFFFFFFFFFFFFFFFFFFFFFFFFFFF DUP3 AND SWAP1 POP SWAP2 SWAP1 POP JUMP JUMPDEST PUSH0 PUSH2 0x223 DUP3 PUSH2 0x1FA JUMP JUMPDEST SWAP1 POP SWAP2 SWAP1 POP JUMP JUMPDEST PUSH2 0x233 DUP2 PUSH2 0x219 JUMP JUMPDEST DUP2 EQ PUSH2 0x23D JUMPI PUSH0 DUP1 REVERT JUMPDEST POP JUMP JUMPDEST PUSH0 DUP2 CALLDATALOAD SWAP1 POP PUSH2 0x24E DUP2 PUSH2 0x22A JUMP JUMPDEST SWAP3 SWAP2 POP POP JUMP JUMPDEST PUSH0 DUP2 SWAP1 POP SWAP2 SWAP1 POP JUMP JUMPDEST PUSH2 0x266 DUP2 PUSH2 0x254 JUMP JUMPDEST DUP2 EQ PUSH2 0x270 JUMPI PUSH0 DUP1 REVERT JUMPDEST POP JUMP JUMPDEST PUSH0 DUP2 CALLDATALOAD SWAP1 POP PUSH2 0x281 DUP2 PUSH2 0x25D JUMP JUMPDEST SWAP3 SWAP2 POP POP JUMP JUMPDEST PUSH0 DUP1 PUSH1 0x40 DUP4 DUP6 SUB SLT ISZERO PUSH2 0x29D JUMPI PUSH2 0x29C PUSH2 0x1F2 JUMP JUMPDEST JUMPDEST PUSH0 PUSH2 0x2AA DUP6 DUP3 DUP7 ADD PUSH2 0x240 JUMP JUMPDEST SWAP3 POP POP PUSH1 0x20 PUSH2 0x2BB DUP6 DUP3 DUP7 ADD PUSH2 0x273 JUMP JUMPDEST SWAP2 POP POP SWAP3 POP SWAP3 SWAP1 POP JUMP JUMPDEST PUSH0 DUP2 MLOAD SWAP1 POP SWAP2 SWAP1 POP JUMP JUMPDEST PUSH0 DUP3 DUP3 MSTORE PUSH1 0x20 DUP3 ADD SWAP1 POP SWAP3 SWAP2 POP POP JUMP JUMPDEST PUSH0 JUMPDEST DUP4 DUP2 LT ISZERO PUSH2 0x2FC JUMPI DUP1 DUP3 ADD MLOAD DUP2 DUP5 ADD MSTORE PUSH1 0x20 DUP2 ADD SWAP1 POP PUSH2 0x2E1 JUMP JUMPDEST PUSH0 DUP5 DUP5 ADD MSTORE POP POP POP POP JUMP JUMPDEST PUSH0 PUSH1 0x1F NOT PUSH1 0x1F DUP4 ADD AND SWAP1 POP SWAP2 SWAP1 POP JUMP JUMPDEST PUSH0 PUSH2 0x321 DUP3 PUSH2 0x2C5 JUMP JUMPDEST PUSH2 0x32B DUP2 DUP6 PUSH2 0x2CF JUMP JUMPDEST SWAP4 POP PUSH2 0x33B DUP2 DUP6 PUSH1 0x20 DUP7 ADD PUSH2 0x2DF JUMP JUMPDEST PUSH2 0x344 DUP2 PUSH2 0x307 JUMP JUMPDEST DUP5 ADD SWAP2 POP POP SWAP3 SWAP2 POP POP JUMP JUMPDEST PUSH0 PUSH1 0x20 DUP3 ADD SWAP1 POP DUP2 DUP2 SUB PUSH0 DUP4 ADD MSTORE PUSH2 0x367 DUP2 DUP5 PUSH2 0x317 JUMP JUMPDEST SWAP1 POP SWAP3 SWAP2 POP POP JUMP JUMPDEST PUSH0 DUP1 REVERT JUMPDEST PUSH0 DUP1 REVERT JUMPDEST PUSH32 0x4E487B7100000000000000000000000000000000000000000000000000000000 PUSH0 MSTORE PUSH1 0x41 PUSH1 0x4 MSTORE PUSH1 0x24 PUSH0 REVERT JUMPDEST PUSH2 0x3AD DUP3 PUSH2 0x307 JUMP JUMPDEST DUP2 ADD DUP2 DUP2 LT PUSH8 0xFFFFFFFFFFFFFFFF DUP3 GT OR ISZERO PUSH2 0x3CC JUMPI PUSH2 0x3CB PUSH2 0x377 JUMP JUMPDEST JUMPDEST DUP1 PUSH1 0x40 MSTORE POP POP POP JUMP JUMPDEST PUSH0 PUSH2 0x3DE PUSH2 0x1E9 JUMP JUMPDEST SWAP1 POP PUSH2 0x3EA DUP3 DUP3 PUSH2 0x3A4 JUMP JUMPDEST SWAP2 SWAP1 POP JUMP JUMPDEST PUSH0 PUSH8 0xFFFFFFFFFFFFFFFF DUP3 GT ISZERO PUSH2 0x409 JUMPI PUSH2 0x408 PUSH2 0x377 JUMP JUMPDEST JUMPDEST PUSH2 0x412 DUP3 PUSH2 0x307 JUMP JUMPDEST SWAP1 POP PUSH1 0x20 DUP2 ADD SWAP1 POP SWAP2 SWAP1 POP JUMP JUMPDEST DUP3 DUP2 DUP4 CALLDATACOPY PUSH0 DUP4 DUP4 ADD MSTORE POP POP POP JUMP JUMPDEST PUSH0 PUSH2 0x43F PUSH2 0x43A DUP5 PUSH2 0x3EF JUMP JUMPDEST PUSH2 0x3D5 JUMP JUMPDEST SWAP1 POP DUP3 DUP2 MSTORE PUSH1 0x20 DUP2 ADD DUP5 DUP5 DUP5 ADD GT ISZERO PUSH2 0x45B JUMPI PUSH2 0x45A PUSH2 0x373 JUMP JUMPDEST JUMPDEST PUSH2 0x466 DUP5 DUP3 DUP6 PUSH2 0x41F JUMP JUMPDEST POP SWAP4 SWAP3 POP POP POP JUMP JUMPDEST PUSH0 DUP3 PUSH1 0x1F DUP4 ADD SLT PUSH2 0x482 JUMPI PUSH2 0x481 PUSH2 0x36F JUMP JUMPDEST JUMPDEST DUP2 CALLDATALOAD PUSH2 0x492 DUP5 DUP3 PUSH1 0x20 DUP7 ADD PUSH2 0x42D JUMP JUMPDEST SWAP2 POP POP SWAP3 SWAP2 POP POP JUMP JUMPDEST PUSH0 DUP1 PUSH1 0x40 DUP4 DUP6 SUB SLT ISZERO PUSH2 0x4B1 JUMPI PUSH2 0x4B0 PUSH2 0x1F2 JUMP JUMPDEST JUMPDEST PUSH0 DUP4 ADD CALLDATALOAD PUSH8 0xFFFFFFFFFFFFFFFF DUP2 GT ISZERO PUSH2 0x4CE JUMPI PUSH2 0x4CD PUSH2 0x1F6 JUMP JUMPDEST JUMPDEST PUSH2 0x4DA DUP6 DUP3 DUP7 ADD PUSH2 0x46E JUMP JUMPDEST SWAP3 POP POP PUSH1 0x20 PUSH2 0x4EB DUP6 DUP3 DUP7 ADD PUSH2 0x273 JUMP JUMPDEST SWAP2 POP POP SWAP3 POP SWAP3 SWAP1 POP JUMP JUMPDEST PUSH2 0x4FE DUP2 PUSH2 0x219 JUMP JUMPDEST DUP3 MSTORE POP POP JUMP JUMPDEST PUSH0 PUSH1 0x20 DUP3 ADD SWAP1 POP PUSH2 0x517 PUSH0 DUP4 ADD DUP5 PUSH2 0x4F5 JUMP JUMPDEST SWAP3 SWAP2 POP POP JUMP JUMPDEST PUSH2 0x526 DUP2 PUSH2 0x254 JUMP JUMPDEST DUP3 MSTORE POP POP JUMP JUMPDEST PUSH0 PUSH1 0x40 DUP3 ADD SWAP1 POP PUSH2 0x53F PUSH0 DUP4 ADD DUP6 PUSH2 0x4F5 JUMP JUMPDEST PUSH2 0x54C PUSH1 0x20 DUP4 ADD DUP5 PUSH2 0x51D JUMP JUMPDEST SWAP4 SWAP3 POP POP POP JUMP JUMPDEST PUSH0 DUP2 SWAP1 POP SWAP3 SWAP2 POP POP JUMP JUMPDEST PUSH0 PUSH2 0x567 DUP3 PUSH2 0x2C5 JUMP JUMPDEST PUSH2 0x571 DUP2 DUP6 PUSH2 0x553 JUMP JUMPDEST SWAP4 POP PUSH2 0x581 DUP2 DUP6 PUSH1 0x20 DUP7 ADD PUSH2 0x2DF JUMP JUMPDEST DUP1 DUP5 ADD SWAP2 POP POP SWAP3 SWAP2 POP POP JUMP JUMPDEST PUSH0 PUSH2 0x598 DUP3 DUP6 PUSH2 0x55D JUMP JUMPDEST SWAP2 POP PUSH2 0x5A4 DUP3 DUP5 PUSH2 0x55D JUMP JUMPDEST SWAP2 POP DUP2 SWAP1 POP SWAP4 SWAP3 POP POP POP JUMP JUMPDEST PUSH0 PUSH32 0xFF00000000000000000000000000000000000000000000000000000000000000 DUP3 AND SWAP1 POP SWAP2 SWAP1 POP JUMP JUMPDEST PUSH0 DUP2 SWAP1 POP SWAP2 SWAP1 POP JUMP JUMPDEST PUSH2 0x5F5 PUSH2 0x5F0 DUP3 PUSH2 0x5B0 JUMP JUMPDEST PUSH2 0x5DB JUMP JUMPDEST DUP3 MSTORE POP POP JUMP JUMPDEST PUSH0 DUP2 PUSH1 0x60 SHL SWAP1 POP SWAP2 SWAP1 POP JUMP JUMPDEST PUSH0 PUSH2 0x611 DUP3 PUSH2 0x5FB JUMP JUMPDEST SWAP1 POP SWAP2 SWAP1 POP JUMP JUMPDEST PUSH0 PUSH2 0x622 DUP3 PUSH2 0x607 JUMP JUMPDEST SWAP1 POP SWAP2 SWAP1 POP JUMP JUMPDEST PUSH2 0x63A PUSH2 0x635 DUP3 PUSH2 0x219 JUMP JUMPDEST PUSH2 0x618 JUMP JUMPDEST DUP3 MSTORE POP POP JUMP JUMPDEST PUSH0 DUP2 SWAP1 POP SWAP2 SWAP1 POP JUMP JUMPDEST PUSH2 0x65A PUSH2 0x655 DUP3 PUSH2 0x254 JUMP JUMPDEST PUSH2 0x640 JUMP JUMPDEST DUP3 MSTORE POP POP JUMP JUMPDEST PUSH0 DUP2 SWAP1 POP SWAP2 SWAP1 POP JUMP JUMPDEST PUSH0 DUP2 SWAP1 POP SWAP2 SWAP1 POP JUMP JUMPDEST PUSH2 0x683 PUSH2 0x67E DUP3 PUSH2 0x660 JUMP JUMPDEST PUSH2 0x669 JUMP JUMPDEST DUP3 MSTORE POP POP JUMP JUMPDEST PUSH0 PUSH2 0x694 DUP3 DUP8 PUSH2 0x5E4 JUMP JUMPDEST PUSH1 0x1 DUP3 ADD SWAP2 POP PUSH2 0x6A4 DUP3 DUP7 PUSH2 0x629 JUMP JUMPDEST PUSH1 0x14 DUP3 ADD SWAP2 POP PUSH2 0x6B4 DUP3 DUP6 PUSH2 0x649 JUMP JUMPDEST PUSH1 0x20 DUP3 ADD SWAP2 POP PUSH2 0x6C4 DUP3 DUP5 PUSH2 0x672 JUMP JUMPDEST PUSH1 0x20 DUP3 ADD SWAP2 POP DUP2 SWAP1 POP SWAP6 SWAP5 POP POP POP POP POP JUMP INVALID PUSH1 0x80 PUSH1 0x40 MSTORE PUSH1 0x40 MLOAD PUSH2 0x2DA CODESIZE SUB DUP1 PUSH2 0x2DA DUP4 CODECOPY DUP2 DUP2 ADD PUSH1 0x40 MSTORE DUP2 ADD SWAP1 PUSH2 0x25 SWAP2 SWAP1 PUSH2 0x103 JUMP JUMPDEST DUP2 PUSH0 DUP1 PUSH2 0x100 EXP DUP2 SLOAD DUP2 PUSH20 0xFFFFFFFFFFFFFFFFFFFFFFFFFFFFFFFFFFFFFFFF MUL NOT AND SWAP1 DUP4 PUSH20 0xFFFFFFFFFFFFFFFFFFFFFFFFFFFFFFFFFFFFFFFF AND MUL OR SWAP1 SSTORE POP DUP1 PUSH1 0x1 DUP2 SWAP1 SSTORE POP POP POP PUSH2 0x141 JUMP JUMPDEST PUSH0 DUP1 REVERT JUMPDEST PUSH0 PUSH20 0xFFFFFFFFFFFFFFFFFFFFFFFFFFFFFFFFFFFFFFFF DUP3 AND SWAP1 POP SWAP2 SWAP1 POP JUMP JUMPDEST PUSH0 PUSH2 0x9F DUP3 PUSH2 0x76 JUMP JUMPDEST SWAP1 POP SWAP2 SWAP1 POP JUMP JUMPDEST PUSH2 0xAF DUP2 PUSH2 0x95 JUMP JUMPDEST DUP2 EQ PUSH2 0xB9 JUMPI PUSH0 DUP1 REVERT JUMPDEST POP JUMP JUMPDEST PUSH0 DUP2 MLOAD SWAP1 POP PUSH2 0xCA DUP2 PUSH2 0xA6 JUMP JUMPDEST SWAP3 SWAP2 POP POP JUMP JUMPDEST PUSH0 DUP2 SWAP1 POP SWAP2 SWAP1 POP JUMP JUMPDEST PUSH2 0xE2 DUP2 PUSH2 0xD0 JUMP JUMPDEST DUP2 EQ PUSH2 0xEC JUMPI PUSH0 DUP1 REVERT JUMPDEST POP JUMP JUMPDEST PUSH0 DUP2 MLOAD SWAP1 POP PUSH2 0xFD DUP2 PUSH2 0xD9 JUMP JUMPDEST SWAP3 SWAP2 POP POP JUMP JUMPDEST PUSH0 DUP1 PUSH1 0x40 DUP4 DUP6 SUB SLT ISZERO PUSH2 0x119 JUMPI PUSH2 0x118 PUSH2 0x72 JUMP JUMPDEST JUMPDEST PUSH0 PUSH2 0x126 DUP6 DUP3 DUP7 ADD PUSH2 0xBC JUMP JUMPDEST SWAP3 POP POP PUSH1 0x20 PUSH2 0x137 DUP6 DUP3 DUP7 ADD PUSH2 0xEF JUMP JUMPDEST SWAP2 POP POP SWAP3 POP SWAP3 SWAP1 POP JUMP JUMPDEST PUSH2 0x18C DUP1 PUSH2 0x14E PUSH0 CODECOPY PUSH0 RETURN INVALID PUSH1 0x80 PUSH1 0x40 MSTORE CALLVALUE DUP1 ISZERO PUSH2 0xF JUMPI PUSH0 DUP1 REVERT JUMPDEST POP PUSH1 0x4 CALLDATASIZE LT PUSH2 0x3F JUMPI PUSH0 CALLDATALOAD PUSH1 0xE0 SHR DUP1 PUSH4 0x12065FE0 EQ PUSH2 0x43 JUMPI DUP1 PUSH4 0x8DA5CB5B EQ PUSH2 0x61 JUMPI DUP1 PUSH4 0xC2985578 EQ PUSH2 0x7F JUMPI JUMPDEST PUSH0 DUP1 REVERT JUMPDEST PUSH2 0x4B PUSH2 0x9D JUMP JUMPDEST PUSH1 0x40 MLOAD PUSH2 0x58 SWAP2 SWAP1 PUSH2 0xE5 JUMP JUMPDEST PUSH1 0x40 MLOAD DUP1 SWAP2 SUB SWAP1 RETURN JUMPDEST PUSH2 0x69 PUSH2 0xA4 JUMP JUMPDEST PUSH1 0x40 MLOAD PUSH2 0x76 SWAP2 SWAP1 PUSH2 0x13D JUMP JUMPDEST PUSH1 0x40 MLOAD DUP1 SWAP2 SUB SWAP1 RETURN JUMPDEST PUSH2 0x87 PUSH2 0xC7 JUMP JUMPDEST PUSH1 0x40 MLOAD PUSH2 0x94 SWAP2 SWAP1 PUSH2 0xE5 JUMP JUMPDEST PUSH1 0x40 MLOAD DUP1 SWAP2 SUB SWAP1 RETURN JUMPDEST PUSH0 SELFBALANCE SWAP1 POP SWAP1 JUMP JUMPDEST PUSH0 DUP1 SLOAD SWAP1 PUSH2 0x100 EXP SWAP1 DIV PUSH20 0xFFFFFFFFFFFFFFFFFFFFFFFFFFFFFFFFFFFFFFFF AND DUP2 JUMP JUMPDEST PUSH1 0x1 SLOAD DUP2 JUMP JUMPDEST PUSH0 DUP2 SWAP1 POP SWAP2 SWAP1 POP JUMP JUMPDEST PUSH2 0xDF DUP2 PUSH2 0xCD JUMP JUMPDEST DUP3 MSTORE POP POP JUMP JUMPDEST PUSH0 PUSH1 0x20 DUP3 ADD SWAP1 POP PUSH2 0xF8 PUSH0 DUP4 ADD DUP5 PUSH2 0xD6 JUMP JUMPDEST SWAP3 SWAP2 POP POP JUMP JUMPDEST PUSH0 PUSH20 0xFFFFFFFFFFFFFFFFFFFFFFFFFFFFFFFFFFFFFFFF DUP3 AND SWAP1 POP SWAP2 SWAP1 POP JUMP JUMPDEST PUSH0 PUSH2 0x127 DUP3 PUSH2 0xFE JUMP JUMPDEST SWAP1 POP SWAP2 SWAP1 POP JUMP JUMPDEST PUSH2 0x137 DUP2 PUSH2 0x11D JUMP JUMPDEST DUP3 MSTORE POP POP JUMP JUMPDEST PUSH0 PUSH1 0x20 DUP3 ADD SWAP1 POP PUSH2 0x150 PUSH0 DUP4 ADD DUP5 PUSH2 0x12E JUMP JUMPDEST SWAP3 SWAP2 POP POP JUMP INVALID LOG2 PUSH5 0x6970667358 0x22 SLT KECCAK256 CALLDATASIZE 0x2E SELFBALANCE SWAP7 DUP2 STOP 0xE4 0x4B CALLCODE 0xA9 SDIV MOD CODECOPY DUP12 CALLDATALOAD 0xFB 0x4A TIMESTAMP MOD 0xA9 0xCF 0x5E 0xB0 0xAA BLOCKHASH DUP7 EXP PUSH2 0xD8CA PUSH12 0x9064736F6C63430008160033 LOG2 PUSH5 0x6970667358 0x22 SLT KECCAK256 0x2D SWAP8 SHR 0xD6 PUSH16 0xD76BFE3270837E600D18FDC3C66E981 CALLDATALOAD PUSH8 0xEECF21BE0F4BC6A1 PUSH1 0x64 PUSH20 0x6F6C634300081600330000000000000000000000 "
				},
				"gasEstimates": {
					"creation": {
						"codeDepositCost": "506800",
						"executionCost": "541",
						"totalCost": "507341"
					},
					"external": {
						"deploy(bytes,uint256)": "infinite",
						"getAddress(bytes,uint256)": "infinite",
						"getBytecode(address,uint256)": "infinite"
					}
				},
				"methodIdentifiers": {
					"deploy(bytes,uint256)": "9c4ae2d0",
					"getAddress(bytes,uint256)": "94ca2cb5",
					"getBytecode(address,uint256)": "81871cbc"
				}
			},
			"storageLayout": {
				"storage": [],
				"types": null
			},
			"userdoc": {
				"kind": "user",
				"methods": {},
				"version": 1
			}
		}
	}
}