{
	"contracts/Applications/UpgradeableProxy.sol": {
		"Proxy": {
			"abi": [
				{
					"inputs": [],
					"stateMutability": "nonpayable",
					"type": "constructor"
				},
				{
					"stateMutability": "payable",
					"type": "fallback"
				},
				{
					"inputs": [],
					"name": "admin",
					"outputs": [
						{
							"internalType": "address",
							"name": "",
							"type": "address"
						}
					],
					"stateMutability": "nonpayable",
					"type": "function"
				},
				{
					"inputs": [
						{
							"internalType": "address",
							"name": "_admin",
							"type": "address"
						}
					],
					"name": "changeAdmin",
					"outputs": [],
					"stateMutability": "nonpayable",
					"type": "function"
				},
				{
					"inputs": [],
					"name": "implementation",
					"outputs": [
						{
							"internalType": "address",
							"name": "",
							"type": "address"
						}
					],
					"stateMutability": "nonpayable",
					"type": "function"
				},
				{
					"inputs": [
						{
							"internalType": "address",
							"name": "_implementation",
							"type": "address"
						}
					],
					"name": "upgradeTo",
					"outputs": [],
					"stateMutability": "nonpayable",
					"type": "function"
				},
				{
					"stateMutability": "payable",
					"type": "receive"
				}
			],
			"devdoc": {
				"kind": "dev",
				"methods": {},
				"version": 1
			},
			"evm": {
				"assembly": "    /* \"contracts/Applications/UpgradeableProxy.sol\":1180:5026  contract Proxy {... */\n  mstore(0x40, 0x80)\n    /* \"contracts/Applications/UpgradeableProxy.sol\":1688:1740  constructor() {... */\n  callvalue\n  dup1\n  iszero\n  tag_1\n  jumpi\n  0x00\n  dup1\n  revert\ntag_1:\n  pop\n    /* \"contracts/Applications/UpgradeableProxy.sol\":1712:1733  _setAdmin(msg.sender) */\n  tag_4\n    /* \"contracts/Applications/UpgradeableProxy.sol\":1722:1732  msg.sender */\n  caller\n    /* \"contracts/Applications/UpgradeableProxy.sol\":1712:1721  _setAdmin */\n  shl(0x20, tag_5)\n    /* \"contracts/Applications/UpgradeableProxy.sol\":1712:1733  _setAdmin(msg.sender) */\n  0x20\n  shr\n  jump\t// in\ntag_4:\n    /* \"contracts/Applications/UpgradeableProxy.sol\":1180:5026  contract Proxy {... */\n  jump(tag_6)\n    /* \"contracts/Applications/UpgradeableProxy.sol\":2012:2188  function _setAdmin(address _admin) private {... */\ntag_5:\n    /* \"contracts/Applications/UpgradeableProxy.sol\":2091:2092  0 */\n  0x00\n    /* \"contracts/Applications/UpgradeableProxy.sol\":2073:2093  _admin != address(0) */\n  0xffffffffffffffffffffffffffffffffffffffff\n  and\n    /* \"contracts/Applications/UpgradeableProxy.sol\":2073:2079  _admin */\n  dup2\n    /* \"contracts/Applications/UpgradeableProxy.sol\":2073:2093  _admin != address(0) */\n  0xffffffffffffffffffffffffffffffffffffffff\n  and\n  sub\n    /* \"contracts/Applications/UpgradeableProxy.sol\":2065:2118  require(_admin != address(0), \"admin = zero address\") */\n  tag_8\n  jumpi\n  mload(0x40)\n  0x08c379a000000000000000000000000000000000000000000000000000000000\n  dup2\n  mstore\n  0x04\n  add\n  tag_9\n  swap1\n  tag_10\n  jump\t// in\ntag_9:\n  mload(0x40)\n  dup1\n  swap2\n  sub\n  swap1\n  revert\ntag_8:\n    /* \"contracts/Applications/UpgradeableProxy.sol\":2175:2181  _admin */\n  dup1\n    /* \"contracts/Applications/UpgradeableProxy.sol\":2128:2166  StorageSlot.getAddressSlot(ADMIN_SLOT) */\n  tag_11\n    /* \"contracts/Applications/UpgradeableProxy.sol\":1679:1680  1 */\n  0x01\n    /* \"contracts/Applications/UpgradeableProxy.sol\":1643:1675  keccak256(\"eip1967.proxy.admin\") */\n  0xb53127684a568b3173ae13b9f8a6016e243e63b6e8ee1178d6a717850b5d6104\n    /* \"contracts/Applications/UpgradeableProxy.sol\":1638:1676  uint(keccak256(\"eip1967.proxy.admin\")) */\n  0x00\n  shr\n    /* \"contracts/Applications/UpgradeableProxy.sol\":1638:1680  uint(keccak256(\"eip1967.proxy.admin\")) - 1 */\n  tag_12\n  swap2\n  swap1\n  tag_13\n  jump\t// in\ntag_12:\n    /* \"contracts/Applications/UpgradeableProxy.sol\":1630:1681  bytes32(uint(keccak256(\"eip1967.proxy.admin\")) - 1) */\n  0x00\n  shl\n    /* \"contracts/Applications/UpgradeableProxy.sol\":2128:2154  StorageSlot.getAddressSlot */\n  shl(0x20, tag_14)\n    /* \"contracts/Applications/UpgradeableProxy.sol\":2128:2166  StorageSlot.getAddressSlot(ADMIN_SLOT) */\n  0x20\n  shr\n  jump\t// in\ntag_11:\n    /* \"contracts/Applications/UpgradeableProxy.sol\":2128:2172  StorageSlot.getAddressSlot(ADMIN_SLOT).value */\n  0x00\n  add\n  0x00\n    /* \"contracts/Applications/UpgradeableProxy.sol\":2128:2181  StorageSlot.getAddressSlot(ADMIN_SLOT).value = _admin */\n  0x0100\n  exp\n  dup2\n  sload\n  dup2\n  0xffffffffffffffffffffffffffffffffffffffff\n  mul\n  not\n  and\n  swap1\n  dup4\n  0xffffffffffffffffffffffffffffffffffffffff\n  and\n  mul\n  or\n  swap1\n  sstore\n  pop\n    /* \"contracts/Applications/UpgradeableProxy.sol\":2012:2188  function _setAdmin(address _admin) private {... */\n  pop\n  jump\t// out\n    /* \"contracts/Applications/UpgradeableProxy.sol\":6134:6295  function getAddressSlot(... */\ntag_14:\n    /* \"contracts/Applications/UpgradeableProxy.sol\":6209:6230  AddressSlot storage r */\n  0x00\n    /* \"contracts/Applications/UpgradeableProxy.sol\":6275:6279  slot */\n  dup2\n    /* \"contracts/Applications/UpgradeableProxy.sol\":6265:6279  r.slot := slot */\n  swap1\n  pop\n    /* \"contracts/Applications/UpgradeableProxy.sol\":6134:6295  function getAddressSlot(... */\n  swap2\n  swap1\n  pop\n  jump\t// out\n    /* \"#utility.yul\":7:176   */\ntag_16:\n    /* \"#utility.yul\":91:102   */\n  0x00\n    /* \"#utility.yul\":125:131   */\n  dup3\n    /* \"#utility.yul\":120:123   */\n  dup3\n    /* \"#utility.yul\":113:132   */\n  mstore\n    /* \"#utility.yul\":165:169   */\n  0x20\n    /* \"#utility.yul\":160:163   */\n  dup3\n    /* \"#utility.yul\":156:170   */\n  add\n    /* \"#utility.yul\":141:170   */\n  swap1\n  pop\n    /* \"#utility.yul\":7:176   */\n  swap3\n  swap2\n  pop\n  pop\n  jump\t// out\n    /* \"#utility.yul\":182:352   */\ntag_17:\n    /* \"#utility.yul\":322:344   */\n  0x61646d696e203d207a65726f2061646472657373000000000000000000000000\n    /* \"#utility.yul\":318:319   */\n  0x00\n    /* \"#utility.yul\":310:316   */\n  dup3\n    /* \"#utility.yul\":306:320   */\n  add\n    /* \"#utility.yul\":299:345   */\n  mstore\n    /* \"#utility.yul\":182:352   */\n  pop\n  jump\t// out\n    /* \"#utility.yul\":358:724   */\ntag_18:\n    /* \"#utility.yul\":500:503   */\n  0x00\n    /* \"#utility.yul\":521:588   */\n  tag_25\n    /* \"#utility.yul\":585:587   */\n  0x14\n    /* \"#utility.yul\":580:583   */\n  dup4\n    /* \"#utility.yul\":521:588   */\n  tag_16\n  jump\t// in\ntag_25:\n    /* \"#utility.yul\":514:588   */\n  swap2\n  pop\n    /* \"#utility.yul\":597:690   */\n  tag_26\n    /* \"#utility.yul\":686:689   */\n  dup3\n    /* \"#utility.yul\":597:690   */\n  tag_17\n  jump\t// in\ntag_26:\n    /* \"#utility.yul\":715:717   */\n  0x20\n    /* \"#utility.yul\":710:713   */\n  dup3\n    /* \"#utility.yul\":706:718   */\n  add\n    /* \"#utility.yul\":699:718   */\n  swap1\n  pop\n    /* \"#utility.yul\":358:724   */\n  swap2\n  swap1\n  pop\n  jump\t// out\n    /* \"#utility.yul\":730:1149   */\ntag_10:\n    /* \"#utility.yul\":896:900   */\n  0x00\n    /* \"#utility.yul\":934:936   */\n  0x20\n    /* \"#utility.yul\":923:932   */\n  dup3\n    /* \"#utility.yul\":919:937   */\n  add\n    /* \"#utility.yul\":911:937   */\n  swap1\n  pop\n    /* \"#utility.yul\":983:992   */\n  dup2\n    /* \"#utility.yul\":977:981   */\n  dup2\n    /* \"#utility.yul\":973:993   */\n  sub\n    /* \"#utility.yul\":969:970   */\n  0x00\n    /* \"#utility.yul\":958:967   */\n  dup4\n    /* \"#utility.yul\":954:971   */\n  add\n    /* \"#utility.yul\":947:994   */\n  mstore\n    /* \"#utility.yul\":1011:1142   */\n  tag_28\n    /* \"#utility.yul\":1137:1141   */\n  dup2\n    /* \"#utility.yul\":1011:1142   */\n  tag_18\n  jump\t// in\ntag_28:\n    /* \"#utility.yul\":1003:1142   */\n  swap1\n  pop\n    /* \"#utility.yul\":730:1149   */\n  swap2\n  swap1\n  pop\n  jump\t// out\n    /* \"#utility.yul\":1155:1232   */\ntag_19:\n    /* \"#utility.yul\":1192:1199   */\n  0x00\n    /* \"#utility.yul\":1221:1226   */\n  dup2\n    /* \"#utility.yul\":1210:1226   */\n  swap1\n  pop\n    /* \"#utility.yul\":1155:1232   */\n  swap2\n  swap1\n  pop\n  jump\t// out\n    /* \"#utility.yul\":1238:1418   */\ntag_20:\n    /* \"#utility.yul\":1286:1363   */\n  0x4e487b7100000000000000000000000000000000000000000000000000000000\n    /* \"#utility.yul\":1283:1284   */\n  0x00\n    /* \"#utility.yul\":1276:1364   */\n  mstore\n    /* \"#utility.yul\":1383:1387   */\n  0x11\n    /* \"#utility.yul\":1380:1381   */\n  0x04\n    /* \"#utility.yul\":1373:1388   */\n  mstore\n    /* \"#utility.yul\":1407:1411   */\n  0x24\n    /* \"#utility.yul\":1404:1405   */\n  0x00\n    /* \"#utility.yul\":1397:1412   */\n  revert\n    /* \"#utility.yul\":1424:1618   */\ntag_13:\n    /* \"#utility.yul\":1464:1468   */\n  0x00\n    /* \"#utility.yul\":1484:1504   */\n  tag_32\n    /* \"#utility.yul\":1502:1503   */\n  dup3\n    /* \"#utility.yul\":1484:1504   */\n  tag_19\n  jump\t// in\ntag_32:\n    /* \"#utility.yul\":1479:1504   */\n  swap2\n  pop\n    /* \"#utility.yul\":1518:1538   */\n  tag_33\n    /* \"#utility.yul\":1536:1537   */\n  dup4\n    /* \"#utility.yul\":1518:1538   */\n  tag_19\n  jump\t// in\ntag_33:\n    /* \"#utility.yul\":1513:1538   */\n  swap3\n  pop\n    /* \"#utility.yul\":1562:1563   */\n  dup3\n    /* \"#utility.yul\":1559:1560   */\n  dup3\n    /* \"#utility.yul\":1555:1564   */\n  sub\n    /* \"#utility.yul\":1547:1564   */\n  swap1\n  pop\n    /* \"#utility.yul\":1586:1587   */\n  dup2\n    /* \"#utility.yul\":1580:1584   */\n  dup2\n    /* \"#utility.yul\":1577:1588   */\n  gt\n    /* \"#utility.yul\":1574:1611   */\n  iszero\n  tag_34\n  jumpi\n    /* \"#utility.yul\":1591:1609   */\n  tag_35\n  tag_20\n  jump\t// in\ntag_35:\n    /* \"#utility.yul\":1574:1611   */\ntag_34:\n    /* \"#utility.yul\":1424:1618   */\n  swap3\n  swap2\n  pop\n  pop\n  jump\t// out\n    /* \"contracts/Applications/UpgradeableProxy.sol\":1180:5026  contract Proxy {... */\ntag_6:\n  dataSize(sub_0)\n  dup1\n  dataOffset(sub_0)\n  0x00\n  codecopy\n  0x00\n  return\nstop\n\nsub_0: assembly {\n        /* \"contracts/Applications/UpgradeableProxy.sol\":1180:5026  contract Proxy {... */\n      mstore(0x40, 0x80)\n      jumpi(tag_1, lt(calldatasize, 0x04))\n      shr(0xe0, calldataload(0x00))\n      dup1\n      0x3659cfe6\n      eq\n      tag_3\n      jumpi\n      dup1\n      0x5c60da1b\n      eq\n      tag_4\n      jumpi\n      dup1\n      0x8f283970\n      eq\n      tag_5\n      jumpi\n      dup1\n      0xf851a440\n      eq\n      tag_6\n      jumpi\n      jump(tag_2)\n    tag_1:\n      jumpi(tag_2, calldatasize)\n        /* \"contracts/Applications/UpgradeableProxy.sol\":5006:5017  _fallback() */\n      tag_9\n        /* \"contracts/Applications/UpgradeableProxy.sol\":5006:5015  _fallback */\n      tag_10\n        /* \"contracts/Applications/UpgradeableProxy.sol\":5006:5017  _fallback() */\n      jump\t// in\n    tag_9:\n        /* \"contracts/Applications/UpgradeableProxy.sol\":1180:5026  contract Proxy {... */\n      stop\n    tag_2:\n        /* \"contracts/Applications/UpgradeableProxy.sol\":4945:4956  _fallback() */\n      tag_13\n        /* \"contracts/Applications/UpgradeableProxy.sol\":4945:4954  _fallback */\n      tag_10\n        /* \"contracts/Applications/UpgradeableProxy.sol\":4945:4956  _fallback() */\n      jump\t// in\n    tag_13:\n        /* \"contracts/Applications/UpgradeableProxy.sol\":1180:5026  contract Proxy {... */\n      stop\n        /* \"contracts/Applications/UpgradeableProxy.sol\":2715:2828  function upgradeTo(address _implementation) external ifAdmin {... */\n    tag_3:\n      callvalue\n      dup1\n      iszero\n      tag_14\n      jumpi\n      0x00\n      dup1\n      revert\n    tag_14:\n      pop\n      tag_15\n      0x04\n      dup1\n      calldatasize\n      sub\n      dup2\n      add\n      swap1\n      tag_16\n      swap2\n      swap1\n      tag_17\n      jump\t// in\n    tag_16:\n      tag_18\n      jump\t// in\n    tag_15:\n      stop\n        /* \"contracts/Applications/UpgradeableProxy.sol\":2963:3068  function implementation() external ifAdmin returns (address) {... */\n    tag_4:\n      callvalue\n      dup1\n      iszero\n      tag_19\n      jumpi\n      0x00\n      dup1\n      revert\n    tag_19:\n      pop\n      tag_20\n      tag_21\n      jump\t// in\n    tag_20:\n      mload(0x40)\n      tag_22\n      swap2\n      swap1\n      tag_23\n      jump\t// in\n    tag_22:\n      mload(0x40)\n      dup1\n      swap2\n      sub\n      swap1\n      return\n        /* \"contracts/Applications/UpgradeableProxy.sol\":2603:2691  function changeAdmin(address _admin) external ifAdmin {... */\n    tag_5:\n      callvalue\n      dup1\n      iszero\n      tag_24\n      jumpi\n      0x00\n      dup1\n      revert\n    tag_24:\n      pop\n      tag_25\n      0x04\n      dup1\n      calldatasize\n      sub\n      dup2\n      add\n      swap1\n      tag_26\n      swap2\n      swap1\n      tag_17\n      jump\t// in\n    tag_26:\n      tag_27\n      jump\t// in\n    tag_25:\n      stop\n        /* \"contracts/Applications/UpgradeableProxy.sol\":2852:2939  function admin() external ifAdmin returns (address) {... */\n    tag_6:\n      callvalue\n      dup1\n      iszero\n      tag_28\n      jumpi\n      0x00\n      dup1\n      revert\n    tag_28:\n      pop\n      tag_29\n      tag_30\n      jump\t// in\n    tag_29:\n      mload(0x40)\n      tag_31\n      swap2\n      swap1\n      tag_23\n      jump\t// in\n    tag_31:\n      mload(0x40)\n      dup1\n      swap2\n      sub\n      swap1\n      return\n        /* \"contracts/Applications/UpgradeableProxy.sol\":4824:4901  function _fallback() private {... */\n    tag_10:\n        /* \"contracts/Applications/UpgradeableProxy.sol\":4863:4894  _delegate(_getImplementation()) */\n      tag_33\n        /* \"contracts/Applications/UpgradeableProxy.sol\":4873:4893  _getImplementation() */\n      tag_34\n        /* \"contracts/Applications/UpgradeableProxy.sol\":4873:4891  _getImplementation */\n      tag_35\n        /* \"contracts/Applications/UpgradeableProxy.sol\":4873:4893  _getImplementation() */\n      jump\t// in\n    tag_34:\n        /* \"contracts/Applications/UpgradeableProxy.sol\":4863:4872  _delegate */\n      tag_36\n        /* \"contracts/Applications/UpgradeableProxy.sol\":4863:4894  _delegate(_getImplementation()) */\n      jump\t// in\n    tag_33:\n        /* \"contracts/Applications/UpgradeableProxy.sol\":4824:4901  function _fallback() private {... */\n      jump\t// out\n        /* \"contracts/Applications/UpgradeableProxy.sol\":2715:2828  function upgradeTo(address _implementation) external ifAdmin {... */\n    tag_18:\n        /* \"contracts/Applications/UpgradeableProxy.sol\":1793:1804  _getAdmin() */\n      tag_38\n        /* \"contracts/Applications/UpgradeableProxy.sol\":1793:1802  _getAdmin */\n      tag_39\n        /* \"contracts/Applications/UpgradeableProxy.sol\":1793:1804  _getAdmin() */\n      jump\t// in\n    tag_38:\n        /* \"contracts/Applications/UpgradeableProxy.sol\":1779:1804  msg.sender == _getAdmin() */\n      0xffffffffffffffffffffffffffffffffffffffff\n      and\n        /* \"contracts/Applications/UpgradeableProxy.sol\":1779:1789  msg.sender */\n      caller\n        /* \"contracts/Applications/UpgradeableProxy.sol\":1779:1804  msg.sender == _getAdmin() */\n      0xffffffffffffffffffffffffffffffffffffffff\n      and\n      sub\n        /* \"contracts/Applications/UpgradeableProxy.sol\":1775:1874  if (msg.sender == _getAdmin()) {... */\n      tag_40\n      jumpi\n        /* \"contracts/Applications/UpgradeableProxy.sol\":2786:2821  _setImplementation(_implementation) */\n      tag_42\n        /* \"contracts/Applications/UpgradeableProxy.sol\":2805:2820  _implementation */\n      dup2\n        /* \"contracts/Applications/UpgradeableProxy.sol\":2786:2804  _setImplementation */\n      tag_43\n        /* \"contracts/Applications/UpgradeableProxy.sol\":2786:2821  _setImplementation(_implementation) */\n      jump\t// in\n    tag_42:\n        /* \"contracts/Applications/UpgradeableProxy.sol\":1775:1874  if (msg.sender == _getAdmin()) {... */\n      jump(tag_44)\n    tag_40:\n        /* \"contracts/Applications/UpgradeableProxy.sol\":1852:1863  _fallback() */\n      tag_45\n        /* \"contracts/Applications/UpgradeableProxy.sol\":1852:1861  _fallback */\n      tag_10\n        /* \"contracts/Applications/UpgradeableProxy.sol\":1852:1863  _fallback() */\n      jump\t// in\n    tag_45:\n        /* \"contracts/Applications/UpgradeableProxy.sol\":1775:1874  if (msg.sender == _getAdmin()) {... */\n    tag_44:\n        /* \"contracts/Applications/UpgradeableProxy.sol\":2715:2828  function upgradeTo(address _implementation) external ifAdmin {... */\n      pop\n      jump\t// out\n        /* \"contracts/Applications/UpgradeableProxy.sol\":2963:3068  function implementation() external ifAdmin returns (address) {... */\n    tag_21:\n        /* \"contracts/Applications/UpgradeableProxy.sol\":3015:3022  address */\n      0x00\n        /* \"contracts/Applications/UpgradeableProxy.sol\":1793:1804  _getAdmin() */\n      tag_47\n        /* \"contracts/Applications/UpgradeableProxy.sol\":1793:1802  _getAdmin */\n      tag_39\n        /* \"contracts/Applications/UpgradeableProxy.sol\":1793:1804  _getAdmin() */\n      jump\t// in\n    tag_47:\n        /* \"contracts/Applications/UpgradeableProxy.sol\":1779:1804  msg.sender == _getAdmin() */\n      0xffffffffffffffffffffffffffffffffffffffff\n      and\n        /* \"contracts/Applications/UpgradeableProxy.sol\":1779:1789  msg.sender */\n      caller\n        /* \"contracts/Applications/UpgradeableProxy.sol\":1779:1804  msg.sender == _getAdmin() */\n      0xffffffffffffffffffffffffffffffffffffffff\n      and\n      sub\n        /* \"contracts/Applications/UpgradeableProxy.sol\":1775:1874  if (msg.sender == _getAdmin()) {... */\n      tag_48\n      jumpi\n        /* \"contracts/Applications/UpgradeableProxy.sol\":3041:3061  _getImplementation() */\n      tag_50\n        /* \"contracts/Applications/UpgradeableProxy.sol\":3041:3059  _getImplementation */\n      tag_35\n        /* \"contracts/Applications/UpgradeableProxy.sol\":3041:3061  _getImplementation() */\n      jump\t// in\n    tag_50:\n        /* \"contracts/Applications/UpgradeableProxy.sol\":3034:3061  return _getImplementation() */\n      swap1\n      pop\n        /* \"contracts/Applications/UpgradeableProxy.sol\":1775:1874  if (msg.sender == _getAdmin()) {... */\n      jump(tag_51)\n    tag_48:\n        /* \"contracts/Applications/UpgradeableProxy.sol\":1852:1863  _fallback() */\n      tag_52\n        /* \"contracts/Applications/UpgradeableProxy.sol\":1852:1861  _fallback */\n      tag_10\n        /* \"contracts/Applications/UpgradeableProxy.sol\":1852:1863  _fallback() */\n      jump\t// in\n    tag_52:\n        /* \"contracts/Applications/UpgradeableProxy.sol\":1775:1874  if (msg.sender == _getAdmin()) {... */\n    tag_51:\n        /* \"contracts/Applications/UpgradeableProxy.sol\":2963:3068  function implementation() external ifAdmin returns (address) {... */\n      swap1\n      jump\t// out\n        /* \"contracts/Applications/UpgradeableProxy.sol\":2603:2691  function changeAdmin(address _admin) external ifAdmin {... */\n    tag_27:\n        /* \"contracts/Applications/UpgradeableProxy.sol\":1793:1804  _getAdmin() */\n      tag_54\n        /* \"contracts/Applications/UpgradeableProxy.sol\":1793:1802  _getAdmin */\n      tag_39\n        /* \"contracts/Applications/UpgradeableProxy.sol\":1793:1804  _getAdmin() */\n      jump\t// in\n    tag_54:\n        /* \"contracts/Applications/UpgradeableProxy.sol\":1779:1804  msg.sender == _getAdmin() */\n      0xffffffffffffffffffffffffffffffffffffffff\n      and\n        /* \"contracts/Applications/UpgradeableProxy.sol\":1779:1789  msg.sender */\n      caller\n        /* \"contracts/Applications/UpgradeableProxy.sol\":1779:1804  msg.sender == _getAdmin() */\n      0xffffffffffffffffffffffffffffffffffffffff\n      and\n      sub\n        /* \"contracts/Applications/UpgradeableProxy.sol\":1775:1874  if (msg.sender == _getAdmin()) {... */\n      tag_55\n      jumpi\n        /* \"contracts/Applications/UpgradeableProxy.sol\":2667:2684  _setAdmin(_admin) */\n      tag_57\n        /* \"contracts/Applications/UpgradeableProxy.sol\":2677:2683  _admin */\n      dup2\n        /* \"contracts/Applications/UpgradeableProxy.sol\":2667:2676  _setAdmin */\n      tag_58\n        /* \"contracts/Applications/UpgradeableProxy.sol\":2667:2684  _setAdmin(_admin) */\n      jump\t// in\n    tag_57:\n        /* \"contracts/Applications/UpgradeableProxy.sol\":1775:1874  if (msg.sender == _getAdmin()) {... */\n      jump(tag_59)\n    tag_55:\n        /* \"contracts/Applications/UpgradeableProxy.sol\":1852:1863  _fallback() */\n      tag_60\n        /* \"contracts/Applications/UpgradeableProxy.sol\":1852:1861  _fallback */\n      tag_10\n        /* \"contracts/Applications/UpgradeableProxy.sol\":1852:1863  _fallback() */\n      jump\t// in\n    tag_60:\n        /* \"contracts/Applications/UpgradeableProxy.sol\":1775:1874  if (msg.sender == _getAdmin()) {... */\n    tag_59:\n        /* \"contracts/Applications/UpgradeableProxy.sol\":2603:2691  function changeAdmin(address _admin) external ifAdmin {... */\n      pop\n      jump\t// out\n        /* \"contracts/Applications/UpgradeableProxy.sol\":2852:2939  function admin() external ifAdmin returns (address) {... */\n    tag_30:\n        /* \"contracts/Applications/UpgradeableProxy.sol\":2895:2902  address */\n      0x00\n        /* \"contracts/Applications/UpgradeableProxy.sol\":1793:1804  _getAdmin() */\n      tag_62\n        /* \"contracts/Applications/UpgradeableProxy.sol\":1793:1802  _getAdmin */\n      tag_39\n        /* \"contracts/Applications/UpgradeableProxy.sol\":1793:1804  _getAdmin() */\n      jump\t// in\n    tag_62:\n        /* \"contracts/Applications/UpgradeableProxy.sol\":1779:1804  msg.sender == _getAdmin() */\n      0xffffffffffffffffffffffffffffffffffffffff\n      and\n        /* \"contracts/Applications/UpgradeableProxy.sol\":1779:1789  msg.sender */\n      caller\n        /* \"contracts/Applications/UpgradeableProxy.sol\":1779:1804  msg.sender == _getAdmin() */\n      0xffffffffffffffffffffffffffffffffffffffff\n      and\n      sub\n        /* \"contracts/Applications/UpgradeableProxy.sol\":1775:1874  if (msg.sender == _getAdmin()) {... */\n      tag_63\n      jumpi\n        /* \"contracts/Applications/UpgradeableProxy.sol\":2921:2932  _getAdmin() */\n      tag_65\n        /* \"contracts/Applications/UpgradeableProxy.sol\":2921:2930  _getAdmin */\n      tag_39\n        /* \"contracts/Applications/UpgradeableProxy.sol\":2921:2932  _getAdmin() */\n      jump\t// in\n    tag_65:\n        /* \"contracts/Applications/UpgradeableProxy.sol\":2914:2932  return _getAdmin() */\n      swap1\n      pop\n        /* \"contracts/Applications/UpgradeableProxy.sol\":1775:1874  if (msg.sender == _getAdmin()) {... */\n      jump(tag_66)\n    tag_63:\n        /* \"contracts/Applications/UpgradeableProxy.sol\":1852:1863  _fallback() */\n      tag_67\n        /* \"contracts/Applications/UpgradeableProxy.sol\":1852:1861  _fallback */\n      tag_10\n        /* \"contracts/Applications/UpgradeableProxy.sol\":1852:1863  _fallback() */\n      jump\t// in\n    tag_67:\n        /* \"contracts/Applications/UpgradeableProxy.sol\":1775:1874  if (msg.sender == _getAdmin()) {... */\n    tag_66:\n        /* \"contracts/Applications/UpgradeableProxy.sol\":2852:2939  function admin() external ifAdmin returns (address) {... */\n      swap1\n      jump\t// out\n        /* \"contracts/Applications/UpgradeableProxy.sol\":2194:2332  function _getImplementation() private view returns (address) {... */\n    tag_35:\n        /* \"contracts/Applications/UpgradeableProxy.sol\":2246:2253  address */\n      0x00\n        /* \"contracts/Applications/UpgradeableProxy.sol\":2272:2319  StorageSlot.getAddressSlot(IMPLEMENTATION_SLOT) */\n      tag_69\n        /* \"contracts/Applications/UpgradeableProxy.sol\":1502:1503  1 */\n      0x01\n        /* \"contracts/Applications/UpgradeableProxy.sol\":1457:1498  keccak256(\"eip1967.proxy.implementation\") */\n      0x360894a13ba1a3210667c828492db98dca3e2076cc3735a920a3ca505d382bbd\n        /* \"contracts/Applications/UpgradeableProxy.sol\":1452:1499  uint(keccak256(\"eip1967.proxy.implementation\")) */\n      0x00\n      shr\n        /* \"contracts/Applications/UpgradeableProxy.sol\":1452:1503  uint(keccak256(\"eip1967.proxy.implementation\")) - 1 */\n      tag_70\n      swap2\n      swap1\n      tag_71\n      jump\t// in\n    tag_70:\n        /* \"contracts/Applications/UpgradeableProxy.sol\":1444:1504  bytes32(uint(keccak256(\"eip1967.proxy.implementation\")) - 1) */\n      0x00\n      shl\n        /* \"contracts/Applications/UpgradeableProxy.sol\":2272:2298  StorageSlot.getAddressSlot */\n      tag_72\n        /* \"contracts/Applications/UpgradeableProxy.sol\":2272:2319  StorageSlot.getAddressSlot(IMPLEMENTATION_SLOT) */\n      jump\t// in\n    tag_69:\n        /* \"contracts/Applications/UpgradeableProxy.sol\":2272:2325  StorageSlot.getAddressSlot(IMPLEMENTATION_SLOT).value */\n      0x00\n      add\n      0x00\n      swap1\n      sload\n      swap1\n      0x0100\n      exp\n      swap1\n      div\n      0xffffffffffffffffffffffffffffffffffffffff\n      and\n        /* \"contracts/Applications/UpgradeableProxy.sol\":2265:2325  return StorageSlot.getAddressSlot(IMPLEMENTATION_SLOT).value */\n      swap1\n      pop\n        /* \"contracts/Applications/UpgradeableProxy.sol\":2194:2332  function _getImplementation() private view returns (address) {... */\n      swap1\n      jump\t// out\n        /* \"contracts/Applications/UpgradeableProxy.sol\":3099:4818  function _delegate(address _implementation) internal virtual {... */\n    tag_36:\n        /* \"contracts/Applications/UpgradeableProxy.sol\":3599:3613  calldatasize() */\n      calldatasize\n        /* \"contracts/Applications/UpgradeableProxy.sol\":3596:3597  0 */\n      0x00\n        /* \"contracts/Applications/UpgradeableProxy.sol\":3593:3594  0 */\n      dup1\n        /* \"contracts/Applications/UpgradeableProxy.sol\":3580:3614  calldatacopy(0, 0, calldatasize()) */\n      calldatacopy\n        /* \"contracts/Applications/UpgradeableProxy.sol\":4134:4135  0 */\n      0x00\n        /* \"contracts/Applications/UpgradeableProxy.sol\":4131:4132  0 */\n      dup1\n        /* \"contracts/Applications/UpgradeableProxy.sol\":4115:4129  calldatasize() */\n      calldatasize\n        /* \"contracts/Applications/UpgradeableProxy.sol\":4112:4113  0 */\n      0x00\n        /* \"contracts/Applications/UpgradeableProxy.sol\":4095:4110  _implementation */\n      dup5\n        /* \"contracts/Applications/UpgradeableProxy.sol\":4088:4093  gas() */\n      gas\n        /* \"contracts/Applications/UpgradeableProxy.sol\":4075:4136  delegatecall(gas(), _implementation, 0, calldatasize(), 0, 0) */\n      delegatecall\n        /* \"contracts/Applications/UpgradeableProxy.sol\":4377:4393  returndatasize() */\n      returndatasize\n        /* \"contracts/Applications/UpgradeableProxy.sol\":4374:4375  0 */\n      0x00\n        /* \"contracts/Applications/UpgradeableProxy.sol\":4371:4372  0 */\n      dup1\n        /* \"contracts/Applications/UpgradeableProxy.sol\":4356:4394  returndatacopy(0, 0, returndatasize()) */\n      returndatacopy\n        /* \"contracts/Applications/UpgradeableProxy.sol\":4415:4421  result */\n      dup1\n        /* \"contracts/Applications/UpgradeableProxy.sol\":4487:4488  0 */\n      0x00\n        /* \"contracts/Applications/UpgradeableProxy.sol\":4482:4646  case 0 {... */\n      dup2\n      eq\n      tag_75\n      jumpi\n        /* \"contracts/Applications/UpgradeableProxy.sol\":4771:4787  returndatasize() */\n      returndatasize\n        /* \"contracts/Applications/UpgradeableProxy.sol\":4768:4769  0 */\n      0x00\n        /* \"contracts/Applications/UpgradeableProxy.sol\":4761:4788  return(0, returndatasize()) */\n      return\n        /* \"contracts/Applications/UpgradeableProxy.sol\":4482:4646  case 0 {... */\n    tag_75:\n        /* \"contracts/Applications/UpgradeableProxy.sol\":4615:4631  returndatasize() */\n      returndatasize\n        /* \"contracts/Applications/UpgradeableProxy.sol\":4612:4613  0 */\n      0x00\n        /* \"contracts/Applications/UpgradeableProxy.sol\":4605:4632  revert(0, returndatasize()) */\n      revert\n        /* \"contracts/Applications/UpgradeableProxy.sol\":1886:2006  function _getAdmin() private view returns (address) {... */\n    tag_39:\n        /* \"contracts/Applications/UpgradeableProxy.sol\":1929:1936  address */\n      0x00\n        /* \"contracts/Applications/UpgradeableProxy.sol\":1955:1993  StorageSlot.getAddressSlot(ADMIN_SLOT) */\n      tag_77\n        /* \"contracts/Applications/UpgradeableProxy.sol\":1679:1680  1 */\n      0x01\n        /* \"contracts/Applications/UpgradeableProxy.sol\":1643:1675  keccak256(\"eip1967.proxy.admin\") */\n      0xb53127684a568b3173ae13b9f8a6016e243e63b6e8ee1178d6a717850b5d6104\n        /* \"contracts/Applications/UpgradeableProxy.sol\":1638:1676  uint(keccak256(\"eip1967.proxy.admin\")) */\n      0x00\n      shr\n        /* \"contracts/Applications/UpgradeableProxy.sol\":1638:1680  uint(keccak256(\"eip1967.proxy.admin\")) - 1 */\n      tag_78\n      swap2\n      swap1\n      tag_71\n      jump\t// in\n    tag_78:\n        /* \"contracts/Applications/UpgradeableProxy.sol\":1630:1681  bytes32(uint(keccak256(\"eip1967.proxy.admin\")) - 1) */\n      0x00\n      shl\n        /* \"contracts/Applications/UpgradeableProxy.sol\":1955:1981  StorageSlot.getAddressSlot */\n      tag_72\n        /* \"contracts/Applications/UpgradeableProxy.sol\":1955:1993  StorageSlot.getAddressSlot(ADMIN_SLOT) */\n      jump\t// in\n    tag_77:\n        /* \"contracts/Applications/UpgradeableProxy.sol\":1955:1999  StorageSlot.getAddressSlot(ADMIN_SLOT).value */\n      0x00\n      add\n      0x00\n      swap1\n      sload\n      swap1\n      0x0100\n      exp\n      swap1\n      div\n      0xffffffffffffffffffffffffffffffffffffffff\n      and\n        /* \"contracts/Applications/UpgradeableProxy.sol\":1948:1999  return StorageSlot.getAddressSlot(ADMIN_SLOT).value */\n      swap1\n      pop\n        /* \"contracts/Applications/UpgradeableProxy.sol\":1886:2006  function _getAdmin() private view returns (address) {... */\n      swap1\n      jump\t// out\n        /* \"contracts/Applications/UpgradeableProxy.sol\":2338:2571  function _setImplementation(address _implementation) private {... */\n    tag_43:\n        /* \"contracts/Applications/UpgradeableProxy.sol\":2447:2448  0 */\n      0x00\n        /* \"contracts/Applications/UpgradeableProxy.sol\":2417:2432  _implementation */\n      dup2\n        /* \"contracts/Applications/UpgradeableProxy.sol\":2417:2444  _implementation.code.length */\n      0xffffffffffffffffffffffffffffffffffffffff\n      and\n      extcodesize\n        /* \"contracts/Applications/UpgradeableProxy.sol\":2417:2448  _implementation.code.length > 0 */\n      gt\n        /* \"contracts/Applications/UpgradeableProxy.sol\":2409:2483  require(_implementation.code.length > 0, \"implementation is not contract\") */\n      tag_80\n      jumpi\n      mload(0x40)\n      0x08c379a000000000000000000000000000000000000000000000000000000000\n      dup2\n      mstore\n      0x04\n      add\n      tag_81\n      swap1\n      tag_82\n      jump\t// in\n    tag_81:\n      mload(0x40)\n      dup1\n      swap2\n      sub\n      swap1\n      revert\n    tag_80:\n        /* \"contracts/Applications/UpgradeableProxy.sol\":2549:2564  _implementation */\n      dup1\n        /* \"contracts/Applications/UpgradeableProxy.sol\":2493:2540  StorageSlot.getAddressSlot(IMPLEMENTATION_SLOT) */\n      tag_83\n        /* \"contracts/Applications/UpgradeableProxy.sol\":1502:1503  1 */\n      0x01\n        /* \"contracts/Applications/UpgradeableProxy.sol\":1457:1498  keccak256(\"eip1967.proxy.implementation\") */\n      0x360894a13ba1a3210667c828492db98dca3e2076cc3735a920a3ca505d382bbd\n        /* \"contracts/Applications/UpgradeableProxy.sol\":1452:1499  uint(keccak256(\"eip1967.proxy.implementation\")) */\n      0x00\n      shr\n        /* \"contracts/Applications/UpgradeableProxy.sol\":1452:1503  uint(keccak256(\"eip1967.proxy.implementation\")) - 1 */\n      tag_84\n      swap2\n      swap1\n      tag_71\n      jump\t// in\n    tag_84:\n        /* \"contracts/Applications/UpgradeableProxy.sol\":1444:1504  bytes32(uint(keccak256(\"eip1967.proxy.implementation\")) - 1) */\n      0x00\n      shl\n        /* \"contracts/Applications/UpgradeableProxy.sol\":2493:2519  StorageSlot.getAddressSlot */\n      tag_72\n        /* \"contracts/Applications/UpgradeableProxy.sol\":2493:2540  StorageSlot.getAddressSlot(IMPLEMENTATION_SLOT) */\n      jump\t// in\n    tag_83:\n        /* \"contracts/Applications/UpgradeableProxy.sol\":2493:2546  StorageSlot.getAddressSlot(IMPLEMENTATION_SLOT).value */\n      0x00\n      add\n      0x00\n        /* \"contracts/Applications/UpgradeableProxy.sol\":2493:2564  StorageSlot.getAddressSlot(IMPLEMENTATION_SLOT).value = _implementation */\n      0x0100\n      exp\n      dup2\n      sload\n      dup2\n      0xffffffffffffffffffffffffffffffffffffffff\n      mul\n      not\n      and\n      swap1\n      dup4\n      0xffffffffffffffffffffffffffffffffffffffff\n      and\n      mul\n      or\n      swap1\n      sstore\n      pop\n        /* \"contracts/Applications/UpgradeableProxy.sol\":2338:2571  function _setImplementation(address _implementation) private {... */\n      pop\n      jump\t// out\n        /* \"contracts/Applications/UpgradeableProxy.sol\":2012:2188  function _setAdmin(address _admin) private {... */\n    tag_58:\n        /* \"contracts/Applications/UpgradeableProxy.sol\":2091:2092  0 */\n      0x00\n        /* \"contracts/Applications/UpgradeableProxy.sol\":2073:2093  _admin != address(0) */\n      0xffffffffffffffffffffffffffffffffffffffff\n      and\n        /* \"contracts/Applications/UpgradeableProxy.sol\":2073:2079  _admin */\n      dup2\n        /* \"contracts/Applications/UpgradeableProxy.sol\":2073:2093  _admin != address(0) */\n      0xffffffffffffffffffffffffffffffffffffffff\n      and\n      sub\n        /* \"contracts/Applications/UpgradeableProxy.sol\":2065:2118  require(_admin != address(0), \"admin = zero address\") */\n      tag_86\n      jumpi\n      mload(0x40)\n      0x08c379a000000000000000000000000000000000000000000000000000000000\n      dup2\n      mstore\n      0x04\n      add\n      tag_87\n      swap1\n      tag_88\n      jump\t// in\n    tag_87:\n      mload(0x40)\n      dup1\n      swap2\n      sub\n      swap1\n      revert\n    tag_86:\n        /* \"contracts/Applications/UpgradeableProxy.sol\":2175:2181  _admin */\n      dup1\n        /* \"contracts/Applications/UpgradeableProxy.sol\":2128:2166  StorageSlot.getAddressSlot(ADMIN_SLOT) */\n      tag_89\n        /* \"contracts/Applications/UpgradeableProxy.sol\":1679:1680  1 */\n      0x01\n        /* \"contracts/Applications/UpgradeableProxy.sol\":1643:1675  keccak256(\"eip1967.proxy.admin\") */\n      0xb53127684a568b3173ae13b9f8a6016e243e63b6e8ee1178d6a717850b5d6104\n        /* \"contracts/Applications/UpgradeableProxy.sol\":1638:1676  uint(keccak256(\"eip1967.proxy.admin\")) */\n      0x00\n      shr\n        /* \"contracts/Applications/UpgradeableProxy.sol\":1638:1680  uint(keccak256(\"eip1967.proxy.admin\")) - 1 */\n      tag_90\n      swap2\n      swap1\n      tag_71\n      jump\t// in\n    tag_90:\n        /* \"contracts/Applications/UpgradeableProxy.sol\":1630:1681  bytes32(uint(keccak256(\"eip1967.proxy.admin\")) - 1) */\n      0x00\n      shl\n        /* \"contracts/Applications/UpgradeableProxy.sol\":2128:2154  StorageSlot.getAddressSlot */\n      tag_72\n        /* \"contracts/Applications/UpgradeableProxy.sol\":2128:2166  StorageSlot.getAddressSlot(ADMIN_SLOT) */\n      jump\t// in\n    tag_89:\n        /* \"contracts/Applications/UpgradeableProxy.sol\":2128:2172  StorageSlot.getAddressSlot(ADMIN_SLOT).value */\n      0x00\n      add\n      0x00\n        /* \"contracts/Applications/UpgradeableProxy.sol\":2128:2181  StorageSlot.getAddressSlot(ADMIN_SLOT).value = _admin */\n      0x0100\n      exp\n      dup2\n      sload\n      dup2\n      0xffffffffffffffffffffffffffffffffffffffff\n      mul\n      not\n      and\n      swap1\n      dup4\n      0xffffffffffffffffffffffffffffffffffffffff\n      and\n      mul\n      or\n      swap1\n      sstore\n      pop\n        /* \"contracts/Applications/UpgradeableProxy.sol\":2012:2188  function _setAdmin(address _admin) private {... */\n      pop\n      jump\t// out\n        /* \"contracts/Applications/UpgradeableProxy.sol\":6134:6295  function getAddressSlot(... */\n    tag_72:\n        /* \"contracts/Applications/UpgradeableProxy.sol\":6209:6230  AddressSlot storage r */\n      0x00\n        /* \"contracts/Applications/UpgradeableProxy.sol\":6275:6279  slot */\n      dup2\n        /* \"contracts/Applications/UpgradeableProxy.sol\":6265:6279  r.slot := slot */\n      swap1\n      pop\n        /* \"contracts/Applications/UpgradeableProxy.sol\":6134:6295  function getAddressSlot(... */\n      swap2\n      swap1\n      pop\n      jump\t// out\n        /* \"#utility.yul\":88:205   */\n    tag_93:\n        /* \"#utility.yul\":197:198   */\n      0x00\n        /* \"#utility.yul\":194:195   */\n      dup1\n        /* \"#utility.yul\":187:199   */\n      revert\n        /* \"#utility.yul\":334:460   */\n    tag_95:\n        /* \"#utility.yul\":371:378   */\n      0x00\n        /* \"#utility.yul\":411:453   */\n      0xffffffffffffffffffffffffffffffffffffffff\n        /* \"#utility.yul\":404:409   */\n      dup3\n        /* \"#utility.yul\":400:454   */\n      and\n        /* \"#utility.yul\":389:454   */\n      swap1\n      pop\n        /* \"#utility.yul\":334:460   */\n      swap2\n      swap1\n      pop\n      jump\t// out\n        /* \"#utility.yul\":466:562   */\n    tag_96:\n        /* \"#utility.yul\":503:510   */\n      0x00\n        /* \"#utility.yul\":532:556   */\n      tag_113\n        /* \"#utility.yul\":550:555   */\n      dup3\n        /* \"#utility.yul\":532:556   */\n      tag_95\n      jump\t// in\n    tag_113:\n        /* \"#utility.yul\":521:556   */\n      swap1\n      pop\n        /* \"#utility.yul\":466:562   */\n      swap2\n      swap1\n      pop\n      jump\t// out\n        /* \"#utility.yul\":568:690   */\n    tag_97:\n        /* \"#utility.yul\":641:665   */\n      tag_115\n        /* \"#utility.yul\":659:664   */\n      dup2\n        /* \"#utility.yul\":641:665   */\n      tag_96\n      jump\t// in\n    tag_115:\n        /* \"#utility.yul\":634:639   */\n      dup2\n        /* \"#utility.yul\":631:666   */\n      eq\n        /* \"#utility.yul\":621:684   */\n      tag_116\n      jumpi\n        /* \"#utility.yul\":680:681   */\n      0x00\n        /* \"#utility.yul\":677:678   */\n      dup1\n        /* \"#utility.yul\":670:682   */\n      revert\n        /* \"#utility.yul\":621:684   */\n    tag_116:\n        /* \"#utility.yul\":568:690   */\n      pop\n      jump\t// out\n        /* \"#utility.yul\":696:835   */\n    tag_98:\n        /* \"#utility.yul\":742:747   */\n      0x00\n        /* \"#utility.yul\":780:786   */\n      dup2\n        /* \"#utility.yul\":767:787   */\n      calldataload\n        /* \"#utility.yul\":758:787   */\n      swap1\n      pop\n        /* \"#utility.yul\":796:829   */\n      tag_118\n        /* \"#utility.yul\":823:828   */\n      dup2\n        /* \"#utility.yul\":796:829   */\n      tag_97\n      jump\t// in\n    tag_118:\n        /* \"#utility.yul\":696:835   */\n      swap3\n      swap2\n      pop\n      pop\n      jump\t// out\n        /* \"#utility.yul\":841:1170   */\n    tag_17:\n        /* \"#utility.yul\":900:906   */\n      0x00\n        /* \"#utility.yul\":949:951   */\n      0x20\n        /* \"#utility.yul\":937:946   */\n      dup3\n        /* \"#utility.yul\":928:935   */\n      dup5\n        /* \"#utility.yul\":924:947   */\n      sub\n        /* \"#utility.yul\":920:952   */\n      slt\n        /* \"#utility.yul\":917:1036   */\n      iszero\n      tag_120\n      jumpi\n        /* \"#utility.yul\":955:1034   */\n      tag_121\n      tag_93\n      jump\t// in\n    tag_121:\n        /* \"#utility.yul\":917:1036   */\n    tag_120:\n        /* \"#utility.yul\":1075:1076   */\n      0x00\n        /* \"#utility.yul\":1100:1153   */\n      tag_122\n        /* \"#utility.yul\":1145:1152   */\n      dup5\n        /* \"#utility.yul\":1136:1142   */\n      dup3\n        /* \"#utility.yul\":1125:1134   */\n      dup6\n        /* \"#utility.yul\":1121:1143   */\n      add\n        /* \"#utility.yul\":1100:1153   */\n      tag_98\n      jump\t// in\n    tag_122:\n        /* \"#utility.yul\":1090:1153   */\n      swap2\n      pop\n        /* \"#utility.yul\":1046:1163   */\n      pop\n        /* \"#utility.yul\":841:1170   */\n      swap3\n      swap2\n      pop\n      pop\n      jump\t// out\n        /* \"#utility.yul\":1176:1294   */\n    tag_99:\n        /* \"#utility.yul\":1263:1287   */\n      tag_124\n        /* \"#utility.yul\":1281:1286   */\n      dup2\n        /* \"#utility.yul\":1263:1287   */\n      tag_96\n      jump\t// in\n    tag_124:\n        /* \"#utility.yul\":1258:1261   */\n      dup3\n        /* \"#utility.yul\":1251:1288   */\n      mstore\n        /* \"#utility.yul\":1176:1294   */\n      pop\n      pop\n      jump\t// out\n        /* \"#utility.yul\":1300:1522   */\n    tag_23:\n        /* \"#utility.yul\":1393:1397   */\n      0x00\n        /* \"#utility.yul\":1431:1433   */\n      0x20\n        /* \"#utility.yul\":1420:1429   */\n      dup3\n        /* \"#utility.yul\":1416:1434   */\n      add\n        /* \"#utility.yul\":1408:1434   */\n      swap1\n      pop\n        /* \"#utility.yul\":1444:1515   */\n      tag_126\n        /* \"#utility.yul\":1512:1513   */\n      0x00\n        /* \"#utility.yul\":1501:1510   */\n      dup4\n        /* \"#utility.yul\":1497:1514   */\n      add\n        /* \"#utility.yul\":1488:1494   */\n      dup5\n        /* \"#utility.yul\":1444:1515   */\n      tag_99\n      jump\t// in\n    tag_126:\n        /* \"#utility.yul\":1300:1522   */\n      swap3\n      swap2\n      pop\n      pop\n      jump\t// out\n        /* \"#utility.yul\":1528:1605   */\n    tag_100:\n        /* \"#utility.yul\":1565:1572   */\n      0x00\n        /* \"#utility.yul\":1594:1599   */\n      dup2\n        /* \"#utility.yul\":1583:1599   */\n      swap1\n      pop\n        /* \"#utility.yul\":1528:1605   */\n      swap2\n      swap1\n      pop\n      jump\t// out\n        /* \"#utility.yul\":1611:1791   */\n    tag_101:\n        /* \"#utility.yul\":1659:1736   */\n      0x4e487b7100000000000000000000000000000000000000000000000000000000\n        /* \"#utility.yul\":1656:1657   */\n      0x00\n        /* \"#utility.yul\":1649:1737   */\n      mstore\n        /* \"#utility.yul\":1756:1760   */\n      0x11\n        /* \"#utility.yul\":1753:1754   */\n      0x04\n        /* \"#utility.yul\":1746:1761   */\n      mstore\n        /* \"#utility.yul\":1780:1784   */\n      0x24\n        /* \"#utility.yul\":1777:1778   */\n      0x00\n        /* \"#utility.yul\":1770:1785   */\n      revert\n        /* \"#utility.yul\":1797:1991   */\n    tag_71:\n        /* \"#utility.yul\":1837:1841   */\n      0x00\n        /* \"#utility.yul\":1857:1877   */\n      tag_130\n        /* \"#utility.yul\":1875:1876   */\n      dup3\n        /* \"#utility.yul\":1857:1877   */\n      tag_100\n      jump\t// in\n    tag_130:\n        /* \"#utility.yul\":1852:1877   */\n      swap2\n      pop\n        /* \"#utility.yul\":1891:1911   */\n      tag_131\n        /* \"#utility.yul\":1909:1910   */\n      dup4\n        /* \"#utility.yul\":1891:1911   */\n      tag_100\n      jump\t// in\n    tag_131:\n        /* \"#utility.yul\":1886:1911   */\n      swap3\n      pop\n        /* \"#utility.yul\":1935:1936   */\n      dup3\n        /* \"#utility.yul\":1932:1933   */\n      dup3\n        /* \"#utility.yul\":1928:1937   */\n      sub\n        /* \"#utility.yul\":1920:1937   */\n      swap1\n      pop\n        /* \"#utility.yul\":1959:1960   */\n      dup2\n        /* \"#utility.yul\":1953:1957   */\n      dup2\n        /* \"#utility.yul\":1950:1961   */\n      gt\n        /* \"#utility.yul\":1947:1984   */\n      iszero\n      tag_132\n      jumpi\n        /* \"#utility.yul\":1964:1982   */\n      tag_133\n      tag_101\n      jump\t// in\n    tag_133:\n        /* \"#utility.yul\":1947:1984   */\n    tag_132:\n        /* \"#utility.yul\":1797:1991   */\n      swap3\n      swap2\n      pop\n      pop\n      jump\t// out\n        /* \"#utility.yul\":1997:2166   */\n    tag_102:\n        /* \"#utility.yul\":2081:2092   */\n      0x00\n        /* \"#utility.yul\":2115:2121   */\n      dup3\n        /* \"#utility.yul\":2110:2113   */\n      dup3\n        /* \"#utility.yul\":2103:2122   */\n      mstore\n        /* \"#utility.yul\":2155:2159   */\n      0x20\n        /* \"#utility.yul\":2150:2153   */\n      dup3\n        /* \"#utility.yul\":2146:2160   */\n      add\n        /* \"#utility.yul\":2131:2160   */\n      swap1\n      pop\n        /* \"#utility.yul\":1997:2166   */\n      swap3\n      swap2\n      pop\n      pop\n      jump\t// out\n        /* \"#utility.yul\":2172:2352   */\n    tag_103:\n        /* \"#utility.yul\":2312:2344   */\n      0x696d706c656d656e746174696f6e206973206e6f7420636f6e74726163740000\n        /* \"#utility.yul\":2308:2309   */\n      0x00\n        /* \"#utility.yul\":2300:2306   */\n      dup3\n        /* \"#utility.yul\":2296:2310   */\n      add\n        /* \"#utility.yul\":2289:2345   */\n      mstore\n        /* \"#utility.yul\":2172:2352   */\n      pop\n      jump\t// out\n        /* \"#utility.yul\":2358:2724   */\n    tag_104:\n        /* \"#utility.yul\":2500:2503   */\n      0x00\n        /* \"#utility.yul\":2521:2588   */\n      tag_137\n        /* \"#utility.yul\":2585:2587   */\n      0x1e\n        /* \"#utility.yul\":2580:2583   */\n      dup4\n        /* \"#utility.yul\":2521:2588   */\n      tag_102\n      jump\t// in\n    tag_137:\n        /* \"#utility.yul\":2514:2588   */\n      swap2\n      pop\n        /* \"#utility.yul\":2597:2690   */\n      tag_138\n        /* \"#utility.yul\":2686:2689   */\n      dup3\n        /* \"#utility.yul\":2597:2690   */\n      tag_103\n      jump\t// in\n    tag_138:\n        /* \"#utility.yul\":2715:2717   */\n      0x20\n        /* \"#utility.yul\":2710:2713   */\n      dup3\n        /* \"#utility.yul\":2706:2718   */\n      add\n        /* \"#utility.yul\":2699:2718   */\n      swap1\n      pop\n        /* \"#utility.yul\":2358:2724   */\n      swap2\n      swap1\n      pop\n      jump\t// out\n        /* \"#utility.yul\":2730:3149   */\n    tag_82:\n        /* \"#utility.yul\":2896:2900   */\n      0x00\n        /* \"#utility.yul\":2934:2936   */\n      0x20\n        /* \"#utility.yul\":2923:2932   */\n      dup3\n        /* \"#utility.yul\":2919:2937   */\n      add\n        /* \"#utility.yul\":2911:2937   */\n      swap1\n      pop\n        /* \"#utility.yul\":2983:2992   */\n      dup2\n        /* \"#utility.yul\":2977:2981   */\n      dup2\n        /* \"#utility.yul\":2973:2993   */\n      sub\n        /* \"#utility.yul\":2969:2970   */\n      0x00\n        /* \"#utility.yul\":2958:2967   */\n      dup4\n        /* \"#utility.yul\":2954:2971   */\n      add\n        /* \"#utility.yul\":2947:2994   */\n      mstore\n        /* \"#utility.yul\":3011:3142   */\n      tag_140\n        /* \"#utility.yul\":3137:3141   */\n      dup2\n        /* \"#utility.yul\":3011:3142   */\n      tag_104\n      jump\t// in\n    tag_140:\n        /* \"#utility.yul\":3003:3142   */\n      swap1\n      pop\n        /* \"#utility.yul\":2730:3149   */\n      swap2\n      swap1\n      pop\n      jump\t// out\n        /* \"#utility.yul\":3155:3325   */\n    tag_105:\n        /* \"#utility.yul\":3295:3317   */\n      0x61646d696e203d207a65726f2061646472657373000000000000000000000000\n        /* \"#utility.yul\":3291:3292   */\n      0x00\n        /* \"#utility.yul\":3283:3289   */\n      dup3\n        /* \"#utility.yul\":3279:3293   */\n      add\n        /* \"#utility.yul\":3272:3318   */\n      mstore\n        /* \"#utility.yul\":3155:3325   */\n      pop\n      jump\t// out\n        /* \"#utility.yul\":3331:3697   */\n    tag_106:\n        /* \"#utility.yul\":3473:3476   */\n      0x00\n        /* \"#utility.yul\":3494:3561   */\n      tag_143\n        /* \"#utility.yul\":3558:3560   */\n      0x14\n        /* \"#utility.yul\":3553:3556   */\n      dup4\n        /* \"#utility.yul\":3494:3561   */\n      tag_102\n      jump\t// in\n    tag_143:\n        /* \"#utility.yul\":3487:3561   */\n      swap2\n      pop\n        /* \"#utility.yul\":3570:3663   */\n      tag_144\n        /* \"#utility.yul\":3659:3662   */\n      dup3\n        /* \"#utility.yul\":3570:3663   */\n      tag_105\n      jump\t// in\n    tag_144:\n        /* \"#utility.yul\":3688:3690   */\n      0x20\n        /* \"#utility.yul\":3683:3686   */\n      dup3\n        /* \"#utility.yul\":3679:3691   */\n      add\n        /* \"#utility.yul\":3672:3691   */\n      swap1\n      pop\n        /* \"#utility.yul\":3331:3697   */\n      swap2\n      swap1\n      pop\n      jump\t// out\n        /* \"#utility.yul\":3703:4122   */\n    tag_88:\n        /* \"#utility.yul\":3869:3873   */\n      0x00\n        /* \"#utility.yul\":3907:3909   */\n      0x20\n        /* \"#utility.yul\":3896:3905   */\n      dup3\n        /* \"#utility.yul\":3892:3910   */\n      add\n        /* \"#utility.yul\":3884:3910   */\n      swap1\n      pop\n        /* \"#utility.yul\":3956:3965   */\n      dup2\n        /* \"#utility.yul\":3950:3954   */\n      dup2\n        /* \"#utility.yul\":3946:3966   */\n      sub\n        /* \"#utility.yul\":3942:3943   */\n      0x00\n        /* \"#utility.yul\":3931:3940   */\n      dup4\n        /* \"#utility.yul\":3927:3944   */\n      add\n        /* \"#utility.yul\":3920:3967   */\n      mstore\n        /* \"#utility.yul\":3984:4115   */\n      tag_146\n        /* \"#utility.yul\":4110:4114   */\n      dup2\n        /* \"#utility.yul\":3984:4115   */\n      tag_106\n      jump\t// in\n    tag_146:\n        /* \"#utility.yul\":3976:4115   */\n      swap1\n      pop\n        /* \"#utility.yul\":3703:4122   */\n      swap2\n      swap1\n      pop\n      jump\t// out\n\n    auxdata: 0xa264697066735822122003c258c85e363ea7a7e09561e2d61bc748a1d1ef2701cb4a4e6f4b0c2b81d98064736f6c63430008160033\n}\n",
				"bytecode": {
					"linkReferences": {},
					"object": "608060405234801561000f575f80fd5b5061001f3361002460201b60201c565b6101fe565b5f73ffffffffffffffffffffffffffffffffffffffff168173ffffffffffffffffffffffffffffffffffffffff1603610092576040517f08c379a000000000000000000000000000000000000000000000000000000000815260040161008990610177565b60405180910390fd5b806100d260017fb53127684a568b3173ae13b9f8a6016e243e63b6e8ee1178d6a717850b5d61045f1c6100c591906101cb565b5f1b61011460201b60201c565b5f015f6101000a81548173ffffffffffffffffffffffffffffffffffffffff021916908373ffffffffffffffffffffffffffffffffffffffff16021790555050565b5f819050919050565b5f82825260208201905092915050565b7f61646d696e203d207a65726f20616464726573730000000000000000000000005f82015250565b5f61016160148361011d565b915061016c8261012d565b602082019050919050565b5f6020820190508181035f83015261018e81610155565b9050919050565b5f819050919050565b7f4e487b71000000000000000000000000000000000000000000000000000000005f52601160045260245ffd5b5f6101d582610195565b91506101e083610195565b92508282039050818111156101f8576101f761019e565b5b92915050565b61073e8061020b5f395ff3fe608060405260043610610042575f3560e01c80633659cfe61461005b5780635c60da1b146100835780638f283970146100ad578063f851a440146100d557610051565b366100515761004f6100ff565b005b6100596100ff565b005b348015610066575f80fd5b50610081600480360381019061007c919061056c565b610111565b005b34801561008e575f80fd5b50610097610165565b6040516100a491906105a6565b60405180910390f35b3480156100b8575f80fd5b506100d360048036038101906100ce919061056c565b6101bb565b005b3480156100e0575f80fd5b506100e961020f565b6040516100f691906105a6565b60405180910390f35b61010f61010a610265565b6102c6565b565b6101196102e5565b73ffffffffffffffffffffffffffffffffffffffff163373ffffffffffffffffffffffffffffffffffffffff16036101595761015481610346565b610162565b6101616100ff565b5b50565b5f61016e6102e5565b73ffffffffffffffffffffffffffffffffffffffff163373ffffffffffffffffffffffffffffffffffffffff16036101af576101a8610265565b90506101b8565b6101b76100ff565b5b90565b6101c36102e5565b73ffffffffffffffffffffffffffffffffffffffff163373ffffffffffffffffffffffffffffffffffffffff1603610203576101fe8161041b565b61020c565b61020b6100ff565b5b50565b5f6102186102e5565b73ffffffffffffffffffffffffffffffffffffffff163373ffffffffffffffffffffffffffffffffffffffff1603610259576102526102e5565b9050610262565b6102616100ff565b5b90565b5f61029f60017f360894a13ba1a3210667c828492db98dca3e2076cc3735a920a3ca505d382bbd5f1c61029891906105f5565b5f1b610505565b5f015f9054906101000a900473ffffffffffffffffffffffffffffffffffffffff16905090565b365f80375f80365f845af43d5f803e805f81146102e1573d5ff35b3d5ffd5b5f61031f60017fb53127684a568b3173ae13b9f8a6016e243e63b6e8ee1178d6a717850b5d61045f1c61031891906105f5565b5f1b610505565b5f015f9054906101000a900473ffffffffffffffffffffffffffffffffffffffff16905090565b5f8173ffffffffffffffffffffffffffffffffffffffff163b1161039f576040517f08c379a000000000000000000000000000000000000000000000000000000000815260040161039690610682565b60405180910390fd5b806103d960017f360894a13ba1a3210667c828492db98dca3e2076cc3735a920a3ca505d382bbd5f1c6103d291906105f5565b5f1b610505565b5f015f6101000a81548173ffffffffffffffffffffffffffffffffffffffff021916908373ffffffffffffffffffffffffffffffffffffffff16021790555050565b5f73ffffffffffffffffffffffffffffffffffffffff168173ffffffffffffffffffffffffffffffffffffffff1603610489576040517f08c379a0000000000000000000000000000000000000000000000000000000008152600401610480906106ea565b60405180910390fd5b806104c360017fb53127684a568b3173ae13b9f8a6016e243e63b6e8ee1178d6a717850b5d61045f1c6104bc91906105f5565b5f1b610505565b5f015f6101000a81548173ffffffffffffffffffffffffffffffffffffffff021916908373ffffffffffffffffffffffffffffffffffffffff16021790555050565b5f819050919050565b5f80fd5b5f73ffffffffffffffffffffffffffffffffffffffff82169050919050565b5f61053b82610512565b9050919050565b61054b81610531565b8114610555575f80fd5b50565b5f8135905061056681610542565b92915050565b5f602082840312156105815761058061050e565b5b5f61058e84828501610558565b91505092915050565b6105a081610531565b82525050565b5f6020820190506105b95f830184610597565b92915050565b5f819050919050565b7f4e487b71000000000000000000000000000000000000000000000000000000005f52601160045260245ffd5b5f6105ff826105bf565b915061060a836105bf565b9250828203905081811115610622576106216105c8565b5b92915050565b5f82825260208201905092915050565b7f696d706c656d656e746174696f6e206973206e6f7420636f6e747261637400005f82015250565b5f61066c601e83610628565b915061067782610638565b602082019050919050565b5f6020820190508181035f83015261069981610660565b9050919050565b7f61646d696e203d207a65726f20616464726573730000000000000000000000005f82015250565b5f6106d4601483610628565b91506106df826106a0565b602082019050919050565b5f6020820190508181035f830152610701816106c8565b905091905056fea264697066735822122003c258c85e363ea7a7e09561e2d61bc748a1d1ef2701cb4a4e6f4b0c2b81d98064736f6c63430008160033",
					"opcodes": "PUSH1 0x80 PUSH1 0x40 MSTORE CALLVALUE DUP1 ISZERO PUSH2 0xF JUMPI PUSH0 DUP1 REVERT JUMPDEST POP PUSH2 0x1F CALLER PUSH2 0x24 PUSH1 0x20 SHL PUSH1 0x20 SHR JUMP JUMPDEST PUSH2 0x1FE JUMP JUMPDEST PUSH0 PUSH20 0xFFFFFFFFFFFFFFFFFFFFFFFFFFFFFFFFFFFFFFFF AND DUP2 PUSH20 0xFFFFFFFFFFFFFFFFFFFFFFFFFFFFFFFFFFFFFFFF AND SUB PUSH2 0x92 JUMPI PUSH1 0x40 MLOAD PUSH32 0x8C379A000000000000000000000000000000000000000000000000000000000 DUP2 MSTORE PUSH1 0x4 ADD PUSH2 0x89 SWAP1 PUSH2 0x177 JUMP JUMPDEST PUSH1 0x40 MLOAD DUP1 SWAP2 SUB SWAP1 REVERT JUMPDEST DUP1 PUSH2 0xD2 PUSH1 0x1 PUSH32 0xB53127684A568B3173AE13B9F8A6016E243E63B6E8EE1178D6A717850B5D6104 PUSH0 SHR PUSH2 0xC5 SWAP2 SWAP1 PUSH2 0x1CB JUMP JUMPDEST PUSH0 SHL PUSH2 0x114 PUSH1 0x20 SHL PUSH1 0x20 SHR JUMP JUMPDEST PUSH0 ADD PUSH0 PUSH2 0x100 EXP DUP2 SLOAD DUP2 PUSH20 0xFFFFFFFFFFFFFFFFFFFFFFFFFFFFFFFFFFFFFFFF MUL NOT AND SWAP1 DUP4 PUSH20 0xFFFFFFFFFFFFFFFFFFFFFFFFFFFFFFFFFFFFFFFF AND MUL OR SWAP1 SSTORE POP POP JUMP JUMPDEST PUSH0 DUP2 SWAP1 POP SWAP2 SWAP1 POP JUMP JUMPDEST PUSH0 DUP3 DUP3 MSTORE PUSH1 0x20 DUP3 ADD SWAP1 POP SWAP3 SWAP2 POP POP JUMP JUMPDEST PUSH32 0x61646D696E203D207A65726F2061646472657373000000000000000000000000 PUSH0 DUP3 ADD MSTORE POP JUMP JUMPDEST PUSH0 PUSH2 0x161 PUSH1 0x14 DUP4 PUSH2 0x11D JUMP JUMPDEST SWAP2 POP PUSH2 0x16C DUP3 PUSH2 0x12D JUMP JUMPDEST PUSH1 0x20 DUP3 ADD SWAP1 POP SWAP2 SWAP1 POP JUMP JUMPDEST PUSH0 PUSH1 0x20 DUP3 ADD SWAP1 POP DUP2 DUP2 SUB PUSH0 DUP4 ADD MSTORE PUSH2 0x18E DUP2 PUSH2 0x155 JUMP JUMPDEST SWAP1 POP SWAP2 SWAP1 POP JUMP JUMPDEST PUSH0 DUP2 SWAP1 POP SWAP2 SWAP1 POP JUMP JUMPDEST PUSH32 0x4E487B7100000000000000000000000000000000000000000000000000000000 PUSH0 MSTORE PUSH1 0x11 PUSH1 0x4 MSTORE PUSH1 0x24 PUSH0 REVERT JUMPDEST PUSH0 PUSH2 0x1D5 DUP3 PUSH2 0x195 JUMP JUMPDEST SWAP2 POP PUSH2 0x1E0 DUP4 PUSH2 0x195 JUMP JUMPDEST SWAP3 POP DUP3 DUP3 SUB SWAP1 POP DUP2 DUP2 GT ISZERO PUSH2 0x1F8 JUMPI PUSH2 0x1F7 PUSH2 0x19E JUMP JUMPDEST JUMPDEST SWAP3 SWAP2 POP POP JUMP JUMPDEST PUSH2 0x73E DUP1 PUSH2 0x20B PUSH0 CODECOPY PUSH0 RETURN INVALID PUSH1 0x80 PUSH1 0x40 MSTORE PUSH1 0x4 CALLDATASIZE LT PUSH2 0x42 JUMPI PUSH0 CALLDATALOAD PUSH1 0xE0 SHR DUP1 PUSH4 0x3659CFE6 EQ PUSH2 0x5B JUMPI DUP1 PUSH4 0x5C60DA1B EQ PUSH2 0x83 JUMPI DUP1 PUSH4 0x8F283970 EQ PUSH2 0xAD JUMPI DUP1 PUSH4 0xF851A440 EQ PUSH2 0xD5 JUMPI PUSH2 0x51 JUMP JUMPDEST CALLDATASIZE PUSH2 0x51 JUMPI PUSH2 0x4F PUSH2 0xFF JUMP JUMPDEST STOP JUMPDEST PUSH2 0x59 PUSH2 0xFF JUMP JUMPDEST STOP JUMPDEST CALLVALUE DUP1 ISZERO PUSH2 0x66 JUMPI PUSH0 DUP1 REVERT JUMPDEST POP PUSH2 0x81 PUSH1 0x4 DUP1 CALLDATASIZE SUB DUP2 ADD SWAP1 PUSH2 0x7C SWAP2 SWAP1 PUSH2 0x56C JUMP JUMPDEST PUSH2 0x111 JUMP JUMPDEST STOP JUMPDEST CALLVALUE DUP1 ISZERO PUSH2 0x8E JUMPI PUSH0 DUP1 REVERT JUMPDEST POP PUSH2 0x97 PUSH2 0x165 JUMP JUMPDEST PUSH1 0x40 MLOAD PUSH2 0xA4 SWAP2 SWAP1 PUSH2 0x5A6 JUMP JUMPDEST PUSH1 0x40 MLOAD DUP1 SWAP2 SUB SWAP1 RETURN JUMPDEST CALLVALUE DUP1 ISZERO PUSH2 0xB8 JUMPI PUSH0 DUP1 REVERT JUMPDEST POP PUSH2 0xD3 PUSH1 0x4 DUP1 CALLDATASIZE SUB DUP2 ADD SWAP1 PUSH2 0xCE SWAP2 SWAP1 PUSH2 0x56C JUMP JUMPDEST PUSH2 0x1BB JUMP JUMPDEST STOP JUMPDEST CALLVALUE DUP1 ISZERO PUSH2 0xE0 JUMPI PUSH0 DUP1 REVERT JUMPDEST POP PUSH2 0xE9 PUSH2 0x20F JUMP JUMPDEST PUSH1 0x40 MLOAD PUSH2 0xF6 SWAP2 SWAP1 PUSH2 0x5A6 JUMP JUMPDEST PUSH1 0x40 MLOAD DUP1 SWAP2 SUB SWAP1 RETURN JUMPDEST PUSH2 0x10F PUSH2 0x10A PUSH2 0x265 JUMP JUMPDEST PUSH2 0x2C6 JUMP JUMPDEST JUMP JUMPDEST PUSH2 0x119 PUSH2 0x2E5 JUMP JUMPDEST PUSH20 0xFFFFFFFFFFFFFFFFFFFFFFFFFFFFFFFFFFFFFFFF AND CALLER PUSH20 0xFFFFFFFFFFFFFFFFFFFFFFFFFFFFFFFFFFFFFFFF AND SUB PUSH2 0x159 JUMPI PUSH2 0x154 DUP2 PUSH2 0x346 JUMP JUMPDEST PUSH2 0x162 JUMP JUMPDEST PUSH2 0x161 PUSH2 0xFF JUMP JUMPDEST JUMPDEST POP JUMP JUMPDEST PUSH0 PUSH2 0x16E PUSH2 0x2E5 JUMP JUMPDEST PUSH20 0xFFFFFFFFFFFFFFFFFFFFFFFFFFFFFFFFFFFFFFFF AND CALLER PUSH20 0xFFFFFFFFFFFFFFFFFFFFFFFFFFFFFFFFFFFFFFFF AND SUB PUSH2 0x1AF JUMPI PUSH2 0x1A8 PUSH2 0x265 JUMP JUMPDEST SWAP1 POP PUSH2 0x1B8 JUMP JUMPDEST PUSH2 0x1B7 PUSH2 0xFF JUMP JUMPDEST JUMPDEST SWAP1 JUMP JUMPDEST PUSH2 0x1C3 PUSH2 0x2E5 JUMP JUMPDEST PUSH20 0xFFFFFFFFFFFFFFFFFFFFFFFFFFFFFFFFFFFFFFFF AND CALLER PUSH20 0xFFFFFFFFFFFFFFFFFFFFFFFFFFFFFFFFFFFFFFFF AND SUB PUSH2 0x203 JUMPI PUSH2 0x1FE DUP2 PUSH2 0x41B JUMP JUMPDEST PUSH2 0x20C JUMP JUMPDEST PUSH2 0x20B PUSH2 0xFF JUMP JUMPDEST JUMPDEST POP JUMP JUMPDEST PUSH0 PUSH2 0x218 PUSH2 0x2E5 JUMP JUMPDEST PUSH20 0xFFFFFFFFFFFFFFFFFFFFFFFFFFFFFFFFFFFFFFFF AND CALLER PUSH20 0xFFFFFFFFFFFFFFFFFFFFFFFFFFFFFFFFFFFFFFFF AND SUB PUSH2 0x259 JUMPI PUSH2 0x252 PUSH2 0x2E5 JUMP JUMPDEST SWAP1 POP PUSH2 0x262 JUMP JUMPDEST PUSH2 0x261 PUSH2 0xFF JUMP JUMPDEST JUMPDEST SWAP1 JUMP JUMPDEST PUSH0 PUSH2 0x29F PUSH1 0x1 PUSH32 0x360894A13BA1A3210667C828492DB98DCA3E2076CC3735A920A3CA505D382BBD PUSH0 SHR PUSH2 0x298 SWAP2 SWAP1 PUSH2 0x5F5 JUMP JUMPDEST PUSH0 SHL PUSH2 0x505 JUMP JUMPDEST PUSH0 ADD PUSH0 SWAP1 SLOAD SWAP1 PUSH2 0x100 EXP SWAP1 DIV PUSH20 0xFFFFFFFFFFFFFFFFFFFFFFFFFFFFFFFFFFFFFFFF AND SWAP1 POP SWAP1 JUMP JUMPDEST CALLDATASIZE PUSH0 DUP1 CALLDATACOPY PUSH0 DUP1 CALLDATASIZE PUSH0 DUP5 GAS DELEGATECALL RETURNDATASIZE PUSH0 DUP1 RETURNDATACOPY DUP1 PUSH0 DUP2 EQ PUSH2 0x2E1 JUMPI RETURNDATASIZE PUSH0 RETURN JUMPDEST RETURNDATASIZE PUSH0 REVERT JUMPDEST PUSH0 PUSH2 0x31F PUSH1 0x1 PUSH32 0xB53127684A568B3173AE13B9F8A6016E243E63B6E8EE1178D6A717850B5D6104 PUSH0 SHR PUSH2 0x318 SWAP2 SWAP1 PUSH2 0x5F5 JUMP JUMPDEST PUSH0 SHL PUSH2 0x505 JUMP JUMPDEST PUSH0 ADD PUSH0 SWAP1 SLOAD SWAP1 PUSH2 0x100 EXP SWAP1 DIV PUSH20 0xFFFFFFFFFFFFFFFFFFFFFFFFFFFFFFFFFFFFFFFF AND SWAP1 POP SWAP1 JUMP JUMPDEST PUSH0 DUP2 PUSH20 0xFFFFFFFFFFFFFFFFFFFFFFFFFFFFFFFFFFFFFFFF AND EXTCODESIZE GT PUSH2 0x39F JUMPI PUSH1 0x40 MLOAD PUSH32 0x8C379A000000000000000000000000000000000000000000000000000000000 DUP2 MSTORE PUSH1 0x4 ADD PUSH2 0x396 SWAP1 PUSH2 0x682 JUMP JUMPDEST PUSH1 0x40 MLOAD DUP1 SWAP2 SUB SWAP1 REVERT JUMPDEST DUP1 PUSH2 0x3D9 PUSH1 0x1 PUSH32 0x360894A13BA1A3210667C828492DB98DCA3E2076CC3735A920A3CA505D382BBD PUSH0 SHR PUSH2 0x3D2 SWAP2 SWAP1 PUSH2 0x5F5 JUMP JUMPDEST PUSH0 SHL PUSH2 0x505 JUMP JUMPDEST PUSH0 ADD PUSH0 PUSH2 0x100 EXP DUP2 SLOAD DUP2 PUSH20 0xFFFFFFFFFFFFFFFFFFFFFFFFFFFFFFFFFFFFFFFF MUL NOT AND SWAP1 DUP4 PUSH20 0xFFFFFFFFFFFFFFFFFFFFFFFFFFFFFFFFFFFFFFFF AND MUL OR SWAP1 SSTORE POP POP JUMP JUMPDEST PUSH0 PUSH20 0xFFFFFFFFFFFFFFFFFFFFFFFFFFFFFFFFFFFFFFFF AND DUP2 PUSH20 0xFFFFFFFFFFFFFFFFFFFFFFFFFFFFFFFFFFFFFFFF AND SUB PUSH2 0x489 JUMPI PUSH1 0x40 MLOAD PUSH32 0x8C379A000000000000000000000000000000000000000000000000000000000 DUP2 MSTORE PUSH1 0x4 ADD PUSH2 0x480 SWAP1 PUSH2 0x6EA JUMP JUMPDEST PUSH1 0x40 MLOAD DUP1 SWAP2 SUB SWAP1 REVERT JUMPDEST DUP1 PUSH2 0x4C3 PUSH1 0x1 PUSH32 0xB53127684A568B3173AE13B9F8A6016E243E63B6E8EE1178D6A717850B5D6104 PUSH0 SHR PUSH2 0x4BC SWAP2 SWAP1 PUSH2 0x5F5 JUMP JUMPDEST PUSH0 SHL PUSH2 0x505 JUMP JUMPDEST PUSH0 ADD PUSH0 PUSH2 0x100 EXP DUP2 SLOAD DUP2 PUSH20 0xFFFFFFFFFFFFFFFFFFFFFFFFFFFFFFFFFFFFFFFF MUL NOT AND SWAP1 DUP4 PUSH20 0xFFFFFFFFFFFFFFFFFFFFFFFFFFFFFFFFFFFFFFFF AND MUL OR SWAP1 SSTORE POP POP JUMP JUMPDEST PUSH0 DUP2 SWAP1 POP SWAP2 SWAP1 POP JUMP JUMPDEST PUSH0 DUP1 REVERT JUMPDEST PUSH0 PUSH20 0xFFFFFFFFFFFFFFFFFFFFFFFFFFFFFFFFFFFFFFFF DUP3 AND SWAP1 POP SWAP2 SWAP1 POP JUMP JUMPDEST PUSH0 PUSH2 0x53B DUP3 PUSH2 0x512 JUMP JUMPDEST SWAP1 POP SWAP2 SWAP1 POP JUMP JUMPDEST PUSH2 0x54B DUP2 PUSH2 0x531 JUMP JUMPDEST DUP2 EQ PUSH2 0x555 JUMPI PUSH0 DUP1 REVERT JUMPDEST POP JUMP JUMPDEST PUSH0 DUP2 CALLDATALOAD SWAP1 POP PUSH2 0x566 DUP2 PUSH2 0x542 JUMP JUMPDEST SWAP3 SWAP2 POP POP JUMP JUMPDEST PUSH0 PUSH1 0x20 DUP3 DUP5 SUB SLT ISZERO PUSH2 0x581 JUMPI PUSH2 0x580 PUSH2 0x50E JUMP JUMPDEST JUMPDEST PUSH0 PUSH2 0x58E DUP5 DUP3 DUP6 ADD PUSH2 0x558 JUMP JUMPDEST SWAP2 POP POP SWAP3 SWAP2 POP POP JUMP JUMPDEST PUSH2 0x5A0 DUP2 PUSH2 0x531 JUMP JUMPDEST DUP3 MSTORE POP POP JUMP JUMPDEST PUSH0 PUSH1 0x20 DUP3 ADD SWAP1 POP PUSH2 0x5B9 PUSH0 DUP4 ADD DUP5 PUSH2 0x597 JUMP JUMPDEST SWAP3 SWAP2 POP POP JUMP JUMPDEST PUSH0 DUP2 SWAP1 POP SWAP2 SWAP1 POP JUMP JUMPDEST PUSH32 0x4E487B7100000000000000000000000000000000000000000000000000000000 PUSH0 MSTORE PUSH1 0x11 PUSH1 0x4 MSTORE PUSH1 0x24 PUSH0 REVERT JUMPDEST PUSH0 PUSH2 0x5FF DUP3 PUSH2 0x5BF JUMP JUMPDEST SWAP2 POP PUSH2 0x60A DUP4 PUSH2 0x5BF JUMP JUMPDEST SWAP3 POP DUP3 DUP3 SUB SWAP1 POP DUP2 DUP2 GT ISZERO PUSH2 0x622 JUMPI PUSH2 0x621 PUSH2 0x5C8 JUMP JUMPDEST JUMPDEST SWAP3 SWAP2 POP POP JUMP JUMPDEST PUSH0 DUP3 DUP3 MSTORE PUSH1 0x20 DUP3 ADD SWAP1 POP SWAP3 SWAP2 POP POP JUMP JUMPDEST PUSH32 0x696D706C656D656E746174696F6E206973206E6F7420636F6E74726163740000 PUSH0 DUP3 ADD MSTORE POP JUMP JUMPDEST PUSH0 PUSH2 0x66C PUSH1 0x1E DUP4 PUSH2 0x628 JUMP JUMPDEST SWAP2 POP PUSH2 0x677 DUP3 PUSH2 0x638 JUMP JUMPDEST PUSH1 0x20 DUP3 ADD SWAP1 POP SWAP2 SWAP1 POP JUMP JUMPDEST PUSH0 PUSH1 0x20 DUP3 ADD SWAP1 POP DUP2 DUP2 SUB PUSH0 DUP4 ADD MSTORE PUSH2 0x699 DUP2 PUSH2 0x660 JUMP JUMPDEST SWAP1 POP SWAP2 SWAP1 POP JUMP JUMPDEST PUSH32 0x61646D696E203D207A65726F2061646472657373000000000000000000000000 PUSH0 DUP3 ADD MSTORE POP JUMP JUMPDEST PUSH0 PUSH2 0x6D4 PUSH1 0x14 DUP4 PUSH2 0x628 JUMP JUMPDEST SWAP2 POP PUSH2 0x6DF DUP3 PUSH2 0x6A0 JUMP JUMPDEST PUSH1 0x20 DUP3 ADD SWAP1 POP SWAP2 SWAP1 POP JUMP JUMPDEST PUSH0 PUSH1 0x20 DUP3 ADD SWAP1 POP DUP2 DUP2 SUB PUSH0 DUP4 ADD MSTORE PUSH2 0x701 DUP2 PUSH2 0x6C8 JUMP JUMPDEST SWAP1 POP SWAP2 SWAP1 POP JUMP INVALID LOG2 PUSH5 0x6970667358 0x22 SLT KECCAK256 SUB 0xC2 PC 0xC8 0x5E CALLDATASIZE RETURNDATACOPY 0xA7 0xA7 0xE0 SWAP6 PUSH2 0xE2D6 SHL 0xC7 BASEFEE LOG1 0xD1 0xEF 0x27 ADD 0xCB 0x4A 0x4E PUSH16 0x4B0C2B81D98064736F6C634300081600 CALLER "
				},
				"gasEstimates": {
					"creation": {
						"codeDepositCost": "370800",
						"executionCost": "infinite",
						"totalCost": "infinite"
					},
					"external": {
						"": "infinite",
						"admin()": "infinite",
						"changeAdmin(address)": "infinite",
						"implementation()": "infinite",
						"upgradeTo(address)": "infinite"
					},
					"internal": {
						"_delegate(address)": "infinite",
						"_fallback()": "infinite",
						"_getAdmin()": "infinite",
						"_getImplementation()": "infinite",
						"_setAdmin(address)": "infinite",
						"_setImplementation(address)": "infinite"
					}
				},
				"methodIdentifiers": {
					"admin()": "f851a440",
					"changeAdmin(address)": "8f283970",
					"implementation()": "5c60da1b",
					"upgradeTo(address)": "3659cfe6"
				}
			},
			"storageLayout": {
				"storage": [],
				"types": null
			},
			"userdoc": {
				"kind": "user",
				"methods": {},
				"version": 1
			}
		}
	}
}