{
	"contracts/Applications/UpgradeableProxy.sol": {
		"CounterV2": {
			"abi": [
				{
					"inputs": [],
					"name": "count",
					"outputs": [
						{
							"internalType": "uint256",
							"name": "",
							"type": "uint256"
						}
					],
					"stateMutability": "view",
					"type": "function"
				},
				{
					"inputs": [],
					"name": "dec",
					"outputs": [],
					"stateMutability": "nonpayable",
					"type": "function"
				},
				{
					"inputs": [],
					"name": "inc",
					"outputs": [],
					"stateMutability": "nonpayable",
					"type": "function"
				}
			],
			"devdoc": {
				"kind": "dev",
				"methods": {},
				"version": 1
			},
			"evm": {
				"assembly": "    /* \"contracts/Applications/UpgradeableProxy.sol\":204:363  contract CounterV2 {... */\n  mstore(0x40, 0x80)\n  callvalue\n  dup1\n  iszero\n  tag_1\n  jumpi\n  0x00\n  dup1\n  revert\ntag_1:\n  pop\n  dataSize(sub_0)\n  dup1\n  dataOffset(sub_0)\n  0x00\n  codecopy\n  0x00\n  return\nstop\n\nsub_0: assembly {\n        /* \"contracts/Applications/UpgradeableProxy.sol\":204:363  contract CounterV2 {... */\n      mstore(0x40, 0x80)\n      callvalue\n      dup1\n      iszero\n      tag_1\n      jumpi\n      0x00\n      dup1\n      revert\n    tag_1:\n      pop\n      jumpi(tag_2, lt(calldatasize, 0x04))\n      shr(0xe0, calldataload(0x00))\n      dup1\n      0x06661abd\n      eq\n      tag_3\n      jumpi\n      dup1\n      0x371303c0\n      eq\n      tag_4\n      jumpi\n      dup1\n      0xb3bcfa82\n      eq\n      tag_5\n      jumpi\n    tag_2:\n      0x00\n      dup1\n      revert\n        /* \"contracts/Applications/UpgradeableProxy.sol\":229:246  uint public count */\n    tag_3:\n      tag_6\n      tag_7\n      jump\t// in\n    tag_6:\n      mload(0x40)\n      tag_8\n      swap2\n      swap1\n      tag_9\n      jump\t// in\n    tag_8:\n      mload(0x40)\n      dup1\n      swap2\n      sub\n      swap1\n      return\n        /* \"contracts/Applications/UpgradeableProxy.sol\":253:304  function inc() external {... */\n    tag_4:\n      tag_10\n      tag_11\n      jump\t// in\n    tag_10:\n      stop\n        /* \"contracts/Applications/UpgradeableProxy.sol\":310:361  function dec() external {... */\n    tag_5:\n      tag_12\n      tag_13\n      jump\t// in\n    tag_12:\n      stop\n        /* \"contracts/Applications/UpgradeableProxy.sol\":229:246  uint public count */\n    tag_7:\n      sload(0x00)\n      dup2\n      jump\t// out\n        /* \"contracts/Applications/UpgradeableProxy.sol\":253:304  function inc() external {... */\n    tag_11:\n        /* \"contracts/Applications/UpgradeableProxy.sol\":296:297  1 */\n      0x01\n        /* \"contracts/Applications/UpgradeableProxy.sol\":287:292  count */\n      0x00\n      dup1\n        /* \"contracts/Applications/UpgradeableProxy.sol\":287:297  count += 1 */\n      dup3\n      dup3\n      sload\n      tag_15\n      swap2\n      swap1\n      tag_16\n      jump\t// in\n    tag_15:\n      swap3\n      pop\n      pop\n      dup2\n      swap1\n      sstore\n      pop\n        /* \"contracts/Applications/UpgradeableProxy.sol\":253:304  function inc() external {... */\n      jump\t// out\n        /* \"contracts/Applications/UpgradeableProxy.sol\":310:361  function dec() external {... */\n    tag_13:\n        /* \"contracts/Applications/UpgradeableProxy.sol\":353:354  1 */\n      0x01\n        /* \"contracts/Applications/UpgradeableProxy.sol\":344:349  count */\n      0x00\n      dup1\n        /* \"contracts/Applications/UpgradeableProxy.sol\":344:354  count -= 1 */\n      dup3\n      dup3\n      sload\n      tag_18\n      swap2\n      swap1\n      tag_19\n      jump\t// in\n    tag_18:\n      swap3\n      pop\n      pop\n      dup2\n      swap1\n      sstore\n      pop\n        /* \"contracts/Applications/UpgradeableProxy.sol\":310:361  function dec() external {... */\n      jump\t// out\n        /* \"#utility.yul\":7:84   */\n    tag_20:\n        /* \"#utility.yul\":44:51   */\n      0x00\n        /* \"#utility.yul\":73:78   */\n      dup2\n        /* \"#utility.yul\":62:78   */\n      swap1\n      pop\n        /* \"#utility.yul\":7:84   */\n      swap2\n      swap1\n      pop\n      jump\t// out\n        /* \"#utility.yul\":90:208   */\n    tag_21:\n        /* \"#utility.yul\":177:201   */\n      tag_26\n        /* \"#utility.yul\":195:200   */\n      dup2\n        /* \"#utility.yul\":177:201   */\n      tag_20\n      jump\t// in\n    tag_26:\n        /* \"#utility.yul\":172:175   */\n      dup3\n        /* \"#utility.yul\":165:202   */\n      mstore\n        /* \"#utility.yul\":90:208   */\n      pop\n      pop\n      jump\t// out\n        /* \"#utility.yul\":214:436   */\n    tag_9:\n        /* \"#utility.yul\":307:311   */\n      0x00\n        /* \"#utility.yul\":345:347   */\n      0x20\n        /* \"#utility.yul\":334:343   */\n      dup3\n        /* \"#utility.yul\":330:348   */\n      add\n        /* \"#utility.yul\":322:348   */\n      swap1\n      pop\n        /* \"#utility.yul\":358:429   */\n      tag_28\n        /* \"#utility.yul\":426:427   */\n      0x00\n        /* \"#utility.yul\":415:424   */\n      dup4\n        /* \"#utility.yul\":411:428   */\n      add\n        /* \"#utility.yul\":402:408   */\n      dup5\n        /* \"#utility.yul\":358:429   */\n      tag_21\n      jump\t// in\n    tag_28:\n        /* \"#utility.yul\":214:436   */\n      swap3\n      swap2\n      pop\n      pop\n      jump\t// out\n        /* \"#utility.yul\":442:622   */\n    tag_22:\n        /* \"#utility.yul\":490:567   */\n      0x4e487b7100000000000000000000000000000000000000000000000000000000\n        /* \"#utility.yul\":487:488   */\n      0x00\n        /* \"#utility.yul\":480:568   */\n      mstore\n        /* \"#utility.yul\":587:591   */\n      0x11\n        /* \"#utility.yul\":584:585   */\n      0x04\n        /* \"#utility.yul\":577:592   */\n      mstore\n        /* \"#utility.yul\":611:615   */\n      0x24\n        /* \"#utility.yul\":608:609   */\n      0x00\n        /* \"#utility.yul\":601:616   */\n      revert\n        /* \"#utility.yul\":628:819   */\n    tag_16:\n        /* \"#utility.yul\":668:671   */\n      0x00\n        /* \"#utility.yul\":687:707   */\n      tag_31\n        /* \"#utility.yul\":705:706   */\n      dup3\n        /* \"#utility.yul\":687:707   */\n      tag_20\n      jump\t// in\n    tag_31:\n        /* \"#utility.yul\":682:707   */\n      swap2\n      pop\n        /* \"#utility.yul\":721:741   */\n      tag_32\n        /* \"#utility.yul\":739:740   */\n      dup4\n        /* \"#utility.yul\":721:741   */\n      tag_20\n      jump\t// in\n    tag_32:\n        /* \"#utility.yul\":716:741   */\n      swap3\n      pop\n        /* \"#utility.yul\":764:765   */\n      dup3\n        /* \"#utility.yul\":761:762   */\n      dup3\n        /* \"#utility.yul\":757:766   */\n      add\n        /* \"#utility.yul\":750:766   */\n      swap1\n      pop\n        /* \"#utility.yul\":785:788   */\n      dup1\n        /* \"#utility.yul\":782:783   */\n      dup3\n        /* \"#utility.yul\":779:789   */\n      gt\n        /* \"#utility.yul\":776:812   */\n      iszero\n      tag_33\n      jumpi\n        /* \"#utility.yul\":792:810   */\n      tag_34\n      tag_22\n      jump\t// in\n    tag_34:\n        /* \"#utility.yul\":776:812   */\n    tag_33:\n        /* \"#utility.yul\":628:819   */\n      swap3\n      swap2\n      pop\n      pop\n      jump\t// out\n        /* \"#utility.yul\":825:1019   */\n    tag_19:\n        /* \"#utility.yul\":865:869   */\n      0x00\n        /* \"#utility.yul\":885:905   */\n      tag_36\n        /* \"#utility.yul\":903:904   */\n      dup3\n        /* \"#utility.yul\":885:905   */\n      tag_20\n      jump\t// in\n    tag_36:\n        /* \"#utility.yul\":880:905   */\n      swap2\n      pop\n        /* \"#utility.yul\":919:939   */\n      tag_37\n        /* \"#utility.yul\":937:938   */\n      dup4\n        /* \"#utility.yul\":919:939   */\n      tag_20\n      jump\t// in\n    tag_37:\n        /* \"#utility.yul\":914:939   */\n      swap3\n      pop\n        /* \"#utility.yul\":963:964   */\n      dup3\n        /* \"#utility.yul\":960:961   */\n      dup3\n        /* \"#utility.yul\":956:965   */\n      sub\n        /* \"#utility.yul\":948:965   */\n      swap1\n      pop\n        /* \"#utility.yul\":987:988   */\n      dup2\n        /* \"#utility.yul\":981:985   */\n      dup2\n        /* \"#utility.yul\":978:989   */\n      gt\n        /* \"#utility.yul\":975:1012   */\n      iszero\n      tag_38\n      jumpi\n        /* \"#utility.yul\":992:1010   */\n      tag_39\n      tag_22\n      jump\t// in\n    tag_39:\n        /* \"#utility.yul\":975:1012   */\n    tag_38:\n        /* \"#utility.yul\":825:1019   */\n      swap3\n      swap2\n      pop\n      pop\n      jump\t// out\n\n    auxdata: 0xa26469706673582212201ad3a46dd1bdb12f5ff572654240a96edbdf5c2f811688d335f6288f3fef832164736f6c63430008160033\n}\n",
				"bytecode": {
					"linkReferences": {},
					"object": "608060405234801561000f575f80fd5b506101a88061001d5f395ff3fe608060405234801561000f575f80fd5b506004361061003f575f3560e01c806306661abd14610043578063371303c014610061578063b3bcfa821461006b575b5f80fd5b61004b610075565b60405161005891906100c6565b60405180910390f35b61006961007a565b005b610073610094565b005b5f5481565b60015f8082825461008b919061010c565b92505081905550565b60015f808282546100a5919061013f565b92505081905550565b5f819050919050565b6100c0816100ae565b82525050565b5f6020820190506100d95f8301846100b7565b92915050565b7f4e487b71000000000000000000000000000000000000000000000000000000005f52601160045260245ffd5b5f610116826100ae565b9150610121836100ae565b9250828201905080821115610139576101386100df565b5b92915050565b5f610149826100ae565b9150610154836100ae565b925082820390508181111561016c5761016b6100df565b5b9291505056fea26469706673582212201ad3a46dd1bdb12f5ff572654240a96edbdf5c2f811688d335f6288f3fef832164736f6c63430008160033",
					"opcodes": "PUSH1 0x80 PUSH1 0x40 MSTORE CALLVALUE DUP1 ISZERO PUSH2 0xF JUMPI PUSH0 DUP1 REVERT JUMPDEST POP PUSH2 0x1A8 DUP1 PUSH2 0x1D PUSH0 CODECOPY PUSH0 RETURN INVALID PUSH1 0x80 PUSH1 0x40 MSTORE CALLVALUE DUP1 ISZERO PUSH2 0xF JUMPI PUSH0 DUP1 REVERT JUMPDEST POP PUSH1 0x4 CALLDATASIZE LT PUSH2 0x3F JUMPI PUSH0 CALLDATALOAD PUSH1 0xE0 SHR DUP1 PUSH4 0x6661ABD EQ PUSH2 0x43 JUMPI DUP1 PUSH4 0x371303C0 EQ PUSH2 0x61 JUMPI DUP1 PUSH4 0xB3BCFA82 EQ PUSH2 0x6B JUMPI JUMPDEST PUSH0 DUP1 REVERT JUMPDEST PUSH2 0x4B PUSH2 0x75 JUMP JUMPDEST PUSH1 0x40 MLOAD PUSH2 0x58 SWAP2 SWAP1 PUSH2 0xC6 JUMP JUMPDEST PUSH1 0x40 MLOAD DUP1 SWAP2 SUB SWAP1 RETURN JUMPDEST PUSH2 0x69 PUSH2 0x7A JUMP JUMPDEST STOP JUMPDEST PUSH2 0x73 PUSH2 0x94 JUMP JUMPDEST STOP JUMPDEST PUSH0 SLOAD DUP2 JUMP JUMPDEST PUSH1 0x1 PUSH0 DUP1 DUP3 DUP3 SLOAD PUSH2 0x8B SWAP2 SWAP1 PUSH2 0x10C JUMP JUMPDEST SWAP3 POP POP DUP2 SWAP1 SSTORE POP JUMP JUMPDEST PUSH1 0x1 PUSH0 DUP1 DUP3 DUP3 SLOAD PUSH2 0xA5 SWAP2 SWAP1 PUSH2 0x13F JUMP JUMPDEST SWAP3 POP POP DUP2 SWAP1 SSTORE POP JUMP JUMPDEST PUSH0 DUP2 SWAP1 POP SWAP2 SWAP1 POP JUMP JUMPDEST PUSH2 0xC0 DUP2 PUSH2 0xAE JUMP JUMPDEST DUP3 MSTORE POP POP JUMP JUMPDEST PUSH0 PUSH1 0x20 DUP3 ADD SWAP1 POP PUSH2 0xD9 PUSH0 DUP4 ADD DUP5 PUSH2 0xB7 JUMP JUMPDEST SWAP3 SWAP2 POP POP JUMP JUMPDEST PUSH32 0x4E487B7100000000000000000000000000000000000000000000000000000000 PUSH0 MSTORE PUSH1 0x11 PUSH1 0x4 MSTORE PUSH1 0x24 PUSH0 REVERT JUMPDEST PUSH0 PUSH2 0x116 DUP3 PUSH2 0xAE JUMP JUMPDEST SWAP2 POP PUSH2 0x121 DUP4 PUSH2 0xAE JUMP JUMPDEST SWAP3 POP DUP3 DUP3 ADD SWAP1 POP DUP1 DUP3 GT ISZERO PUSH2 0x139 JUMPI PUSH2 0x138 PUSH2 0xDF JUMP JUMPDEST JUMPDEST SWAP3 SWAP2 POP POP JUMP JUMPDEST PUSH0 PUSH2 0x149 DUP3 PUSH2 0xAE JUMP JUMPDEST SWAP2 POP PUSH2 0x154 DUP4 PUSH2 0xAE JUMP JUMPDEST SWAP3 POP DUP3 DUP3 SUB SWAP1 POP DUP2 DUP2 GT ISZERO PUSH2 0x16C JUMPI PUSH2 0x16B PUSH2 0xDF JUMP JUMPDEST JUMPDEST SWAP3 SWAP2 POP POP JUMP INVALID LOG2 PUSH5 0x6970667358 0x22 SLT KECCAK256 BYTE 0xD3 LOG4 PUSH14 0xD1BDB12F5FF572654240A96EDBDF 0x5C 0x2F DUP2 AND DUP9 0xD3 CALLDATALOAD 0xF6 0x28 DUP16 EXTCODEHASH 0xEF DUP4 0x21 PUSH5 0x736F6C6343 STOP ADDMOD AND STOP CALLER "
				},
				"gasEstimates": {
					"creation": {
						"codeDepositCost": "84800",
						"executionCost": "133",
						"totalCost": "84933"
					},
					"external": {
						"count()": "2402",
						"dec()": "infinite",
						"inc()": "infinite"
					}
				},
				"methodIdentifiers": {
					"count()": "06661abd",
					"dec()": "b3bcfa82",
					"inc()": "371303c0"
				}
			},
			"storageLayout": {
				"storage": [
					{
						"astId": 14,
						"contract": "contracts/Applications/UpgradeableProxy.sol:CounterV2",
						"label": "count",
						"offset": 0,
						"slot": "0",
						"type": "t_uint256"
					}
				],
				"types": {
					"t_uint256": {
						"encoding": "inplace",
						"label": "uint256",
						"numberOfBytes": "32"
					}
				}
			},
			"userdoc": {
				"kind": "user",
				"methods": {},
				"version": 1
			}
		}
	}
}