{
	"contracts/Applications/SimpleBytecodeContract.sol": {
		"Factory": {
			"abi": [
				{
					"anonymous": false,
					"inputs": [
						{
							"indexed": false,
							"internalType": "address",
							"name": "addr",
							"type": "address"
						}
					],
					"name": "Log",
					"type": "event"
				},
				{
					"inputs": [],
					"name": "deploy",
					"outputs": [],
					"stateMutability": "nonpayable",
					"type": "function"
				}
			],
			"devdoc": {
				"kind": "dev",
				"methods": {},
				"version": 1
			},
			"evm": {
				"assembly": "    /* \"contracts/Applications/SimpleBytecodeContract.sol\":59:487  contract Factory {... */\n  mstore(0x40, 0x80)\n  callvalue\n  dup1\n  iszero\n  tag_1\n  jumpi\n  0x00\n  dup1\n  revert\ntag_1:\n  pop\n  dataSize(sub_0)\n  dup1\n  dataOffset(sub_0)\n  0x00\n  codecopy\n  0x00\n  return\nstop\n\nsub_0: assembly {\n        /* \"contracts/Applications/SimpleBytecodeContract.sol\":59:487  contract Factory {... */\n      mstore(0x40, 0x80)\n      callvalue\n      dup1\n      iszero\n      tag_1\n      jumpi\n      0x00\n      dup1\n      revert\n    tag_1:\n      pop\n      jumpi(tag_2, lt(calldatasize, 0x04))\n      shr(0xe0, calldataload(0x00))\n      dup1\n      0x775c300c\n      eq\n      tag_3\n      jumpi\n    tag_2:\n      0x00\n      dup1\n      revert\n        /* \"contracts/Applications/SimpleBytecodeContract.sol\":161:485  function deploy() external {... */\n    tag_3:\n      tag_4\n      tag_5\n      jump\t// in\n    tag_4:\n      stop\n    tag_5:\n        /* \"contracts/Applications/SimpleBytecodeContract.sol\":198:219  bytes memory bytecode */\n      0x00\n        /* \"contracts/Applications/SimpleBytecodeContract.sol\":198:265  bytes memory bytecode = hex\"69602a60005260206000f3600052600a6016f3\" */\n      mload(0x40)\n      dup1\n      0x40\n      add\n      0x40\n      mstore\n      dup1\n      0x13\n      dup2\n      mstore\n      0x20\n      add\n      0x69602a60005260206000f3600052600a6016f300000000000000000000000000\n      dup2\n      mstore\n      pop\n      swap1\n      pop\n        /* \"contracts/Applications/SimpleBytecodeContract.sol\":275:287  address addr */\n      0x00\n        /* \"contracts/Applications/SimpleBytecodeContract.sol\":402:406  0x13 */\n      0x13\n        /* \"contracts/Applications/SimpleBytecodeContract.sol\":395:399  0x20 */\n      0x20\n        /* \"contracts/Applications/SimpleBytecodeContract.sol\":385:393  bytecode */\n      dup4\n        /* \"contracts/Applications/SimpleBytecodeContract.sol\":381:400  add(bytecode, 0x20) */\n      add\n        /* \"contracts/Applications/SimpleBytecodeContract.sol\":378:379  0 */\n      0x00\n        /* \"contracts/Applications/SimpleBytecodeContract.sol\":371:407  create(0, add(bytecode, 0x20), 0x13) */\n      create\n        /* \"contracts/Applications/SimpleBytecodeContract.sol\":363:407  addr := create(0, add(bytecode, 0x20), 0x13) */\n      swap1\n      pop\n        /* \"contracts/Applications/SimpleBytecodeContract.sol\":450:451  0 */\n      0x00\n        /* \"contracts/Applications/SimpleBytecodeContract.sol\":434:452  addr != address(0) */\n      0xffffffffffffffffffffffffffffffffffffffff\n      and\n        /* \"contracts/Applications/SimpleBytecodeContract.sol\":434:438  addr */\n      dup2\n        /* \"contracts/Applications/SimpleBytecodeContract.sol\":434:452  addr != address(0) */\n      0xffffffffffffffffffffffffffffffffffffffff\n      and\n      sub\n        /* \"contracts/Applications/SimpleBytecodeContract.sol\":426:453  require(addr != address(0)) */\n      tag_7\n      jumpi\n      0x00\n      dup1\n      revert\n    tag_7:\n        /* \"contracts/Applications/SimpleBytecodeContract.sol\":469:478  Log(addr) */\n      0xb8a00d6d8ca1be30bfec34d8f97e55f0f0fd9eeb7fb46e030516363d4cfe1ad6\n        /* \"contracts/Applications/SimpleBytecodeContract.sol\":473:477  addr */\n      dup2\n        /* \"contracts/Applications/SimpleBytecodeContract.sol\":469:478  Log(addr) */\n      mload(0x40)\n      tag_8\n      swap2\n      swap1\n      tag_9\n      jump\t// in\n    tag_8:\n      mload(0x40)\n      dup1\n      swap2\n      sub\n      swap1\n      log1\n        /* \"contracts/Applications/SimpleBytecodeContract.sol\":188:485  {... */\n      pop\n      pop\n        /* \"contracts/Applications/SimpleBytecodeContract.sol\":161:485  function deploy() external {... */\n      jump\t// out\n        /* \"#utility.yul\":7:133   */\n    tag_10:\n        /* \"#utility.yul\":44:51   */\n      0x00\n        /* \"#utility.yul\":84:126   */\n      0xffffffffffffffffffffffffffffffffffffffff\n        /* \"#utility.yul\":77:82   */\n      dup3\n        /* \"#utility.yul\":73:127   */\n      and\n        /* \"#utility.yul\":62:127   */\n      swap1\n      pop\n        /* \"#utility.yul\":7:133   */\n      swap2\n      swap1\n      pop\n      jump\t// out\n        /* \"#utility.yul\":139:235   */\n    tag_11:\n        /* \"#utility.yul\":176:183   */\n      0x00\n        /* \"#utility.yul\":205:229   */\n      tag_16\n        /* \"#utility.yul\":223:228   */\n      dup3\n        /* \"#utility.yul\":205:229   */\n      tag_10\n      jump\t// in\n    tag_16:\n        /* \"#utility.yul\":194:229   */\n      swap1\n      pop\n        /* \"#utility.yul\":139:235   */\n      swap2\n      swap1\n      pop\n      jump\t// out\n        /* \"#utility.yul\":241:359   */\n    tag_12:\n        /* \"#utility.yul\":328:352   */\n      tag_18\n        /* \"#utility.yul\":346:351   */\n      dup2\n        /* \"#utility.yul\":328:352   */\n      tag_11\n      jump\t// in\n    tag_18:\n        /* \"#utility.yul\":323:326   */\n      dup3\n        /* \"#utility.yul\":316:353   */\n      mstore\n        /* \"#utility.yul\":241:359   */\n      pop\n      pop\n      jump\t// out\n        /* \"#utility.yul\":365:587   */\n    tag_9:\n        /* \"#utility.yul\":458:462   */\n      0x00\n        /* \"#utility.yul\":496:498   */\n      0x20\n        /* \"#utility.yul\":485:494   */\n      dup3\n        /* \"#utility.yul\":481:499   */\n      add\n        /* \"#utility.yul\":473:499   */\n      swap1\n      pop\n        /* \"#utility.yul\":509:580   */\n      tag_20\n        /* \"#utility.yul\":577:578   */\n      0x00\n        /* \"#utility.yul\":566:575   */\n      dup4\n        /* \"#utility.yul\":562:579   */\n      add\n        /* \"#utility.yul\":553:559   */\n      dup5\n        /* \"#utility.yul\":509:580   */\n      tag_12\n      jump\t// in\n    tag_20:\n        /* \"#utility.yul\":365:587   */\n      swap3\n      swap2\n      pop\n      pop\n      jump\t// out\n\n    auxdata: 0xa2646970667358221220871ec2754f3aa6e354843f5c989d2ca0a9f16e33d50b14b9e0f204e58627eb0164736f6c63430008160033\n}\n",
				"bytecode": {
					"linkReferences": {},
					"object": "608060405234801561000f575f80fd5b5061017b8061001d5f395ff3fe608060405234801561000f575f80fd5b5060043610610029575f3560e01c8063775c300c1461002d575b5f80fd5b610035610037565b005b5f6040518060400160405280601381526020017f69602a60005260206000f3600052600a6016f30000000000000000000000000081525090505f6013602083015ff090505f73ffffffffffffffffffffffffffffffffffffffff168173ffffffffffffffffffffffffffffffffffffffff16036100b2575f80fd5b7fb8a00d6d8ca1be30bfec34d8f97e55f0f0fd9eeb7fb46e030516363d4cfe1ad6816040516100e1919061012c565b60405180910390a15050565b5f73ffffffffffffffffffffffffffffffffffffffff82169050919050565b5f610116826100ed565b9050919050565b6101268161010c565b82525050565b5f60208201905061013f5f83018461011d565b9291505056fea2646970667358221220871ec2754f3aa6e354843f5c989d2ca0a9f16e33d50b14b9e0f204e58627eb0164736f6c63430008160033",
					"opcodes": "PUSH1 0x80 PUSH1 0x40 MSTORE CALLVALUE DUP1 ISZERO PUSH2 0xF JUMPI PUSH0 DUP1 REVERT JUMPDEST POP PUSH2 0x17B DUP1 PUSH2 0x1D PUSH0 CODECOPY PUSH0 RETURN INVALID PUSH1 0x80 PUSH1 0x40 MSTORE CALLVALUE DUP1 ISZERO PUSH2 0xF JUMPI PUSH0 DUP1 REVERT JUMPDEST POP PUSH1 0x4 CALLDATASIZE LT PUSH2 0x29 JUMPI PUSH0 CALLDATALOAD PUSH1 0xE0 SHR DUP1 PUSH4 0x775C300C EQ PUSH2 0x2D JUMPI JUMPDEST PUSH0 DUP1 REVERT JUMPDEST PUSH2 0x35 PUSH2 0x37 JUMP JUMPDEST STOP JUMPDEST PUSH0 PUSH1 0x40 MLOAD DUP1 PUSH1 0x40 ADD PUSH1 0x40 MSTORE DUP1 PUSH1 0x13 DUP2 MSTORE PUSH1 0x20 ADD PUSH32 0x69602A60005260206000F3600052600A6016F300000000000000000000000000 DUP2 MSTORE POP SWAP1 POP PUSH0 PUSH1 0x13 PUSH1 0x20 DUP4 ADD PUSH0 CREATE SWAP1 POP PUSH0 PUSH20 0xFFFFFFFFFFFFFFFFFFFFFFFFFFFFFFFFFFFFFFFF AND DUP2 PUSH20 0xFFFFFFFFFFFFFFFFFFFFFFFFFFFFFFFFFFFFFFFF AND SUB PUSH2 0xB2 JUMPI PUSH0 DUP1 REVERT JUMPDEST PUSH32 0xB8A00D6D8CA1BE30BFEC34D8F97E55F0F0FD9EEB7FB46E030516363D4CFE1AD6 DUP2 PUSH1 0x40 MLOAD PUSH2 0xE1 SWAP2 SWAP1 PUSH2 0x12C JUMP JUMPDEST PUSH1 0x40 MLOAD DUP1 SWAP2 SUB SWAP1 LOG1 POP POP JUMP JUMPDEST PUSH0 PUSH20 0xFFFFFFFFFFFFFFFFFFFFFFFFFFFFFFFFFFFFFFFF DUP3 AND SWAP1 POP SWAP2 SWAP1 POP JUMP JUMPDEST PUSH0 PUSH2 0x116 DUP3 PUSH2 0xED JUMP JUMPDEST SWAP1 POP SWAP2 SWAP1 POP JUMP JUMPDEST PUSH2 0x126 DUP2 PUSH2 0x10C JUMP JUMPDEST DUP3 MSTORE POP POP JUMP JUMPDEST PUSH0 PUSH1 0x20 DUP3 ADD SWAP1 POP PUSH2 0x13F PUSH0 DUP4 ADD DUP5 PUSH2 0x11D JUMP JUMPDEST SWAP3 SWAP2 POP POP JUMP INVALID LOG2 PUSH5 0x6970667358 0x22 SLT KECCAK256 DUP8 0x1E 0xC2 PUSH22 0x4F3AA6E354843F5C989D2CA0A9F16E33D50B14B9E0F2 DIV 0xE5 DUP7 0x27 0xEB ADD PUSH5 0x736F6C6343 STOP ADDMOD AND STOP CALLER "
				},
				"gasEstimates": {
					"creation": {
						"codeDepositCost": "75800",
						"executionCost": "121",
						"totalCost": "75921"
					},
					"external": {
						"deploy()": "infinite"
					}
				},
				"methodIdentifiers": {
					"deploy()": "775c300c"
				}
			},
			"storageLayout": {
				"storage": [],
				"types": null
			},
			"userdoc": {
				"kind": "user",
				"methods": {},
				"version": 1
			}
		}
	}
}